{
	"testing.sol": {
		"StartStopUpdateExample": {
			"abi": [
				{
					"inputs": [],
					"stateMutability": "nonpayable",
					"type": "constructor"
				},
				{
					"inputs": [],
					"name": "addition",
					"outputs": [
						{
							"internalType": "uint256",
							"name": "",
							"type": "uint256"
						}
					],
					"stateMutability": "view",
					"type": "function"
				},
				{
					"inputs": [
						{
							"internalType": "address payable",
							"name": "_to",
							"type": "address"
						}
					],
					"name": "destroySmartContract",
					"outputs": [],
					"stateMutability": "nonpayable",
					"type": "function"
				},
				{
					"inputs": [],
					"name": "getOwner",
					"outputs": [
						{
							"internalType": "address",
							"name": "",
							"type": "address"
						}
					],
					"stateMutability": "view",
					"type": "function"
				},
				{
					"inputs": [],
					"name": "mod",
					"outputs": [
						{
							"internalType": "uint256",
							"name": "",
							"type": "uint256"
						}
					],
					"stateMutability": "view",
					"type": "function"
				},
				{
					"inputs": [
						{
							"internalType": "uint256",
							"name": "_mod",
							"type": "uint256"
						}
					],
					"name": "modSet",
					"outputs": [],
					"stateMutability": "nonpayable",
					"type": "function"
				},
				{
					"inputs": [],
					"name": "showOwner",
					"outputs": [
						{
							"internalType": "address",
							"name": "",
							"type": "address"
						}
					],
					"stateMutability": "view",
					"type": "function"
				},
				{
					"inputs": [],
					"name": "subtra",
					"outputs": [
						{
							"internalType": "uint256",
							"name": "",
							"type": "uint256"
						}
					],
					"stateMutability": "view",
					"type": "function"
				},
				{
					"inputs": [],
					"name": "subtraction",
					"outputs": [
						{
							"internalType": "uint256",
							"name": "",
							"type": "uint256"
						}
					],
					"stateMutability": "view",
					"type": "function"
				},
				{
					"inputs": [],
					"name": "var1",
					"outputs": [
						{
							"internalType": "uint256",
							"name": "",
							"type": "uint256"
						}
					],
					"stateMutability": "view",
					"type": "function"
				},
				{
					"inputs": [
						{
							"internalType": "uint256",
							"name": "_var1",
							"type": "uint256"
						}
					],
					"name": "var1Set",
					"outputs": [],
					"stateMutability": "nonpayable",
					"type": "function"
				},
				{
					"inputs": [],
					"name": "var2",
					"outputs": [
						{
							"internalType": "uint256",
							"name": "",
							"type": "uint256"
						}
					],
					"stateMutability": "view",
					"type": "function"
				},
				{
					"inputs": [
						{
							"internalType": "uint256",
							"name": "_var2",
							"type": "uint256"
						}
					],
					"name": "var2Set",
					"outputs": [],
					"stateMutability": "nonpayable",
					"type": "function"
				}
			],
			"devdoc": {
				"kind": "dev",
				"methods": {},
				"version": 1
			},
			"evm": {
				"assembly": "    /* \"testing.sol\":70:2107  contract StartStopUpdateExample {\r... */\n  mstore(0x40, 0x80)\n    /* \"testing.sol\":389:592  constructor() public {\r... */\n  callvalue\n  dup1\n  iszero\n  tag_1\n  jumpi\n  0x00\n  dup1\n  revert\ntag_1:\n  pop\n    /* \"testing.sol\":574:584  msg.sender */\n  caller\n    /* \"testing.sol\":566:571  owner */\n  0x00\n  dup1\n    /* \"testing.sol\":566:584  owner = msg.sender */\n  0x0100\n  exp\n  dup2\n  sload\n  dup2\n  0xffffffffffffffffffffffffffffffffffffffff\n  mul\n  not\n  and\n  swap1\n  dup4\n  0xffffffffffffffffffffffffffffffffffffffff\n  and\n  mul\n  or\n  swap1\n  sstore\n  pop\n    /* \"testing.sol\":70:2107  contract StartStopUpdateExample {\r... */\n  dataSize(sub_0)\n  dup1\n  dataOffset(sub_0)\n  0x00\n  codecopy\n  0x00\n  return\nstop\n\nsub_0: assembly {\n        /* \"testing.sol\":70:2107  contract StartStopUpdateExample {\r... */\n      mstore(0x40, 0x80)\n      callvalue\n      dup1\n      iszero\n      tag_1\n      jumpi\n      0x00\n      dup1\n      revert\n    tag_1:\n      pop\n      jumpi(tag_2, lt(calldatasize, 0x04))\n      shr(0xe0, calldataload(0x00))\n      dup1\n      0x9ce147d1\n      gt\n      tag_15\n      jumpi\n      dup1\n      0x9ce147d1\n      eq\n      tag_9\n      jumpi\n      dup1\n      0xded94688\n      eq\n      tag_10\n      jumpi\n      dup1\n      0xe3ec0251\n      eq\n      tag_11\n      jumpi\n      dup1\n      0xebc531ff\n      eq\n      tag_12\n      jumpi\n      dup1\n      0xec597128\n      eq\n      tag_13\n      jumpi\n      dup1\n      0xfb3552fc\n      eq\n      tag_14\n      jumpi\n      jump(tag_2)\n    tag_15:\n      dup1\n      0x2986e054\n      eq\n      tag_3\n      jumpi\n      dup1\n      0x39df43ff\n      eq\n      tag_4\n      jumpi\n      dup1\n      0x507aff57\n      eq\n      tag_5\n      jumpi\n      dup1\n      0x67e919b6\n      eq\n      tag_6\n      jumpi\n      dup1\n      0x7e9bf9ff\n      eq\n      tag_7\n      jumpi\n      dup1\n      0x893d20e8\n      eq\n      tag_8\n      jumpi\n    tag_2:\n      0x00\n      dup1\n      revert\n        /* \"testing.sol\":360:378  uint256 public mod */\n    tag_3:\n      tag_16\n      tag_17\n      jump\t// in\n    tag_16:\n      mload(0x40)\n      tag_18\n      swap2\n      swap1\n      tag_19\n      jump\t// in\n    tag_18:\n      mload(0x40)\n      dup1\n      swap2\n      sub\n      swap1\n      return\n        /* \"testing.sol\":1943:2098  function destroySmartContract (address payable _to) public {\r... */\n    tag_4:\n      tag_20\n      0x04\n      dup1\n      calldatasize\n      sub\n      dup2\n      add\n      swap1\n      tag_21\n      swap2\n      swap1\n      tag_22\n      jump\t// in\n    tag_21:\n      tag_23\n      jump\t// in\n    tag_20:\n      stop\n        /* \"testing.sol\":333:352  uint256 public var2 */\n    tag_5:\n      tag_24\n      tag_25\n      jump\t// in\n    tag_24:\n      mload(0x40)\n      tag_26\n      swap2\n      swap1\n      tag_19\n      jump\t// in\n    tag_26:\n      mload(0x40)\n      dup1\n      swap2\n      sub\n      swap1\n      return\n        /* \"testing.sol\":307:326  uint256 public var1 */\n    tag_6:\n      tag_27\n      tag_28\n      jump\t// in\n    tag_27:\n      mload(0x40)\n      tag_29\n      swap2\n      swap1\n      tag_19\n      jump\t// in\n    tag_29:\n      mload(0x40)\n      dup1\n      swap2\n      sub\n      swap1\n      return\n        /* \"testing.sol\":1276:1344  function modSet(uint _mod) public\r... */\n    tag_7:\n      tag_30\n      0x04\n      dup1\n      calldatasize\n      sub\n      dup2\n      add\n      swap1\n      tag_31\n      swap2\n      swap1\n      tag_32\n      jump\t// in\n    tag_31:\n      tag_33\n      jump\t// in\n    tag_30:\n      stop\n        /* \"testing.sol\":804:895  function getOwner(\r... */\n    tag_8:\n      tag_34\n      tag_35\n      jump\t// in\n    tag_34:\n      mload(0x40)\n      tag_36\n      swap2\n      swap1\n      tag_37\n      jump\t// in\n    tag_36:\n      mload(0x40)\n      dup1\n      swap2\n      sub\n      swap1\n      return\n        /* \"testing.sol\":1737:1842  function subtra() public view returns(uint){\r... */\n    tag_9:\n      tag_38\n      tag_39\n      jump\t// in\n    tag_38:\n      mload(0x40)\n      tag_40\n      swap2\n      swap1\n      tag_19\n      jump\t// in\n    tag_40:\n      mload(0x40)\n      dup1\n      swap2\n      sub\n      swap1\n      return\n        /* \"testing.sol\":602:691  function showOwner() public view returns(address){\r... */\n    tag_10:\n      tag_41\n      tag_42\n      jump\t// in\n    tag_41:\n      mload(0x40)\n      tag_43\n      swap2\n      swap1\n      tag_37\n      jump\t// in\n    tag_43:\n      mload(0x40)\n      dup1\n      swap2\n      sub\n      swap1\n      return\n        /* \"testing.sol\":1583:1693  function subtraction() public view returns(uint){\r... */\n    tag_11:\n      tag_44\n      tag_45\n      jump\t// in\n    tag_44:\n      mload(0x40)\n      tag_46\n      swap2\n      swap1\n      tag_19\n      jump\t// in\n    tag_46:\n      mload(0x40)\n      dup1\n      swap2\n      sub\n      swap1\n      return\n        /* \"testing.sol\":1194:1266  function var2Set(uint _var2) public\r... */\n    tag_12:\n      tag_47\n      0x04\n      dup1\n      calldatasize\n      sub\n      dup2\n      add\n      swap1\n      tag_48\n      swap2\n      swap1\n      tag_32\n      jump\t// in\n    tag_48:\n      tag_49\n      jump\t// in\n    tag_47:\n      stop\n        /* \"testing.sol\":1389:1496  function addition() public view returns(uint){\r... */\n    tag_13:\n      tag_50\n      tag_51\n      jump\t// in\n    tag_50:\n      mload(0x40)\n      tag_52\n      swap2\n      swap1\n      tag_19\n      jump\t// in\n    tag_52:\n      mload(0x40)\n      dup1\n      swap2\n      sub\n      swap1\n      return\n        /* \"testing.sol\":1001:1073  function var1Set(uint _var1) public\r... */\n    tag_14:\n      tag_53\n      0x04\n      dup1\n      calldatasize\n      sub\n      dup2\n      add\n      swap1\n      tag_54\n      swap2\n      swap1\n      tag_32\n      jump\t// in\n    tag_54:\n      tag_55\n      jump\t// in\n    tag_53:\n      stop\n        /* \"testing.sol\":360:378  uint256 public mod */\n    tag_17:\n      sload(0x03)\n      dup2\n      jump\t// out\n        /* \"testing.sol\":1943:2098  function destroySmartContract (address payable _to) public {\r... */\n    tag_23:\n        /* \"testing.sol\":2035:2040  owner */\n      0x00\n      dup1\n      sload\n      swap1\n      0x0100\n      exp\n      swap1\n      div\n      0xffffffffffffffffffffffffffffffffffffffff\n      and\n        /* \"testing.sol\":2021:2040  msg.sender == owner */\n      0xffffffffffffffffffffffffffffffffffffffff\n      and\n        /* \"testing.sol\":2021:2031  msg.sender */\n      caller\n        /* \"testing.sol\":2021:2040  msg.sender == owner */\n      0xffffffffffffffffffffffffffffffffffffffff\n      and\n      eq\n        /* \"testing.sol\":2013:2062  require(msg.sender == owner, \"You are not OWNER\") */\n      tag_57\n      jumpi\n      mload(0x40)\n      0x08c379a000000000000000000000000000000000000000000000000000000000\n      dup2\n      mstore\n      0x04\n      add\n      tag_58\n      swap1\n      tag_59\n      jump\t// in\n    tag_58:\n      mload(0x40)\n      dup1\n      swap2\n      sub\n      swap1\n      revert\n    tag_57:\n        /* \"testing.sol\":2086:2089  _to */\n      dup1\n        /* \"testing.sol\":2073:2090  selfdestruct(_to) */\n      0xffffffffffffffffffffffffffffffffffffffff\n      and\n      selfdestruct\n        /* \"testing.sol\":333:352  uint256 public var2 */\n    tag_25:\n      sload(0x02)\n      dup2\n      jump\t// out\n        /* \"testing.sol\":307:326  uint256 public var1 */\n    tag_28:\n      sload(0x01)\n      dup2\n      jump\t// out\n        /* \"testing.sol\":1276:1344  function modSet(uint _mod) public\r... */\n    tag_33:\n        /* \"testing.sol\":1332:1336  _mod */\n      dup1\n        /* \"testing.sol\":1326:1329  mod */\n      0x03\n        /* \"testing.sol\":1326:1336  mod = _mod */\n      dup2\n      swap1\n      sstore\n      pop\n        /* \"testing.sol\":1276:1344  function modSet(uint _mod) public\r... */\n      pop\n      jump\t// out\n        /* \"testing.sol\":804:895  function getOwner(\r... */\n    tag_35:\n        /* \"testing.sol\":851:858  address */\n      0x00\n        /* \"testing.sol\":882:887  owner */\n      dup1\n      0x00\n      swap1\n      sload\n      swap1\n      0x0100\n      exp\n      swap1\n      div\n      0xffffffffffffffffffffffffffffffffffffffff\n      and\n        /* \"testing.sol\":875:887  return owner */\n      swap1\n      pop\n        /* \"testing.sol\":804:895  function getOwner(\r... */\n      swap1\n      jump\t// out\n        /* \"testing.sol\":1737:1842  function subtra() public view returns(uint){\r... */\n    tag_39:\n        /* \"testing.sol\":1775:1779  uint */\n      0x00\n        /* \"testing.sol\":1791:1799  uint sub */\n      dup1\n        /* \"testing.sol\":1809:1813  var2 */\n      sload(0x02)\n        /* \"testing.sol\":1802:1806  var1 */\n      sload(0x01)\n        /* \"testing.sol\":1802:1813  var1 - var2 */\n      tag_63\n      swap2\n      swap1\n      tag_64\n      jump\t// in\n    tag_63:\n        /* \"testing.sol\":1791:1813  uint sub = var1 - var2 */\n      swap1\n      pop\n        /* \"testing.sol\":1831:1834  sub */\n      dup1\n        /* \"testing.sol\":1824:1834  return sub */\n      swap2\n      pop\n      pop\n        /* \"testing.sol\":1737:1842  function subtra() public view returns(uint){\r... */\n      swap1\n      jump\t// out\n        /* \"testing.sol\":602:691  function showOwner() public view returns(address){\r... */\n    tag_42:\n        /* \"testing.sol\":643:650  address */\n      0x00\n        /* \"testing.sol\":677:682  owner */\n      dup1\n      0x00\n      swap1\n      sload\n      swap1\n      0x0100\n      exp\n      swap1\n      div\n      0xffffffffffffffffffffffffffffffffffffffff\n      and\n        /* \"testing.sol\":662:683  return address(owner) */\n      swap1\n      pop\n        /* \"testing.sol\":602:691  function showOwner() public view returns(address){\r... */\n      swap1\n      jump\t// out\n        /* \"testing.sol\":1583:1693  function subtraction() public view returns(uint){\r... */\n    tag_45:\n        /* \"testing.sol\":1626:1630  uint */\n      0x00\n        /* \"testing.sol\":1642:1650  uint sub */\n      dup1\n        /* \"testing.sol\":1660:1664  var2 */\n      sload(0x02)\n        /* \"testing.sol\":1653:1657  var1 */\n      sload(0x01)\n        /* \"testing.sol\":1653:1664  var1 - var2 */\n      tag_67\n      swap2\n      swap1\n      tag_64\n      jump\t// in\n    tag_67:\n        /* \"testing.sol\":1642:1664  uint sub = var1 - var2 */\n      swap1\n      pop\n        /* \"testing.sol\":1682:1685  sub */\n      dup1\n        /* \"testing.sol\":1675:1685  return sub */\n      swap2\n      pop\n      pop\n        /* \"testing.sol\":1583:1693  function subtraction() public view returns(uint){\r... */\n      swap1\n      jump\t// out\n        /* \"testing.sol\":1194:1266  function var2Set(uint _var2) public\r... */\n    tag_49:\n        /* \"testing.sol\":1253:1258  _var2 */\n      dup1\n        /* \"testing.sol\":1246:1250  var2 */\n      0x02\n        /* \"testing.sol\":1246:1258  var2 = _var2 */\n      dup2\n      swap1\n      sstore\n      pop\n        /* \"testing.sol\":1194:1266  function var2Set(uint _var2) public\r... */\n      pop\n      jump\t// out\n        /* \"testing.sol\":1389:1496  function addition() public view returns(uint){\r... */\n    tag_51:\n        /* \"testing.sol\":1429:1433  uint */\n      0x00\n        /* \"testing.sol\":1445:1453  uint sum */\n      dup1\n        /* \"testing.sol\":1463:1467  var2 */\n      sload(0x02)\n        /* \"testing.sol\":1456:1460  var1 */\n      sload(0x01)\n        /* \"testing.sol\":1456:1467  var1 + var2 */\n      tag_70\n      swap2\n      swap1\n      tag_71\n      jump\t// in\n    tag_70:\n        /* \"testing.sol\":1445:1467  uint sum = var1 + var2 */\n      swap1\n      pop\n        /* \"testing.sol\":1485:1488  sum */\n      dup1\n        /* \"testing.sol\":1478:1488  return sum */\n      swap2\n      pop\n      pop\n        /* \"testing.sol\":1389:1496  function addition() public view returns(uint){\r... */\n      swap1\n      jump\t// out\n        /* \"testing.sol\":1001:1073  function var1Set(uint _var1) public\r... */\n    tag_55:\n        /* \"testing.sol\":1060:1065  _var1 */\n      dup1\n        /* \"testing.sol\":1053:1057  var1 */\n      0x01\n        /* \"testing.sol\":1053:1065  var1 = _var1 */\n      dup2\n      swap1\n      sstore\n      pop\n        /* \"testing.sol\":1001:1073  function var1Set(uint _var1) public\r... */\n      pop\n      jump\t// out\n        /* \"#utility.yul\":7:162   */\n    tag_74:\n        /* \"#utility.yul\":61:66   */\n      0x00\n        /* \"#utility.yul\":99:105   */\n      dup2\n        /* \"#utility.yul\":86:106   */\n      calldataload\n        /* \"#utility.yul\":77:106   */\n      swap1\n      pop\n        /* \"#utility.yul\":115:156   */\n      tag_76\n        /* \"#utility.yul\":150:155   */\n      dup2\n        /* \"#utility.yul\":115:156   */\n      tag_77\n      jump\t// in\n    tag_76:\n        /* \"#utility.yul\":7:162   */\n      swap3\n      swap2\n      pop\n      pop\n      jump\t// out\n        /* \"#utility.yul\":168:307   */\n    tag_78:\n        /* \"#utility.yul\":214:219   */\n      0x00\n        /* \"#utility.yul\":252:258   */\n      dup2\n        /* \"#utility.yul\":239:259   */\n      calldataload\n        /* \"#utility.yul\":230:259   */\n      swap1\n      pop\n        /* \"#utility.yul\":268:301   */\n      tag_80\n        /* \"#utility.yul\":295:300   */\n      dup2\n        /* \"#utility.yul\":268:301   */\n      tag_81\n      jump\t// in\n    tag_80:\n        /* \"#utility.yul\":168:307   */\n      swap3\n      swap2\n      pop\n      pop\n      jump\t// out\n        /* \"#utility.yul\":313:658   */\n    tag_22:\n        /* \"#utility.yul\":380:386   */\n      0x00\n        /* \"#utility.yul\":429:431   */\n      0x20\n        /* \"#utility.yul\":417:426   */\n      dup3\n        /* \"#utility.yul\":408:415   */\n      dup5\n        /* \"#utility.yul\":404:427   */\n      sub\n        /* \"#utility.yul\":400:432   */\n      slt\n        /* \"#utility.yul\":397:516   */\n      iszero\n      tag_83\n      jumpi\n        /* \"#utility.yul\":435:514   */\n      tag_84\n      tag_85\n      jump\t// in\n    tag_84:\n        /* \"#utility.yul\":397:516   */\n    tag_83:\n        /* \"#utility.yul\":555:556   */\n      0x00\n        /* \"#utility.yul\":580:641   */\n      tag_86\n        /* \"#utility.yul\":633:640   */\n      dup5\n        /* \"#utility.yul\":624:630   */\n      dup3\n        /* \"#utility.yul\":613:622   */\n      dup6\n        /* \"#utility.yul\":609:631   */\n      add\n        /* \"#utility.yul\":580:641   */\n      tag_74\n      jump\t// in\n    tag_86:\n        /* \"#utility.yul\":570:641   */\n      swap2\n      pop\n        /* \"#utility.yul\":526:651   */\n      pop\n        /* \"#utility.yul\":313:658   */\n      swap3\n      swap2\n      pop\n      pop\n      jump\t// out\n        /* \"#utility.yul\":664:993   */\n    tag_32:\n        /* \"#utility.yul\":723:729   */\n      0x00\n        /* \"#utility.yul\":772:774   */\n      0x20\n        /* \"#utility.yul\":760:769   */\n      dup3\n        /* \"#utility.yul\":751:758   */\n      dup5\n        /* \"#utility.yul\":747:770   */\n      sub\n        /* \"#utility.yul\":743:775   */\n      slt\n        /* \"#utility.yul\":740:859   */\n      iszero\n      tag_88\n      jumpi\n        /* \"#utility.yul\":778:857   */\n      tag_89\n      tag_85\n      jump\t// in\n    tag_89:\n        /* \"#utility.yul\":740:859   */\n    tag_88:\n        /* \"#utility.yul\":898:899   */\n      0x00\n        /* \"#utility.yul\":923:976   */\n      tag_90\n        /* \"#utility.yul\":968:975   */\n      dup5\n        /* \"#utility.yul\":959:965   */\n      dup3\n        /* \"#utility.yul\":948:957   */\n      dup6\n        /* \"#utility.yul\":944:966   */\n      add\n        /* \"#utility.yul\":923:976   */\n      tag_78\n      jump\t// in\n    tag_90:\n        /* \"#utility.yul\":913:976   */\n      swap2\n      pop\n        /* \"#utility.yul\":869:986   */\n      pop\n        /* \"#utility.yul\":664:993   */\n      swap3\n      swap2\n      pop\n      pop\n      jump\t// out\n        /* \"#utility.yul\":999:1117   */\n    tag_91:\n        /* \"#utility.yul\":1086:1110   */\n      tag_93\n        /* \"#utility.yul\":1104:1109   */\n      dup2\n        /* \"#utility.yul\":1086:1110   */\n      tag_94\n      jump\t// in\n    tag_93:\n        /* \"#utility.yul\":1081:1084   */\n      dup3\n        /* \"#utility.yul\":1074:1111   */\n      mstore\n        /* \"#utility.yul\":999:1117   */\n      pop\n      pop\n      jump\t// out\n        /* \"#utility.yul\":1123:1489   */\n    tag_95:\n        /* \"#utility.yul\":1265:1268   */\n      0x00\n        /* \"#utility.yul\":1286:1353   */\n      tag_97\n        /* \"#utility.yul\":1350:1352   */\n      0x11\n        /* \"#utility.yul\":1345:1348   */\n      dup4\n        /* \"#utility.yul\":1286:1353   */\n      tag_98\n      jump\t// in\n    tag_97:\n        /* \"#utility.yul\":1279:1353   */\n      swap2\n      pop\n        /* \"#utility.yul\":1362:1455   */\n      tag_99\n        /* \"#utility.yul\":1451:1454   */\n      dup3\n        /* \"#utility.yul\":1362:1455   */\n      tag_100\n      jump\t// in\n    tag_99:\n        /* \"#utility.yul\":1480:1482   */\n      0x20\n        /* \"#utility.yul\":1475:1478   */\n      dup3\n        /* \"#utility.yul\":1471:1483   */\n      add\n        /* \"#utility.yul\":1464:1483   */\n      swap1\n      pop\n        /* \"#utility.yul\":1123:1489   */\n      swap2\n      swap1\n      pop\n      jump\t// out\n        /* \"#utility.yul\":1495:1613   */\n    tag_101:\n        /* \"#utility.yul\":1582:1606   */\n      tag_103\n        /* \"#utility.yul\":1600:1605   */\n      dup2\n        /* \"#utility.yul\":1582:1606   */\n      tag_104\n      jump\t// in\n    tag_103:\n        /* \"#utility.yul\":1577:1580   */\n      dup3\n        /* \"#utility.yul\":1570:1607   */\n      mstore\n        /* \"#utility.yul\":1495:1613   */\n      pop\n      pop\n      jump\t// out\n        /* \"#utility.yul\":1619:1841   */\n    tag_37:\n        /* \"#utility.yul\":1712:1716   */\n      0x00\n        /* \"#utility.yul\":1750:1752   */\n      0x20\n        /* \"#utility.yul\":1739:1748   */\n      dup3\n        /* \"#utility.yul\":1735:1753   */\n      add\n        /* \"#utility.yul\":1727:1753   */\n      swap1\n      pop\n        /* \"#utility.yul\":1763:1834   */\n      tag_106\n        /* \"#utility.yul\":1831:1832   */\n      0x00\n        /* \"#utility.yul\":1820:1829   */\n      dup4\n        /* \"#utility.yul\":1816:1833   */\n      add\n        /* \"#utility.yul\":1807:1813   */\n      dup5\n        /* \"#utility.yul\":1763:1834   */\n      tag_91\n      jump\t// in\n    tag_106:\n        /* \"#utility.yul\":1619:1841   */\n      swap3\n      swap2\n      pop\n      pop\n      jump\t// out\n        /* \"#utility.yul\":1847:2266   */\n    tag_59:\n        /* \"#utility.yul\":2013:2017   */\n      0x00\n        /* \"#utility.yul\":2051:2053   */\n      0x20\n        /* \"#utility.yul\":2040:2049   */\n      dup3\n        /* \"#utility.yul\":2036:2054   */\n      add\n        /* \"#utility.yul\":2028:2054   */\n      swap1\n      pop\n        /* \"#utility.yul\":2100:2109   */\n      dup2\n        /* \"#utility.yul\":2094:2098   */\n      dup2\n        /* \"#utility.yul\":2090:2110   */\n      sub\n        /* \"#utility.yul\":2086:2087   */\n      0x00\n        /* \"#utility.yul\":2075:2084   */\n      dup4\n        /* \"#utility.yul\":2071:2088   */\n      add\n        /* \"#utility.yul\":2064:2111   */\n      mstore\n        /* \"#utility.yul\":2128:2259   */\n      tag_108\n        /* \"#utility.yul\":2254:2258   */\n      dup2\n        /* \"#utility.yul\":2128:2259   */\n      tag_95\n      jump\t// in\n    tag_108:\n        /* \"#utility.yul\":2120:2259   */\n      swap1\n      pop\n        /* \"#utility.yul\":1847:2266   */\n      swap2\n      swap1\n      pop\n      jump\t// out\n        /* \"#utility.yul\":2272:2494   */\n    tag_19:\n        /* \"#utility.yul\":2365:2369   */\n      0x00\n        /* \"#utility.yul\":2403:2405   */\n      0x20\n        /* \"#utility.yul\":2392:2401   */\n      dup3\n        /* \"#utility.yul\":2388:2406   */\n      add\n        /* \"#utility.yul\":2380:2406   */\n      swap1\n      pop\n        /* \"#utility.yul\":2416:2487   */\n      tag_110\n        /* \"#utility.yul\":2484:2485   */\n      0x00\n        /* \"#utility.yul\":2473:2482   */\n      dup4\n        /* \"#utility.yul\":2469:2486   */\n      add\n        /* \"#utility.yul\":2460:2466   */\n      dup5\n        /* \"#utility.yul\":2416:2487   */\n      tag_101\n      jump\t// in\n    tag_110:\n        /* \"#utility.yul\":2272:2494   */\n      swap3\n      swap2\n      pop\n      pop\n      jump\t// out\n        /* \"#utility.yul\":2581:2750   */\n    tag_98:\n        /* \"#utility.yul\":2665:2676   */\n      0x00\n        /* \"#utility.yul\":2699:2705   */\n      dup3\n        /* \"#utility.yul\":2694:2697   */\n      dup3\n        /* \"#utility.yul\":2687:2706   */\n      mstore\n        /* \"#utility.yul\":2739:2743   */\n      0x20\n        /* \"#utility.yul\":2734:2737   */\n      dup3\n        /* \"#utility.yul\":2730:2744   */\n      add\n        /* \"#utility.yul\":2715:2744   */\n      swap1\n      pop\n        /* \"#utility.yul\":2581:2750   */\n      swap3\n      swap2\n      pop\n      pop\n      jump\t// out\n        /* \"#utility.yul\":2756:3061   */\n    tag_71:\n        /* \"#utility.yul\":2796:2799   */\n      0x00\n        /* \"#utility.yul\":2815:2835   */\n      tag_115\n        /* \"#utility.yul\":2833:2834   */\n      dup3\n        /* \"#utility.yul\":2815:2835   */\n      tag_104\n      jump\t// in\n    tag_115:\n        /* \"#utility.yul\":2810:2835   */\n      swap2\n      pop\n        /* \"#utility.yul\":2849:2869   */\n      tag_116\n        /* \"#utility.yul\":2867:2868   */\n      dup4\n        /* \"#utility.yul\":2849:2869   */\n      tag_104\n      jump\t// in\n    tag_116:\n        /* \"#utility.yul\":2844:2869   */\n      swap3\n      pop\n        /* \"#utility.yul\":3003:3004   */\n      dup3\n        /* \"#utility.yul\":2935:3001   */\n      0xffffffffffffffffffffffffffffffffffffffffffffffffffffffffffffffff\n        /* \"#utility.yul\":2931:3005   */\n      sub\n        /* \"#utility.yul\":2928:2929   */\n      dup3\n        /* \"#utility.yul\":2925:3006   */\n      gt\n        /* \"#utility.yul\":2922:3029   */\n      iszero\n      tag_117\n      jumpi\n        /* \"#utility.yul\":3009:3027   */\n      tag_118\n      tag_119\n      jump\t// in\n    tag_118:\n        /* \"#utility.yul\":2922:3029   */\n    tag_117:\n        /* \"#utility.yul\":3053:3054   */\n      dup3\n        /* \"#utility.yul\":3050:3051   */\n      dup3\n        /* \"#utility.yul\":3046:3055   */\n      add\n        /* \"#utility.yul\":3039:3055   */\n      swap1\n      pop\n        /* \"#utility.yul\":2756:3061   */\n      swap3\n      swap2\n      pop\n      pop\n      jump\t// out\n        /* \"#utility.yul\":3067:3258   */\n    tag_64:\n        /* \"#utility.yul\":3107:3111   */\n      0x00\n        /* \"#utility.yul\":3127:3147   */\n      tag_121\n        /* \"#utility.yul\":3145:3146   */\n      dup3\n        /* \"#utility.yul\":3127:3147   */\n      tag_104\n      jump\t// in\n    tag_121:\n        /* \"#utility.yul\":3122:3147   */\n      swap2\n      pop\n        /* \"#utility.yul\":3161:3181   */\n      tag_122\n        /* \"#utility.yul\":3179:3180   */\n      dup4\n        /* \"#utility.yul\":3161:3181   */\n      tag_104\n      jump\t// in\n    tag_122:\n        /* \"#utility.yul\":3156:3181   */\n      swap3\n      pop\n        /* \"#utility.yul\":3200:3201   */\n      dup3\n        /* \"#utility.yul\":3197:3198   */\n      dup3\n        /* \"#utility.yul\":3194:3202   */\n      lt\n        /* \"#utility.yul\":3191:3225   */\n      iszero\n      tag_123\n      jumpi\n        /* \"#utility.yul\":3205:3223   */\n      tag_124\n      tag_119\n      jump\t// in\n    tag_124:\n        /* \"#utility.yul\":3191:3225   */\n    tag_123:\n        /* \"#utility.yul\":3250:3251   */\n      dup3\n        /* \"#utility.yul\":3247:3248   */\n      dup3\n        /* \"#utility.yul\":3243:3252   */\n      sub\n        /* \"#utility.yul\":3235:3252   */\n      swap1\n      pop\n        /* \"#utility.yul\":3067:3258   */\n      swap3\n      swap2\n      pop\n      pop\n      jump\t// out\n        /* \"#utility.yul\":3264:3360   */\n    tag_94:\n        /* \"#utility.yul\":3301:3308   */\n      0x00\n        /* \"#utility.yul\":3330:3354   */\n      tag_126\n        /* \"#utility.yul\":3348:3353   */\n      dup3\n        /* \"#utility.yul\":3330:3354   */\n      tag_127\n      jump\t// in\n    tag_126:\n        /* \"#utility.yul\":3319:3354   */\n      swap1\n      pop\n        /* \"#utility.yul\":3264:3360   */\n      swap2\n      swap1\n      pop\n      jump\t// out\n        /* \"#utility.yul\":3366:3470   */\n    tag_128:\n        /* \"#utility.yul\":3411:3418   */\n      0x00\n        /* \"#utility.yul\":3440:3464   */\n      tag_130\n        /* \"#utility.yul\":3458:3463   */\n      dup3\n        /* \"#utility.yul\":3440:3464   */\n      tag_127\n      jump\t// in\n    tag_130:\n        /* \"#utility.yul\":3429:3464   */\n      swap1\n      pop\n        /* \"#utility.yul\":3366:3470   */\n      swap2\n      swap1\n      pop\n      jump\t// out\n        /* \"#utility.yul\":3476:3602   */\n    tag_127:\n        /* \"#utility.yul\":3513:3520   */\n      0x00\n        /* \"#utility.yul\":3553:3595   */\n      0xffffffffffffffffffffffffffffffffffffffff\n        /* \"#utility.yul\":3546:3551   */\n      dup3\n        /* \"#utility.yul\":3542:3596   */\n      and\n        /* \"#utility.yul\":3531:3596   */\n      swap1\n      pop\n        /* \"#utility.yul\":3476:3602   */\n      swap2\n      swap1\n      pop\n      jump\t// out\n        /* \"#utility.yul\":3608:3685   */\n    tag_104:\n        /* \"#utility.yul\":3645:3652   */\n      0x00\n        /* \"#utility.yul\":3674:3679   */\n      dup2\n        /* \"#utility.yul\":3663:3679   */\n      swap1\n      pop\n        /* \"#utility.yul\":3608:3685   */\n      swap2\n      swap1\n      pop\n      jump\t// out\n        /* \"#utility.yul\":3691:3871   */\n    tag_119:\n        /* \"#utility.yul\":3739:3816   */\n      0x4e487b7100000000000000000000000000000000000000000000000000000000\n        /* \"#utility.yul\":3736:3737   */\n      0x00\n        /* \"#utility.yul\":3729:3817   */\n      mstore\n        /* \"#utility.yul\":3836:3840   */\n      0x11\n        /* \"#utility.yul\":3833:3834   */\n      0x04\n        /* \"#utility.yul\":3826:3841   */\n      mstore\n        /* \"#utility.yul\":3860:3864   */\n      0x24\n        /* \"#utility.yul\":3857:3858   */\n      0x00\n        /* \"#utility.yul\":3850:3865   */\n      revert\n        /* \"#utility.yul\":4000:4117   */\n    tag_85:\n        /* \"#utility.yul\":4109:4110   */\n      0x00\n        /* \"#utility.yul\":4106:4107   */\n      dup1\n        /* \"#utility.yul\":4099:4111   */\n      revert\n        /* \"#utility.yul\":4123:4290   */\n    tag_100:\n        /* \"#utility.yul\":4263:4282   */\n      0x596f7520617265206e6f74204f574e4552000000000000000000000000000000\n        /* \"#utility.yul\":4259:4260   */\n      0x00\n        /* \"#utility.yul\":4251:4257   */\n      dup3\n        /* \"#utility.yul\":4247:4261   */\n      add\n        /* \"#utility.yul\":4240:4283   */\n      mstore\n        /* \"#utility.yul\":4123:4290   */\n      pop\n      jump\t// out\n        /* \"#utility.yul\":4296:4434   */\n    tag_77:\n        /* \"#utility.yul\":4377:4409   */\n      tag_139\n        /* \"#utility.yul\":4403:4408   */\n      dup2\n        /* \"#utility.yul\":4377:4409   */\n      tag_128\n      jump\t// in\n    tag_139:\n        /* \"#utility.yul\":4370:4375   */\n      dup2\n        /* \"#utility.yul\":4367:4410   */\n      eq\n        /* \"#utility.yul\":4357:4428   */\n      tag_140\n      jumpi\n        /* \"#utility.yul\":4424:4425   */\n      0x00\n        /* \"#utility.yul\":4421:4422   */\n      dup1\n        /* \"#utility.yul\":4414:4426   */\n      revert\n        /* \"#utility.yul\":4357:4428   */\n    tag_140:\n        /* \"#utility.yul\":4296:4434   */\n      pop\n      jump\t// out\n        /* \"#utility.yul\":4440:4562   */\n    tag_81:\n        /* \"#utility.yul\":4513:4537   */\n      tag_142\n        /* \"#utility.yul\":4531:4536   */\n      dup2\n        /* \"#utility.yul\":4513:4537   */\n      tag_104\n      jump\t// in\n    tag_142:\n        /* \"#utility.yul\":4506:4511   */\n      dup2\n        /* \"#utility.yul\":4503:4538   */\n      eq\n        /* \"#utility.yul\":4493:4556   */\n      tag_143\n      jumpi\n        /* \"#utility.yul\":4552:4553   */\n      0x00\n        /* \"#utility.yul\":4549:4550   */\n      dup1\n        /* \"#utility.yul\":4542:4554   */\n      revert\n        /* \"#utility.yul\":4493:4556   */\n    tag_143:\n        /* \"#utility.yul\":4440:4562   */\n      pop\n      jump\t// out\n\n    auxdata: 0xa26469706673582212204b5a0b781bc13c2325dc1a4c120516a047d53e6300b431ae82121afa958d89c964736f6c63430008070033\n}\n",
				"bytecode": {
					"linkReferences": {},
					"object": "608060405234801561001057600080fd5b50336000806101000a81548173ffffffffffffffffffffffffffffffffffffffff021916908373ffffffffffffffffffffffffffffffffffffffff16021790555061065b806100606000396000f3fe608060405234801561001057600080fd5b50600436106100b45760003560e01c80639ce147d1116100715780639ce147d114610169578063ded9468814610187578063e3ec0251146101a5578063ebc531ff146101c3578063ec597128146101df578063fb3552fc146101fd576100b4565b80632986e054146100b957806339df43ff146100d7578063507aff57146100f357806367e919b6146101115780637e9bf9ff1461012f578063893d20e81461014b575b600080fd5b6100c1610219565b6040516100ce9190610496565b60405180910390f35b6100f160048036038101906100ec91906103c0565b61021f565b005b6100fb6102c6565b6040516101089190610496565b60405180910390f35b6101196102cc565b6040516101269190610496565b60405180910390f35b610149600480360381019061014491906103ed565b6102d2565b005b6101536102dc565b604051610160919061045b565b60405180910390f35b610171610305565b60405161017e9190610496565b60405180910390f35b61018f610321565b60405161019c919061045b565b60405180910390f35b6101ad61034a565b6040516101ba9190610496565b60405180910390f35b6101dd60048036038101906101d891906103ed565b610366565b005b6101e7610370565b6040516101f49190610496565b60405180910390f35b610217600480360381019061021291906103ed565b61038c565b005b60035481565b60008054906101000a900473ffffffffffffffffffffffffffffffffffffffff1673ffffffffffffffffffffffffffffffffffffffff163373ffffffffffffffffffffffffffffffffffffffff16146102ad576040517f08c379a00000000000000000000000000000000000000000000000000000000081526004016102a490610476565b60405180910390fd5b8073ffffffffffffffffffffffffffffffffffffffff16ff5b60025481565b60015481565b8060038190555050565b60008060009054906101000a900473ffffffffffffffffffffffffffffffffffffffff16905090565b6000806002546001546103189190610518565b90508091505090565b60008060009054906101000a900473ffffffffffffffffffffffffffffffffffffffff16905090565b60008060025460015461035d9190610518565b90508091505090565b8060028190555050565b60008060025460015461038391906104c2565b90508091505090565b8060018190555050565b6000813590506103a5816105f7565b92915050565b6000813590506103ba8161060e565b92915050565b6000602082840312156103d6576103d56105c9565b5b60006103e484828501610396565b91505092915050565b600060208284031215610403576104026105c9565b5b6000610411848285016103ab565b91505092915050565b6104238161054c565b82525050565b60006104366011836104b1565b9150610441826105ce565b602082019050919050565b61045581610590565b82525050565b6000602082019050610470600083018461041a565b92915050565b6000602082019050818103600083015261048f81610429565b9050919050565b60006020820190506104ab600083018461044c565b92915050565b600082825260208201905092915050565b60006104cd82610590565b91506104d883610590565b9250827fffffffffffffffffffffffffffffffffffffffffffffffffffffffffffffffff0382111561050d5761050c61059a565b5b828201905092915050565b600061052382610590565b915061052e83610590565b9250828210156105415761054061059a565b5b828203905092915050565b600061055782610570565b9050919050565b600061056982610570565b9050919050565b600073ffffffffffffffffffffffffffffffffffffffff82169050919050565b6000819050919050565b7f4e487b7100000000000000000000000000000000000000000000000000000000600052601160045260246000fd5b600080fd5b7f596f7520617265206e6f74204f574e4552000000000000000000000000000000600082015250565b6106008161055e565b811461060b57600080fd5b50565b61061781610590565b811461062257600080fd5b5056fea26469706673582212204b5a0b781bc13c2325dc1a4c120516a047d53e6300b431ae82121afa958d89c964736f6c63430008070033",
					"opcodes": "PUSH1 0x80 PUSH1 0x40 MSTORE CALLVALUE DUP1 ISZERO PUSH2 0x10 JUMPI PUSH1 0x0 DUP1 REVERT JUMPDEST POP CALLER PUSH1 0x0 DUP1 PUSH2 0x100 EXP DUP2 SLOAD DUP2 PUSH20 0xFFFFFFFFFFFFFFFFFFFFFFFFFFFFFFFFFFFFFFFF MUL NOT AND SWAP1 DUP4 PUSH20 0xFFFFFFFFFFFFFFFFFFFFFFFFFFFFFFFFFFFFFFFF AND MUL OR SWAP1 SSTORE POP PUSH2 0x65B DUP1 PUSH2 0x60 PUSH1 0x0 CODECOPY PUSH1 0x0 RETURN INVALID PUSH1 0x80 PUSH1 0x40 MSTORE CALLVALUE DUP1 ISZERO PUSH2 0x10 JUMPI PUSH1 0x0 DUP1 REVERT JUMPDEST POP PUSH1 0x4 CALLDATASIZE LT PUSH2 0xB4 JUMPI PUSH1 0x0 CALLDATALOAD PUSH1 0xE0 SHR DUP1 PUSH4 0x9CE147D1 GT PUSH2 0x71 JUMPI DUP1 PUSH4 0x9CE147D1 EQ PUSH2 0x169 JUMPI DUP1 PUSH4 0xDED94688 EQ PUSH2 0x187 JUMPI DUP1 PUSH4 0xE3EC0251 EQ PUSH2 0x1A5 JUMPI DUP1 PUSH4 0xEBC531FF EQ PUSH2 0x1C3 JUMPI DUP1 PUSH4 0xEC597128 EQ PUSH2 0x1DF JUMPI DUP1 PUSH4 0xFB3552FC EQ PUSH2 0x1FD JUMPI PUSH2 0xB4 JUMP JUMPDEST DUP1 PUSH4 0x2986E054 EQ PUSH2 0xB9 JUMPI DUP1 PUSH4 0x39DF43FF EQ PUSH2 0xD7 JUMPI DUP1 PUSH4 0x507AFF57 EQ PUSH2 0xF3 JUMPI DUP1 PUSH4 0x67E919B6 EQ PUSH2 0x111 JUMPI DUP1 PUSH4 0x7E9BF9FF EQ PUSH2 0x12F JUMPI DUP1 PUSH4 0x893D20E8 EQ PUSH2 0x14B JUMPI JUMPDEST PUSH1 0x0 DUP1 REVERT JUMPDEST PUSH2 0xC1 PUSH2 0x219 JUMP JUMPDEST PUSH1 0x40 MLOAD PUSH2 0xCE SWAP2 SWAP1 PUSH2 0x496 JUMP JUMPDEST PUSH1 0x40 MLOAD DUP1 SWAP2 SUB SWAP1 RETURN JUMPDEST PUSH2 0xF1 PUSH1 0x4 DUP1 CALLDATASIZE SUB DUP2 ADD SWAP1 PUSH2 0xEC SWAP2 SWAP1 PUSH2 0x3C0 JUMP JUMPDEST PUSH2 0x21F JUMP JUMPDEST STOP JUMPDEST PUSH2 0xFB PUSH2 0x2C6 JUMP JUMPDEST PUSH1 0x40 MLOAD PUSH2 0x108 SWAP2 SWAP1 PUSH2 0x496 JUMP JUMPDEST PUSH1 0x40 MLOAD DUP1 SWAP2 SUB SWAP1 RETURN JUMPDEST PUSH2 0x119 PUSH2 0x2CC JUMP JUMPDEST PUSH1 0x40 MLOAD PUSH2 0x126 SWAP2 SWAP1 PUSH2 0x496 JUMP JUMPDEST PUSH1 0x40 MLOAD DUP1 SWAP2 SUB SWAP1 RETURN JUMPDEST PUSH2 0x149 PUSH1 0x4 DUP1 CALLDATASIZE SUB DUP2 ADD SWAP1 PUSH2 0x144 SWAP2 SWAP1 PUSH2 0x3ED JUMP JUMPDEST PUSH2 0x2D2 JUMP JUMPDEST STOP JUMPDEST PUSH2 0x153 PUSH2 0x2DC JUMP JUMPDEST PUSH1 0x40 MLOAD PUSH2 0x160 SWAP2 SWAP1 PUSH2 0x45B JUMP JUMPDEST PUSH1 0x40 MLOAD DUP1 SWAP2 SUB SWAP1 RETURN JUMPDEST PUSH2 0x171 PUSH2 0x305 JUMP JUMPDEST PUSH1 0x40 MLOAD PUSH2 0x17E SWAP2 SWAP1 PUSH2 0x496 JUMP JUMPDEST PUSH1 0x40 MLOAD DUP1 SWAP2 SUB SWAP1 RETURN JUMPDEST PUSH2 0x18F PUSH2 0x321 JUMP JUMPDEST PUSH1 0x40 MLOAD PUSH2 0x19C SWAP2 SWAP1 PUSH2 0x45B JUMP JUMPDEST PUSH1 0x40 MLOAD DUP1 SWAP2 SUB SWAP1 RETURN JUMPDEST PUSH2 0x1AD PUSH2 0x34A JUMP JUMPDEST PUSH1 0x40 MLOAD PUSH2 0x1BA SWAP2 SWAP1 PUSH2 0x496 JUMP JUMPDEST PUSH1 0x40 MLOAD DUP1 SWAP2 SUB SWAP1 RETURN JUMPDEST PUSH2 0x1DD PUSH1 0x4 DUP1 CALLDATASIZE SUB DUP2 ADD SWAP1 PUSH2 0x1D8 SWAP2 SWAP1 PUSH2 0x3ED JUMP JUMPDEST PUSH2 0x366 JUMP JUMPDEST STOP JUMPDEST PUSH2 0x1E7 PUSH2 0x370 JUMP JUMPDEST PUSH1 0x40 MLOAD PUSH2 0x1F4 SWAP2 SWAP1 PUSH2 0x496 JUMP JUMPDEST PUSH1 0x40 MLOAD DUP1 SWAP2 SUB SWAP1 RETURN JUMPDEST PUSH2 0x217 PUSH1 0x4 DUP1 CALLDATASIZE SUB DUP2 ADD SWAP1 PUSH2 0x212 SWAP2 SWAP1 PUSH2 0x3ED JUMP JUMPDEST PUSH2 0x38C JUMP JUMPDEST STOP JUMPDEST PUSH1 0x3 SLOAD DUP2 JUMP JUMPDEST PUSH1 0x0 DUP1 SLOAD SWAP1 PUSH2 0x100 EXP SWAP1 DIV PUSH20 0xFFFFFFFFFFFFFFFFFFFFFFFFFFFFFFFFFFFFFFFF AND PUSH20 0xFFFFFFFFFFFFFFFFFFFFFFFFFFFFFFFFFFFFFFFF AND CALLER PUSH20 0xFFFFFFFFFFFFFFFFFFFFFFFFFFFFFFFFFFFFFFFF AND EQ PUSH2 0x2AD JUMPI PUSH1 0x40 MLOAD PUSH32 0x8C379A000000000000000000000000000000000000000000000000000000000 DUP2 MSTORE PUSH1 0x4 ADD PUSH2 0x2A4 SWAP1 PUSH2 0x476 JUMP JUMPDEST PUSH1 0x40 MLOAD DUP1 SWAP2 SUB SWAP1 REVERT JUMPDEST DUP1 PUSH20 0xFFFFFFFFFFFFFFFFFFFFFFFFFFFFFFFFFFFFFFFF AND SELFDESTRUCT JUMPDEST PUSH1 0x2 SLOAD DUP2 JUMP JUMPDEST PUSH1 0x1 SLOAD DUP2 JUMP JUMPDEST DUP1 PUSH1 0x3 DUP2 SWAP1 SSTORE POP POP JUMP JUMPDEST PUSH1 0x0 DUP1 PUSH1 0x0 SWAP1 SLOAD SWAP1 PUSH2 0x100 EXP SWAP1 DIV PUSH20 0xFFFFFFFFFFFFFFFFFFFFFFFFFFFFFFFFFFFFFFFF AND SWAP1 POP SWAP1 JUMP JUMPDEST PUSH1 0x0 DUP1 PUSH1 0x2 SLOAD PUSH1 0x1 SLOAD PUSH2 0x318 SWAP2 SWAP1 PUSH2 0x518 JUMP JUMPDEST SWAP1 POP DUP1 SWAP2 POP POP SWAP1 JUMP JUMPDEST PUSH1 0x0 DUP1 PUSH1 0x0 SWAP1 SLOAD SWAP1 PUSH2 0x100 EXP SWAP1 DIV PUSH20 0xFFFFFFFFFFFFFFFFFFFFFFFFFFFFFFFFFFFFFFFF AND SWAP1 POP SWAP1 JUMP JUMPDEST PUSH1 0x0 DUP1 PUSH1 0x2 SLOAD PUSH1 0x1 SLOAD PUSH2 0x35D SWAP2 SWAP1 PUSH2 0x518 JUMP JUMPDEST SWAP1 POP DUP1 SWAP2 POP POP SWAP1 JUMP JUMPDEST DUP1 PUSH1 0x2 DUP2 SWAP1 SSTORE POP POP JUMP JUMPDEST PUSH1 0x0 DUP1 PUSH1 0x2 SLOAD PUSH1 0x1 SLOAD PUSH2 0x383 SWAP2 SWAP1 PUSH2 0x4C2 JUMP JUMPDEST SWAP1 POP DUP1 SWAP2 POP POP SWAP1 JUMP JUMPDEST DUP1 PUSH1 0x1 DUP2 SWAP1 SSTORE POP POP JUMP JUMPDEST PUSH1 0x0 DUP2 CALLDATALOAD SWAP1 POP PUSH2 0x3A5 DUP2 PUSH2 0x5F7 JUMP JUMPDEST SWAP3 SWAP2 POP POP JUMP JUMPDEST PUSH1 0x0 DUP2 CALLDATALOAD SWAP1 POP PUSH2 0x3BA DUP2 PUSH2 0x60E JUMP JUMPDEST SWAP3 SWAP2 POP POP JUMP JUMPDEST PUSH1 0x0 PUSH1 0x20 DUP3 DUP5 SUB SLT ISZERO PUSH2 0x3D6 JUMPI PUSH2 0x3D5 PUSH2 0x5C9 JUMP JUMPDEST JUMPDEST PUSH1 0x0 PUSH2 0x3E4 DUP5 DUP3 DUP6 ADD PUSH2 0x396 JUMP JUMPDEST SWAP2 POP POP SWAP3 SWAP2 POP POP JUMP JUMPDEST PUSH1 0x0 PUSH1 0x20 DUP3 DUP5 SUB SLT ISZERO PUSH2 0x403 JUMPI PUSH2 0x402 PUSH2 0x5C9 JUMP JUMPDEST JUMPDEST PUSH1 0x0 PUSH2 0x411 DUP5 DUP3 DUP6 ADD PUSH2 0x3AB JUMP JUMPDEST SWAP2 POP POP SWAP3 SWAP2 POP POP JUMP JUMPDEST PUSH2 0x423 DUP2 PUSH2 0x54C JUMP JUMPDEST DUP3 MSTORE POP POP JUMP JUMPDEST PUSH1 0x0 PUSH2 0x436 PUSH1 0x11 DUP4 PUSH2 0x4B1 JUMP JUMPDEST SWAP2 POP PUSH2 0x441 DUP3 PUSH2 0x5CE JUMP JUMPDEST PUSH1 0x20 DUP3 ADD SWAP1 POP SWAP2 SWAP1 POP JUMP JUMPDEST PUSH2 0x455 DUP2 PUSH2 0x590 JUMP JUMPDEST DUP3 MSTORE POP POP JUMP JUMPDEST PUSH1 0x0 PUSH1 0x20 DUP3 ADD SWAP1 POP PUSH2 0x470 PUSH1 0x0 DUP4 ADD DUP5 PUSH2 0x41A JUMP JUMPDEST SWAP3 SWAP2 POP POP JUMP JUMPDEST PUSH1 0x0 PUSH1 0x20 DUP3 ADD SWAP1 POP DUP2 DUP2 SUB PUSH1 0x0 DUP4 ADD MSTORE PUSH2 0x48F DUP2 PUSH2 0x429 JUMP JUMPDEST SWAP1 POP SWAP2 SWAP1 POP JUMP JUMPDEST PUSH1 0x0 PUSH1 0x20 DUP3 ADD SWAP1 POP PUSH2 0x4AB PUSH1 0x0 DUP4 ADD DUP5 PUSH2 0x44C JUMP JUMPDEST SWAP3 SWAP2 POP POP JUMP JUMPDEST PUSH1 0x0 DUP3 DUP3 MSTORE PUSH1 0x20 DUP3 ADD SWAP1 POP SWAP3 SWAP2 POP POP JUMP JUMPDEST PUSH1 0x0 PUSH2 0x4CD DUP3 PUSH2 0x590 JUMP JUMPDEST SWAP2 POP PUSH2 0x4D8 DUP4 PUSH2 0x590 JUMP JUMPDEST SWAP3 POP DUP3 PUSH32 0xFFFFFFFFFFFFFFFFFFFFFFFFFFFFFFFFFFFFFFFFFFFFFFFFFFFFFFFFFFFFFFFF SUB DUP3 GT ISZERO PUSH2 0x50D JUMPI PUSH2 0x50C PUSH2 0x59A JUMP JUMPDEST JUMPDEST DUP3 DUP3 ADD SWAP1 POP SWAP3 SWAP2 POP POP JUMP JUMPDEST PUSH1 0x0 PUSH2 0x523 DUP3 PUSH2 0x590 JUMP JUMPDEST SWAP2 POP PUSH2 0x52E DUP4 PUSH2 0x590 JUMP JUMPDEST SWAP3 POP DUP3 DUP3 LT ISZERO PUSH2 0x541 JUMPI PUSH2 0x540 PUSH2 0x59A JUMP JUMPDEST JUMPDEST DUP3 DUP3 SUB SWAP1 POP SWAP3 SWAP2 POP POP JUMP JUMPDEST PUSH1 0x0 PUSH2 0x557 DUP3 PUSH2 0x570 JUMP JUMPDEST SWAP1 POP SWAP2 SWAP1 POP JUMP JUMPDEST PUSH1 0x0 PUSH2 0x569 DUP3 PUSH2 0x570 JUMP JUMPDEST SWAP1 POP SWAP2 SWAP1 POP JUMP JUMPDEST PUSH1 0x0 PUSH20 0xFFFFFFFFFFFFFFFFFFFFFFFFFFFFFFFFFFFFFFFF DUP3 AND SWAP1 POP SWAP2 SWAP1 POP JUMP JUMPDEST PUSH1 0x0 DUP2 SWAP1 POP SWAP2 SWAP1 POP JUMP JUMPDEST PUSH32 0x4E487B7100000000000000000000000000000000000000000000000000000000 PUSH1 0x0 MSTORE PUSH1 0x11 PUSH1 0x4 MSTORE PUSH1 0x24 PUSH1 0x0 REVERT JUMPDEST PUSH1 0x0 DUP1 REVERT JUMPDEST PUSH32 0x596F7520617265206E6F74204F574E4552000000000000000000000000000000 PUSH1 0x0 DUP3 ADD MSTORE POP JUMP JUMPDEST PUSH2 0x600 DUP2 PUSH2 0x55E JUMP JUMPDEST DUP2 EQ PUSH2 0x60B JUMPI PUSH1 0x0 DUP1 REVERT JUMPDEST POP JUMP JUMPDEST PUSH2 0x617 DUP2 PUSH2 0x590 JUMP JUMPDEST DUP2 EQ PUSH2 0x622 JUMPI PUSH1 0x0 DUP1 REVERT JUMPDEST POP JUMP INVALID LOG2 PUSH5 0x6970667358 0x22 SLT KECCAK256 0x4B GAS SIGNEXTEND PUSH25 0x1BC13C2325DC1A4C120516A047D53E6300B431AE82121AFA95 DUP14 DUP10 0xC9 PUSH5 0x736F6C6343 STOP ADDMOD SMOD STOP CALLER "
				},
				"gasEstimates": {
					"creation": {
						"codeDepositCost": "325400",
						"executionCost": "24628",
						"totalCost": "350028"
					},
					"external": {
						"addition()": "infinite",
						"destroySmartContract(address)": "30243",
						"getOwner()": "2633",
						"mod()": "2430",
						"modSet(uint256)": "22609",
						"showOwner()": "2544",
						"subtra()": "infinite",
						"subtraction()": "infinite",
						"var1()": "2496",
						"var1Set(uint256)": "22630",
						"var2()": "2474",
						"var2Set(uint256)": "22586"
					}
				},
				"methodIdentifiers": {
					"addition()": "ec597128",
					"destroySmartContract(address)": "39df43ff",
					"getOwner()": "893d20e8",
					"mod()": "2986e054",
					"modSet(uint256)": "7e9bf9ff",
					"showOwner()": "ded94688",
					"subtra()": "9ce147d1",
					"subtraction()": "e3ec0251",
					"var1()": "67e919b6",
					"var1Set(uint256)": "fb3552fc",
					"var2()": "507aff57",
					"var2Set(uint256)": "ebc531ff"
				}
			},
			"storageLayout": {
				"storage": [
					{
						"astId": 3,
						"contract": "testing.sol:StartStopUpdateExample",
						"label": "owner",
						"offset": 0,
						"slot": "0",
						"type": "t_address"
					},
					{
						"astId": 5,
						"contract": "testing.sol:StartStopUpdateExample",
						"label": "var1",
						"offset": 0,
						"slot": "1",
						"type": "t_uint256"
					},
					{
						"astId": 7,
						"contract": "testing.sol:StartStopUpdateExample",
						"label": "var2",
						"offset": 0,
						"slot": "2",
						"type": "t_uint256"
					},
					{
						"astId": 9,
						"contract": "testing.sol:StartStopUpdateExample",
						"label": "mod",
						"offset": 0,
						"slot": "3",
						"type": "t_uint256"
					}
				],
				"types": {
					"t_address": {
						"encoding": "inplace",
						"label": "address",
						"numberOfBytes": "20"
					},
					"t_uint256": {
						"encoding": "inplace",
						"label": "uint256",
						"numberOfBytes": "32"
					}
				}
			},
			"userdoc": {
				"kind": "user",
				"methods": {},
				"version": 1
			}
		}
	}
}