{
	"testing.sol": {
		"StartStopUpdateExample": {
			"abi": [
				{
					"inputs": [],
					"stateMutability": "nonpayable",
					"type": "constructor"
				},
				{
					"inputs": [],
					"name": "addition",
					"outputs": [
						{
							"internalType": "uint256",
							"name": "",
							"type": "uint256"
						}
					],
					"stateMutability": "view",
					"type": "function"
				},
				{
					"inputs": [
						{
							"internalType": "address payable",
							"name": "_to",
							"type": "address"
						}
					],
					"name": "destroySmartContract",
					"outputs": [],
					"stateMutability": "nonpayable",
					"type": "function"
				},
				{
					"inputs": [],
					"name": "getOwner",
					"outputs": [
						{
							"internalType": "address",
							"name": "",
							"type": "address"
						}
					],
					"stateMutability": "view",
					"type": "function"
				},
				{
					"inputs": [],
					"name": "modulo",
					"outputs": [
						{
							"internalType": "uint256",
							"name": "",
							"type": "uint256"
						}
					],
					"stateMutability": "view",
					"type": "function"
				},
				{
					"inputs": [],
					"name": "showOwner",
					"outputs": [
						{
							"internalType": "address",
							"name": "",
							"type": "address"
						}
					],
					"stateMutability": "view",
					"type": "function"
				},
				{
					"inputs": [],
					"name": "subtraction",
					"outputs": [
						{
							"internalType": "uint256",
							"name": "",
							"type": "uint256"
						}
					],
					"stateMutability": "view",
					"type": "function"
				},
				{
					"inputs": [],
					"name": "var1",
					"outputs": [
						{
							"internalType": "uint256",
							"name": "",
							"type": "uint256"
						}
					],
					"stateMutability": "view",
					"type": "function"
				},
				{
					"inputs": [
						{
							"internalType": "uint256",
							"name": "x",
							"type": "uint256"
						}
					],
					"name": "var1Set",
					"outputs": [],
					"stateMutability": "nonpayable",
					"type": "function"
				},
				{
					"inputs": [],
					"name": "var2",
					"outputs": [
						{
							"internalType": "uint256",
							"name": "",
							"type": "uint256"
						}
					],
					"stateMutability": "view",
					"type": "function"
				},
				{
					"inputs": [
						{
							"internalType": "uint256",
							"name": "y",
							"type": "uint256"
						}
					],
					"name": "var2Set",
					"outputs": [],
					"stateMutability": "nonpayable",
					"type": "function"
				}
			],
			"devdoc": {
				"kind": "dev",
				"methods": {},
				"version": 1
			},
			"evm": {
				"assembly": "    /* \"testing.sol\":70:1997  contract StartStopUpdateExample {\r... */\n  mstore(0x40, 0x80)\n    /* \"testing.sol\":366:569  constructor() public {\r... */\n  callvalue\n  dup1\n  iszero\n  tag_1\n  jumpi\n  0x00\n  dup1\n  revert\ntag_1:\n  pop\n    /* \"testing.sol\":551:561  msg.sender */\n  caller\n    /* \"testing.sol\":543:548  owner */\n  0x00\n  dup1\n    /* \"testing.sol\":543:561  owner = msg.sender */\n  0x0100\n  exp\n  dup2\n  sload\n  dup2\n  0xffffffffffffffffffffffffffffffffffffffff\n  mul\n  not\n  and\n  swap1\n  dup4\n  0xffffffffffffffffffffffffffffffffffffffff\n  and\n  mul\n  or\n  swap1\n  sstore\n  pop\n    /* \"testing.sol\":70:1997  contract StartStopUpdateExample {\r... */\n  dataSize(sub_0)\n  dup1\n  dataOffset(sub_0)\n  0x00\n  codecopy\n  0x00\n  return\nstop\n\nsub_0: assembly {\n        /* \"testing.sol\":70:1997  contract StartStopUpdateExample {\r... */\n      mstore(0x40, 0x80)\n      callvalue\n      dup1\n      iszero\n      tag_1\n      jumpi\n      0x00\n      dup1\n      revert\n    tag_1:\n      pop\n      jumpi(tag_2, lt(calldatasize, 0x04))\n      shr(0xe0, calldataload(0x00))\n      dup1\n      0xded94688\n      gt\n      tag_13\n      jumpi\n      dup1\n      0xded94688\n      eq\n      tag_8\n      jumpi\n      dup1\n      0xe3ec0251\n      eq\n      tag_9\n      jumpi\n      dup1\n      0xebc531ff\n      eq\n      tag_10\n      jumpi\n      dup1\n      0xec597128\n      eq\n      tag_11\n      jumpi\n      dup1\n      0xfb3552fc\n      eq\n      tag_12\n      jumpi\n      jump(tag_2)\n    tag_13:\n      dup1\n      0x29745262\n      eq\n      tag_3\n      jumpi\n      dup1\n      0x39df43ff\n      eq\n      tag_4\n      jumpi\n      dup1\n      0x507aff57\n      eq\n      tag_5\n      jumpi\n      dup1\n      0x67e919b6\n      eq\n      tag_6\n      jumpi\n      dup1\n      0x893d20e8\n      eq\n      tag_7\n      jumpi\n    tag_2:\n      0x00\n      dup1\n      revert\n        /* \"testing.sol\":1625:1732  function modulo() public view returns(uint){\r... */\n    tag_3:\n      tag_14\n      tag_15\n      jump\t// in\n    tag_14:\n      mload(0x40)\n      tag_16\n      swap2\n      swap1\n      tag_17\n      jump\t// in\n    tag_16:\n      mload(0x40)\n      dup1\n      swap2\n      sub\n      swap1\n      return\n        /* \"testing.sol\":1833:1988  function destroySmartContract (address payable _to) public {\r... */\n    tag_4:\n      tag_18\n      0x04\n      dup1\n      calldatasize\n      sub\n      dup2\n      add\n      swap1\n      tag_19\n      swap2\n      swap1\n      tag_20\n      jump\t// in\n    tag_19:\n      tag_21\n      jump\t// in\n    tag_18:\n      stop\n        /* \"testing.sol\":333:352  uint256 public var2 */\n    tag_5:\n      tag_22\n      tag_23\n      jump\t// in\n    tag_22:\n      mload(0x40)\n      tag_24\n      swap2\n      swap1\n      tag_17\n      jump\t// in\n    tag_24:\n      mload(0x40)\n      dup1\n      swap2\n      sub\n      swap1\n      return\n        /* \"testing.sol\":307:326  uint256 public var1 */\n    tag_6:\n      tag_25\n      tag_26\n      jump\t// in\n    tag_25:\n      mload(0x40)\n      tag_27\n      swap2\n      swap1\n      tag_17\n      jump\t// in\n    tag_27:\n      mload(0x40)\n      dup1\n      swap2\n      sub\n      swap1\n      return\n        /* \"testing.sol\":781:872  function getOwner(\r... */\n    tag_7:\n      tag_28\n      tag_29\n      jump\t// in\n    tag_28:\n      mload(0x40)\n      tag_30\n      swap2\n      swap1\n      tag_31\n      jump\t// in\n    tag_30:\n      mload(0x40)\n      dup1\n      swap2\n      sub\n      swap1\n      return\n        /* \"testing.sol\":579:668  function showOwner() public view returns(address){\r... */\n    tag_8:\n      tag_32\n      tag_33\n      jump\t// in\n    tag_32:\n      mload(0x40)\n      tag_34\n      swap2\n      swap1\n      tag_31\n      jump\t// in\n    tag_34:\n      mload(0x40)\n      dup1\n      swap2\n      sub\n      swap1\n      return\n        /* \"testing.sol\":1471:1581  function subtraction() public view returns(uint){\r... */\n    tag_9:\n      tag_35\n      tag_36\n      jump\t// in\n    tag_35:\n      mload(0x40)\n      tag_37\n      swap2\n      swap1\n      tag_17\n      jump\t// in\n    tag_37:\n      mload(0x40)\n      dup1\n      swap2\n      sub\n      swap1\n      return\n        /* \"testing.sol\":1163:1227  function var2Set(uint y) public\r... */\n    tag_10:\n      tag_38\n      0x04\n      dup1\n      calldatasize\n      sub\n      dup2\n      add\n      swap1\n      tag_39\n      swap2\n      swap1\n      tag_40\n      jump\t// in\n    tag_39:\n      tag_41\n      jump\t// in\n    tag_38:\n      stop\n        /* \"testing.sol\":1277:1384  function addition() public view returns(uint){\r... */\n    tag_11:\n      tag_42\n      tag_43\n      jump\t// in\n    tag_42:\n      mload(0x40)\n      tag_44\n      swap2\n      swap1\n      tag_17\n      jump\t// in\n    tag_44:\n      mload(0x40)\n      dup1\n      swap2\n      sub\n      swap1\n      return\n        /* \"testing.sol\":978:1042  function var1Set(uint x) public\r... */\n    tag_12:\n      tag_45\n      0x04\n      dup1\n      calldatasize\n      sub\n      dup2\n      add\n      swap1\n      tag_46\n      swap2\n      swap1\n      tag_40\n      jump\t// in\n    tag_46:\n      tag_47\n      jump\t// in\n    tag_45:\n      stop\n        /* \"testing.sol\":1625:1732  function modulo() public view returns(uint){\r... */\n    tag_15:\n        /* \"testing.sol\":1663:1667  uint */\n      0x00\n        /* \"testing.sol\":1679:1688  uint modu */\n      dup1\n        /* \"testing.sol\":1698:1702  var2 */\n      sload(0x02)\n        /* \"testing.sol\":1691:1695  var1 */\n      sload(0x01)\n        /* \"testing.sol\":1691:1702  var1 % var2 */\n      tag_49\n      swap2\n      swap1\n      tag_50\n      jump\t// in\n    tag_49:\n        /* \"testing.sol\":1679:1702  uint modu = var1 % var2 */\n      swap1\n      pop\n        /* \"testing.sol\":1720:1724  modu */\n      dup1\n        /* \"testing.sol\":1713:1724  return modu */\n      swap2\n      pop\n      pop\n        /* \"testing.sol\":1625:1732  function modulo() public view returns(uint){\r... */\n      swap1\n      jump\t// out\n        /* \"testing.sol\":1833:1988  function destroySmartContract (address payable _to) public {\r... */\n    tag_21:\n        /* \"testing.sol\":1925:1930  owner */\n      0x00\n      dup1\n      sload\n      swap1\n      0x0100\n      exp\n      swap1\n      div\n      0xffffffffffffffffffffffffffffffffffffffff\n      and\n        /* \"testing.sol\":1911:1930  msg.sender == owner */\n      0xffffffffffffffffffffffffffffffffffffffff\n      and\n        /* \"testing.sol\":1911:1921  msg.sender */\n      caller\n        /* \"testing.sol\":1911:1930  msg.sender == owner */\n      0xffffffffffffffffffffffffffffffffffffffff\n      and\n      eq\n        /* \"testing.sol\":1903:1952  require(msg.sender == owner, \"You are not OWNER\") */\n      tag_52\n      jumpi\n      mload(0x40)\n      0x08c379a000000000000000000000000000000000000000000000000000000000\n      dup2\n      mstore\n      0x04\n      add\n      tag_53\n      swap1\n      tag_54\n      jump\t// in\n    tag_53:\n      mload(0x40)\n      dup1\n      swap2\n      sub\n      swap1\n      revert\n    tag_52:\n        /* \"testing.sol\":1976:1979  _to */\n      dup1\n        /* \"testing.sol\":1963:1980  selfdestruct(_to) */\n      0xffffffffffffffffffffffffffffffffffffffff\n      and\n      selfdestruct\n        /* \"testing.sol\":333:352  uint256 public var2 */\n    tag_23:\n      sload(0x02)\n      dup2\n      jump\t// out\n        /* \"testing.sol\":307:326  uint256 public var1 */\n    tag_26:\n      sload(0x01)\n      dup2\n      jump\t// out\n        /* \"testing.sol\":781:872  function getOwner(\r... */\n    tag_29:\n        /* \"testing.sol\":828:835  address */\n      0x00\n        /* \"testing.sol\":859:864  owner */\n      dup1\n      0x00\n      swap1\n      sload\n      swap1\n      0x0100\n      exp\n      swap1\n      div\n      0xffffffffffffffffffffffffffffffffffffffff\n      and\n        /* \"testing.sol\":852:864  return owner */\n      swap1\n      pop\n        /* \"testing.sol\":781:872  function getOwner(\r... */\n      swap1\n      jump\t// out\n        /* \"testing.sol\":579:668  function showOwner() public view returns(address){\r... */\n    tag_33:\n        /* \"testing.sol\":620:627  address */\n      0x00\n        /* \"testing.sol\":654:659  owner */\n      dup1\n      0x00\n      swap1\n      sload\n      swap1\n      0x0100\n      exp\n      swap1\n      div\n      0xffffffffffffffffffffffffffffffffffffffff\n      and\n        /* \"testing.sol\":639:660  return address(owner) */\n      swap1\n      pop\n        /* \"testing.sol\":579:668  function showOwner() public view returns(address){\r... */\n      swap1\n      jump\t// out\n        /* \"testing.sol\":1471:1581  function subtraction() public view returns(uint){\r... */\n    tag_36:\n        /* \"testing.sol\":1514:1518  uint */\n      0x00\n        /* \"testing.sol\":1530:1538  uint sub */\n      dup1\n        /* \"testing.sol\":1548:1552  var2 */\n      sload(0x02)\n        /* \"testing.sol\":1541:1545  var1 */\n      sload(0x01)\n        /* \"testing.sol\":1541:1552  var1 - var2 */\n      tag_58\n      swap2\n      swap1\n      tag_59\n      jump\t// in\n    tag_58:\n        /* \"testing.sol\":1530:1552  uint sub = var1 - var2 */\n      swap1\n      pop\n        /* \"testing.sol\":1570:1573  sub */\n      dup1\n        /* \"testing.sol\":1563:1573  return sub */\n      swap2\n      pop\n      pop\n        /* \"testing.sol\":1471:1581  function subtraction() public view returns(uint){\r... */\n      swap1\n      jump\t// out\n        /* \"testing.sol\":1163:1227  function var2Set(uint y) public\r... */\n    tag_41:\n        /* \"testing.sol\":1218:1219  y */\n      dup1\n        /* \"testing.sol\":1211:1215  var2 */\n      0x02\n        /* \"testing.sol\":1211:1219  var2 = y */\n      dup2\n      swap1\n      sstore\n      pop\n        /* \"testing.sol\":1163:1227  function var2Set(uint y) public\r... */\n      pop\n      jump\t// out\n        /* \"testing.sol\":1277:1384  function addition() public view returns(uint){\r... */\n    tag_43:\n        /* \"testing.sol\":1317:1321  uint */\n      0x00\n        /* \"testing.sol\":1333:1341  uint sum */\n      dup1\n        /* \"testing.sol\":1351:1355  var2 */\n      sload(0x02)\n        /* \"testing.sol\":1344:1348  var1 */\n      sload(0x01)\n        /* \"testing.sol\":1344:1355  var1 + var2 */\n      tag_62\n      swap2\n      swap1\n      tag_63\n      jump\t// in\n    tag_62:\n        /* \"testing.sol\":1333:1355  uint sum = var1 + var2 */\n      swap1\n      pop\n        /* \"testing.sol\":1373:1376  sum */\n      dup1\n        /* \"testing.sol\":1366:1376  return sum */\n      swap2\n      pop\n      pop\n        /* \"testing.sol\":1277:1384  function addition() public view returns(uint){\r... */\n      swap1\n      jump\t// out\n        /* \"testing.sol\":978:1042  function var1Set(uint x) public\r... */\n    tag_47:\n        /* \"testing.sol\":1033:1034  x */\n      dup1\n        /* \"testing.sol\":1026:1030  var1 */\n      0x01\n        /* \"testing.sol\":1026:1034  var1 = x */\n      dup2\n      swap1\n      sstore\n      pop\n        /* \"testing.sol\":978:1042  function var1Set(uint x) public\r... */\n      pop\n      jump\t// out\n        /* \"#utility.yul\":7:162   */\n    tag_66:\n        /* \"#utility.yul\":61:66   */\n      0x00\n        /* \"#utility.yul\":99:105   */\n      dup2\n        /* \"#utility.yul\":86:106   */\n      calldataload\n        /* \"#utility.yul\":77:106   */\n      swap1\n      pop\n        /* \"#utility.yul\":115:156   */\n      tag_68\n        /* \"#utility.yul\":150:155   */\n      dup2\n        /* \"#utility.yul\":115:156   */\n      tag_69\n      jump\t// in\n    tag_68:\n        /* \"#utility.yul\":7:162   */\n      swap3\n      swap2\n      pop\n      pop\n      jump\t// out\n        /* \"#utility.yul\":168:307   */\n    tag_70:\n        /* \"#utility.yul\":214:219   */\n      0x00\n        /* \"#utility.yul\":252:258   */\n      dup2\n        /* \"#utility.yul\":239:259   */\n      calldataload\n        /* \"#utility.yul\":230:259   */\n      swap1\n      pop\n        /* \"#utility.yul\":268:301   */\n      tag_72\n        /* \"#utility.yul\":295:300   */\n      dup2\n        /* \"#utility.yul\":268:301   */\n      tag_73\n      jump\t// in\n    tag_72:\n        /* \"#utility.yul\":168:307   */\n      swap3\n      swap2\n      pop\n      pop\n      jump\t// out\n        /* \"#utility.yul\":313:658   */\n    tag_20:\n        /* \"#utility.yul\":380:386   */\n      0x00\n        /* \"#utility.yul\":429:431   */\n      0x20\n        /* \"#utility.yul\":417:426   */\n      dup3\n        /* \"#utility.yul\":408:415   */\n      dup5\n        /* \"#utility.yul\":404:427   */\n      sub\n        /* \"#utility.yul\":400:432   */\n      slt\n        /* \"#utility.yul\":397:516   */\n      iszero\n      tag_75\n      jumpi\n        /* \"#utility.yul\":435:514   */\n      tag_76\n      tag_77\n      jump\t// in\n    tag_76:\n        /* \"#utility.yul\":397:516   */\n    tag_75:\n        /* \"#utility.yul\":555:556   */\n      0x00\n        /* \"#utility.yul\":580:641   */\n      tag_78\n        /* \"#utility.yul\":633:640   */\n      dup5\n        /* \"#utility.yul\":624:630   */\n      dup3\n        /* \"#utility.yul\":613:622   */\n      dup6\n        /* \"#utility.yul\":609:631   */\n      add\n        /* \"#utility.yul\":580:641   */\n      tag_66\n      jump\t// in\n    tag_78:\n        /* \"#utility.yul\":570:641   */\n      swap2\n      pop\n        /* \"#utility.yul\":526:651   */\n      pop\n        /* \"#utility.yul\":313:658   */\n      swap3\n      swap2\n      pop\n      pop\n      jump\t// out\n        /* \"#utility.yul\":664:993   */\n    tag_40:\n        /* \"#utility.yul\":723:729   */\n      0x00\n        /* \"#utility.yul\":772:774   */\n      0x20\n        /* \"#utility.yul\":760:769   */\n      dup3\n        /* \"#utility.yul\":751:758   */\n      dup5\n        /* \"#utility.yul\":747:770   */\n      sub\n        /* \"#utility.yul\":743:775   */\n      slt\n        /* \"#utility.yul\":740:859   */\n      iszero\n      tag_80\n      jumpi\n        /* \"#utility.yul\":778:857   */\n      tag_81\n      tag_77\n      jump\t// in\n    tag_81:\n        /* \"#utility.yul\":740:859   */\n    tag_80:\n        /* \"#utility.yul\":898:899   */\n      0x00\n        /* \"#utility.yul\":923:976   */\n      tag_82\n        /* \"#utility.yul\":968:975   */\n      dup5\n        /* \"#utility.yul\":959:965   */\n      dup3\n        /* \"#utility.yul\":948:957   */\n      dup6\n        /* \"#utility.yul\":944:966   */\n      add\n        /* \"#utility.yul\":923:976   */\n      tag_70\n      jump\t// in\n    tag_82:\n        /* \"#utility.yul\":913:976   */\n      swap2\n      pop\n        /* \"#utility.yul\":869:986   */\n      pop\n        /* \"#utility.yul\":664:993   */\n      swap3\n      swap2\n      pop\n      pop\n      jump\t// out\n        /* \"#utility.yul\":999:1117   */\n    tag_83:\n        /* \"#utility.yul\":1086:1110   */\n      tag_85\n        /* \"#utility.yul\":1104:1109   */\n      dup2\n        /* \"#utility.yul\":1086:1110   */\n      tag_86\n      jump\t// in\n    tag_85:\n        /* \"#utility.yul\":1081:1084   */\n      dup3\n        /* \"#utility.yul\":1074:1111   */\n      mstore\n        /* \"#utility.yul\":999:1117   */\n      pop\n      pop\n      jump\t// out\n        /* \"#utility.yul\":1123:1489   */\n    tag_87:\n        /* \"#utility.yul\":1265:1268   */\n      0x00\n        /* \"#utility.yul\":1286:1353   */\n      tag_89\n        /* \"#utility.yul\":1350:1352   */\n      0x11\n        /* \"#utility.yul\":1345:1348   */\n      dup4\n        /* \"#utility.yul\":1286:1353   */\n      tag_90\n      jump\t// in\n    tag_89:\n        /* \"#utility.yul\":1279:1353   */\n      swap2\n      pop\n        /* \"#utility.yul\":1362:1455   */\n      tag_91\n        /* \"#utility.yul\":1451:1454   */\n      dup3\n        /* \"#utility.yul\":1362:1455   */\n      tag_92\n      jump\t// in\n    tag_91:\n        /* \"#utility.yul\":1480:1482   */\n      0x20\n        /* \"#utility.yul\":1475:1478   */\n      dup3\n        /* \"#utility.yul\":1471:1483   */\n      add\n        /* \"#utility.yul\":1464:1483   */\n      swap1\n      pop\n        /* \"#utility.yul\":1123:1489   */\n      swap2\n      swap1\n      pop\n      jump\t// out\n        /* \"#utility.yul\":1495:1613   */\n    tag_93:\n        /* \"#utility.yul\":1582:1606   */\n      tag_95\n        /* \"#utility.yul\":1600:1605   */\n      dup2\n        /* \"#utility.yul\":1582:1606   */\n      tag_96\n      jump\t// in\n    tag_95:\n        /* \"#utility.yul\":1577:1580   */\n      dup3\n        /* \"#utility.yul\":1570:1607   */\n      mstore\n        /* \"#utility.yul\":1495:1613   */\n      pop\n      pop\n      jump\t// out\n        /* \"#utility.yul\":1619:1841   */\n    tag_31:\n        /* \"#utility.yul\":1712:1716   */\n      0x00\n        /* \"#utility.yul\":1750:1752   */\n      0x20\n        /* \"#utility.yul\":1739:1748   */\n      dup3\n        /* \"#utility.yul\":1735:1753   */\n      add\n        /* \"#utility.yul\":1727:1753   */\n      swap1\n      pop\n        /* \"#utility.yul\":1763:1834   */\n      tag_98\n        /* \"#utility.yul\":1831:1832   */\n      0x00\n        /* \"#utility.yul\":1820:1829   */\n      dup4\n        /* \"#utility.yul\":1816:1833   */\n      add\n        /* \"#utility.yul\":1807:1813   */\n      dup5\n        /* \"#utility.yul\":1763:1834   */\n      tag_83\n      jump\t// in\n    tag_98:\n        /* \"#utility.yul\":1619:1841   */\n      swap3\n      swap2\n      pop\n      pop\n      jump\t// out\n        /* \"#utility.yul\":1847:2266   */\n    tag_54:\n        /* \"#utility.yul\":2013:2017   */\n      0x00\n        /* \"#utility.yul\":2051:2053   */\n      0x20\n        /* \"#utility.yul\":2040:2049   */\n      dup3\n        /* \"#utility.yul\":2036:2054   */\n      add\n        /* \"#utility.yul\":2028:2054   */\n      swap1\n      pop\n        /* \"#utility.yul\":2100:2109   */\n      dup2\n        /* \"#utility.yul\":2094:2098   */\n      dup2\n        /* \"#utility.yul\":2090:2110   */\n      sub\n        /* \"#utility.yul\":2086:2087   */\n      0x00\n        /* \"#utility.yul\":2075:2084   */\n      dup4\n        /* \"#utility.yul\":2071:2088   */\n      add\n        /* \"#utility.yul\":2064:2111   */\n      mstore\n        /* \"#utility.yul\":2128:2259   */\n      tag_100\n        /* \"#utility.yul\":2254:2258   */\n      dup2\n        /* \"#utility.yul\":2128:2259   */\n      tag_87\n      jump\t// in\n    tag_100:\n        /* \"#utility.yul\":2120:2259   */\n      swap1\n      pop\n        /* \"#utility.yul\":1847:2266   */\n      swap2\n      swap1\n      pop\n      jump\t// out\n        /* \"#utility.yul\":2272:2494   */\n    tag_17:\n        /* \"#utility.yul\":2365:2369   */\n      0x00\n        /* \"#utility.yul\":2403:2405   */\n      0x20\n        /* \"#utility.yul\":2392:2401   */\n      dup3\n        /* \"#utility.yul\":2388:2406   */\n      add\n        /* \"#utility.yul\":2380:2406   */\n      swap1\n      pop\n        /* \"#utility.yul\":2416:2487   */\n      tag_102\n        /* \"#utility.yul\":2484:2485   */\n      0x00\n        /* \"#utility.yul\":2473:2482   */\n      dup4\n        /* \"#utility.yul\":2469:2486   */\n      add\n        /* \"#utility.yul\":2460:2466   */\n      dup5\n        /* \"#utility.yul\":2416:2487   */\n      tag_93\n      jump\t// in\n    tag_102:\n        /* \"#utility.yul\":2272:2494   */\n      swap3\n      swap2\n      pop\n      pop\n      jump\t// out\n        /* \"#utility.yul\":2581:2750   */\n    tag_90:\n        /* \"#utility.yul\":2665:2676   */\n      0x00\n        /* \"#utility.yul\":2699:2705   */\n      dup3\n        /* \"#utility.yul\":2694:2697   */\n      dup3\n        /* \"#utility.yul\":2687:2706   */\n      mstore\n        /* \"#utility.yul\":2739:2743   */\n      0x20\n        /* \"#utility.yul\":2734:2737   */\n      dup3\n        /* \"#utility.yul\":2730:2744   */\n      add\n        /* \"#utility.yul\":2715:2744   */\n      swap1\n      pop\n        /* \"#utility.yul\":2581:2750   */\n      swap3\n      swap2\n      pop\n      pop\n      jump\t// out\n        /* \"#utility.yul\":2756:3061   */\n    tag_63:\n        /* \"#utility.yul\":2796:2799   */\n      0x00\n        /* \"#utility.yul\":2815:2835   */\n      tag_107\n        /* \"#utility.yul\":2833:2834   */\n      dup3\n        /* \"#utility.yul\":2815:2835   */\n      tag_96\n      jump\t// in\n    tag_107:\n        /* \"#utility.yul\":2810:2835   */\n      swap2\n      pop\n        /* \"#utility.yul\":2849:2869   */\n      tag_108\n        /* \"#utility.yul\":2867:2868   */\n      dup4\n        /* \"#utility.yul\":2849:2869   */\n      tag_96\n      jump\t// in\n    tag_108:\n        /* \"#utility.yul\":2844:2869   */\n      swap3\n      pop\n        /* \"#utility.yul\":3003:3004   */\n      dup3\n        /* \"#utility.yul\":2935:3001   */\n      0xffffffffffffffffffffffffffffffffffffffffffffffffffffffffffffffff\n        /* \"#utility.yul\":2931:3005   */\n      sub\n        /* \"#utility.yul\":2928:2929   */\n      dup3\n        /* \"#utility.yul\":2925:3006   */\n      gt\n        /* \"#utility.yul\":2922:3029   */\n      iszero\n      tag_109\n      jumpi\n        /* \"#utility.yul\":3009:3027   */\n      tag_110\n      tag_111\n      jump\t// in\n    tag_110:\n        /* \"#utility.yul\":2922:3029   */\n    tag_109:\n        /* \"#utility.yul\":3053:3054   */\n      dup3\n        /* \"#utility.yul\":3050:3051   */\n      dup3\n        /* \"#utility.yul\":3046:3055   */\n      add\n        /* \"#utility.yul\":3039:3055   */\n      swap1\n      pop\n        /* \"#utility.yul\":2756:3061   */\n      swap3\n      swap2\n      pop\n      pop\n      jump\t// out\n        /* \"#utility.yul\":3067:3258   */\n    tag_59:\n        /* \"#utility.yul\":3107:3111   */\n      0x00\n        /* \"#utility.yul\":3127:3147   */\n      tag_113\n        /* \"#utility.yul\":3145:3146   */\n      dup3\n        /* \"#utility.yul\":3127:3147   */\n      tag_96\n      jump\t// in\n    tag_113:\n        /* \"#utility.yul\":3122:3147   */\n      swap2\n      pop\n        /* \"#utility.yul\":3161:3181   */\n      tag_114\n        /* \"#utility.yul\":3179:3180   */\n      dup4\n        /* \"#utility.yul\":3161:3181   */\n      tag_96\n      jump\t// in\n    tag_114:\n        /* \"#utility.yul\":3156:3181   */\n      swap3\n      pop\n        /* \"#utility.yul\":3200:3201   */\n      dup3\n        /* \"#utility.yul\":3197:3198   */\n      dup3\n        /* \"#utility.yul\":3194:3202   */\n      lt\n        /* \"#utility.yul\":3191:3225   */\n      iszero\n      tag_115\n      jumpi\n        /* \"#utility.yul\":3205:3223   */\n      tag_116\n      tag_111\n      jump\t// in\n    tag_116:\n        /* \"#utility.yul\":3191:3225   */\n    tag_115:\n        /* \"#utility.yul\":3250:3251   */\n      dup3\n        /* \"#utility.yul\":3247:3248   */\n      dup3\n        /* \"#utility.yul\":3243:3252   */\n      sub\n        /* \"#utility.yul\":3235:3252   */\n      swap1\n      pop\n        /* \"#utility.yul\":3067:3258   */\n      swap3\n      swap2\n      pop\n      pop\n      jump\t// out\n        /* \"#utility.yul\":3264:3360   */\n    tag_86:\n        /* \"#utility.yul\":3301:3308   */\n      0x00\n        /* \"#utility.yul\":3330:3354   */\n      tag_118\n        /* \"#utility.yul\":3348:3353   */\n      dup3\n        /* \"#utility.yul\":3330:3354   */\n      tag_119\n      jump\t// in\n    tag_118:\n        /* \"#utility.yul\":3319:3354   */\n      swap1\n      pop\n        /* \"#utility.yul\":3264:3360   */\n      swap2\n      swap1\n      pop\n      jump\t// out\n        /* \"#utility.yul\":3366:3470   */\n    tag_120:\n        /* \"#utility.yul\":3411:3418   */\n      0x00\n        /* \"#utility.yul\":3440:3464   */\n      tag_122\n        /* \"#utility.yul\":3458:3463   */\n      dup3\n        /* \"#utility.yul\":3440:3464   */\n      tag_119\n      jump\t// in\n    tag_122:\n        /* \"#utility.yul\":3429:3464   */\n      swap1\n      pop\n        /* \"#utility.yul\":3366:3470   */\n      swap2\n      swap1\n      pop\n      jump\t// out\n        /* \"#utility.yul\":3476:3602   */\n    tag_119:\n        /* \"#utility.yul\":3513:3520   */\n      0x00\n        /* \"#utility.yul\":3553:3595   */\n      0xffffffffffffffffffffffffffffffffffffffff\n        /* \"#utility.yul\":3546:3551   */\n      dup3\n        /* \"#utility.yul\":3542:3596   */\n      and\n        /* \"#utility.yul\":3531:3596   */\n      swap1\n      pop\n        /* \"#utility.yul\":3476:3602   */\n      swap2\n      swap1\n      pop\n      jump\t// out\n        /* \"#utility.yul\":3608:3685   */\n    tag_96:\n        /* \"#utility.yul\":3645:3652   */\n      0x00\n        /* \"#utility.yul\":3674:3679   */\n      dup2\n        /* \"#utility.yul\":3663:3679   */\n      swap1\n      pop\n        /* \"#utility.yul\":3608:3685   */\n      swap2\n      swap1\n      pop\n      jump\t// out\n        /* \"#utility.yul\":3691:3867   */\n    tag_50:\n        /* \"#utility.yul\":3723:3724   */\n      0x00\n        /* \"#utility.yul\":3740:3760   */\n      tag_126\n        /* \"#utility.yul\":3758:3759   */\n      dup3\n        /* \"#utility.yul\":3740:3760   */\n      tag_96\n      jump\t// in\n    tag_126:\n        /* \"#utility.yul\":3735:3760   */\n      swap2\n      pop\n        /* \"#utility.yul\":3774:3794   */\n      tag_127\n        /* \"#utility.yul\":3792:3793   */\n      dup4\n        /* \"#utility.yul\":3774:3794   */\n      tag_96\n      jump\t// in\n    tag_127:\n        /* \"#utility.yul\":3769:3794   */\n      swap3\n      pop\n        /* \"#utility.yul\":3813:3814   */\n      dup3\n        /* \"#utility.yul\":3803:3838   */\n      tag_128\n      jumpi\n        /* \"#utility.yul\":3818:3836   */\n      tag_129\n      tag_130\n      jump\t// in\n    tag_129:\n        /* \"#utility.yul\":3803:3838   */\n    tag_128:\n        /* \"#utility.yul\":3859:3860   */\n      dup3\n        /* \"#utility.yul\":3856:3857   */\n      dup3\n        /* \"#utility.yul\":3852:3861   */\n      mod\n        /* \"#utility.yul\":3847:3861   */\n      swap1\n      pop\n        /* \"#utility.yul\":3691:3867   */\n      swap3\n      swap2\n      pop\n      pop\n      jump\t// out\n        /* \"#utility.yul\":3873:4053   */\n    tag_111:\n        /* \"#utility.yul\":3921:3998   */\n      0x4e487b7100000000000000000000000000000000000000000000000000000000\n        /* \"#utility.yul\":3918:3919   */\n      0x00\n        /* \"#utility.yul\":3911:3999   */\n      mstore\n        /* \"#utility.yul\":4018:4022   */\n      0x11\n        /* \"#utility.yul\":4015:4016   */\n      0x04\n        /* \"#utility.yul\":4008:4023   */\n      mstore\n        /* \"#utility.yul\":4042:4046   */\n      0x24\n        /* \"#utility.yul\":4039:4040   */\n      0x00\n        /* \"#utility.yul\":4032:4047   */\n      revert\n        /* \"#utility.yul\":4059:4239   */\n    tag_130:\n        /* \"#utility.yul\":4107:4184   */\n      0x4e487b7100000000000000000000000000000000000000000000000000000000\n        /* \"#utility.yul\":4104:4105   */\n      0x00\n        /* \"#utility.yul\":4097:4185   */\n      mstore\n        /* \"#utility.yul\":4204:4208   */\n      0x12\n        /* \"#utility.yul\":4201:4202   */\n      0x04\n        /* \"#utility.yul\":4194:4209   */\n      mstore\n        /* \"#utility.yul\":4228:4232   */\n      0x24\n        /* \"#utility.yul\":4225:4226   */\n      0x00\n        /* \"#utility.yul\":4218:4233   */\n      revert\n        /* \"#utility.yul\":4368:4485   */\n    tag_77:\n        /* \"#utility.yul\":4477:4478   */\n      0x00\n        /* \"#utility.yul\":4474:4475   */\n      dup1\n        /* \"#utility.yul\":4467:4479   */\n      revert\n        /* \"#utility.yul\":4491:4658   */\n    tag_92:\n        /* \"#utility.yul\":4631:4650   */\n      0x596f7520617265206e6f74204f574e4552000000000000000000000000000000\n        /* \"#utility.yul\":4627:4628   */\n      0x00\n        /* \"#utility.yul\":4619:4625   */\n      dup3\n        /* \"#utility.yul\":4615:4629   */\n      add\n        /* \"#utility.yul\":4608:4651   */\n      mstore\n        /* \"#utility.yul\":4491:4658   */\n      pop\n      jump\t// out\n        /* \"#utility.yul\":4664:4802   */\n    tag_69:\n        /* \"#utility.yul\":4745:4777   */\n      tag_138\n        /* \"#utility.yul\":4771:4776   */\n      dup2\n        /* \"#utility.yul\":4745:4777   */\n      tag_120\n      jump\t// in\n    tag_138:\n        /* \"#utility.yul\":4738:4743   */\n      dup2\n        /* \"#utility.yul\":4735:4778   */\n      eq\n        /* \"#utility.yul\":4725:4796   */\n      tag_139\n      jumpi\n        /* \"#utility.yul\":4792:4793   */\n      0x00\n        /* \"#utility.yul\":4789:4790   */\n      dup1\n        /* \"#utility.yul\":4782:4794   */\n      revert\n        /* \"#utility.yul\":4725:4796   */\n    tag_139:\n        /* \"#utility.yul\":4664:4802   */\n      pop\n      jump\t// out\n        /* \"#utility.yul\":4808:4930   */\n    tag_73:\n        /* \"#utility.yul\":4881:4905   */\n      tag_141\n        /* \"#utility.yul\":4899:4904   */\n      dup2\n        /* \"#utility.yul\":4881:4905   */\n      tag_96\n      jump\t// in\n    tag_141:\n        /* \"#utility.yul\":4874:4879   */\n      dup2\n        /* \"#utility.yul\":4871:4906   */\n      eq\n        /* \"#utility.yul\":4861:4924   */\n      tag_142\n      jumpi\n        /* \"#utility.yul\":4920:4921   */\n      0x00\n        /* \"#utility.yul\":4917:4918   */\n      dup1\n        /* \"#utility.yul\":4910:4922   */\n      revert\n        /* \"#utility.yul\":4861:4924   */\n    tag_142:\n        /* \"#utility.yul\":4808:4930   */\n      pop\n      jump\t// out\n\n    auxdata: 0xa2646970667358221220badc2feb14e740e69830f4594aa1d0a699ff7ed74b807499bbfc59f2d4ed171964736f6c63430008070033\n}\n",
				"bytecode": {
					"linkReferences": {},
					"object": "608060405234801561001057600080fd5b50336000806101000a81548173ffffffffffffffffffffffffffffffffffffffff021916908373ffffffffffffffffffffffffffffffffffffffff16021790555061065b806100606000396000f3fe608060405234801561001057600080fd5b506004361061009e5760003560e01c8063ded9468811610066578063ded9468814610137578063e3ec025114610155578063ebc531ff14610173578063ec5971281461018f578063fb3552fc146101ad5761009e565b806329745262146100a357806339df43ff146100c1578063507aff57146100dd57806367e919b6146100fb578063893d20e814610119575b600080fd5b6100ab6101c9565b6040516100b89190610436565b60405180910390f35b6100db60048036038101906100d69190610360565b6101e5565b005b6100e561028c565b6040516100f29190610436565b60405180910390f35b610103610292565b6040516101109190610436565b60405180910390f35b610121610298565b60405161012e91906103fb565b60405180910390f35b61013f6102c1565b60405161014c91906103fb565b60405180910390f35b61015d6102ea565b60405161016a9190610436565b60405180910390f35b61018d6004803603810190610188919061038d565b610306565b005b610197610310565b6040516101a49190610436565b60405180910390f35b6101c760048036038101906101c2919061038d565b61032c565b005b6000806002546001546101dc919061053a565b90508091505090565b60008054906101000a900473ffffffffffffffffffffffffffffffffffffffff1673ffffffffffffffffffffffffffffffffffffffff163373ffffffffffffffffffffffffffffffffffffffff1614610273576040517f08c379a000000000000000000000000000000000000000000000000000000000815260040161026a90610416565b60405180910390fd5b8073ffffffffffffffffffffffffffffffffffffffff16ff5b60025481565b60015481565b60008060009054906101000a900473ffffffffffffffffffffffffffffffffffffffff16905090565b60008060009054906101000a900473ffffffffffffffffffffffffffffffffffffffff16905090565b6000806002546001546102fd91906104b8565b90508091505090565b8060028190555050565b6000806002546001546103239190610462565b90508091505090565b8060018190555050565b600081359050610345816105f7565b92915050565b60008135905061035a8161060e565b92915050565b600060208284031215610376576103756105c9565b5b600061038484828501610336565b91505092915050565b6000602082840312156103a3576103a26105c9565b5b60006103b18482850161034b565b91505092915050565b6103c3816104ec565b82525050565b60006103d6601183610451565b91506103e1826105ce565b602082019050919050565b6103f581610530565b82525050565b600060208201905061041060008301846103ba565b92915050565b6000602082019050818103600083015261042f816103c9565b9050919050565b600060208201905061044b60008301846103ec565b92915050565b600082825260208201905092915050565b600061046d82610530565b915061047883610530565b9250827fffffffffffffffffffffffffffffffffffffffffffffffffffffffffffffffff038211156104ad576104ac61056b565b5b828201905092915050565b60006104c382610530565b91506104ce83610530565b9250828210156104e1576104e061056b565b5b828203905092915050565b60006104f782610510565b9050919050565b600061050982610510565b9050919050565b600073ffffffffffffffffffffffffffffffffffffffff82169050919050565b6000819050919050565b600061054582610530565b915061055083610530565b9250826105605761055f61059a565b5b828206905092915050565b7f4e487b7100000000000000000000000000000000000000000000000000000000600052601160045260246000fd5b7f4e487b7100000000000000000000000000000000000000000000000000000000600052601260045260246000fd5b600080fd5b7f596f7520617265206e6f74204f574e4552000000000000000000000000000000600082015250565b610600816104fe565b811461060b57600080fd5b50565b61061781610530565b811461062257600080fd5b5056fea2646970667358221220badc2feb14e740e69830f4594aa1d0a699ff7ed74b807499bbfc59f2d4ed171964736f6c63430008070033",
					"opcodes": "PUSH1 0x80 PUSH1 0x40 MSTORE CALLVALUE DUP1 ISZERO PUSH2 0x10 JUMPI PUSH1 0x0 DUP1 REVERT JUMPDEST POP CALLER PUSH1 0x0 DUP1 PUSH2 0x100 EXP DUP2 SLOAD DUP2 PUSH20 0xFFFFFFFFFFFFFFFFFFFFFFFFFFFFFFFFFFFFFFFF MUL NOT AND SWAP1 DUP4 PUSH20 0xFFFFFFFFFFFFFFFFFFFFFFFFFFFFFFFFFFFFFFFF AND MUL OR SWAP1 SSTORE POP PUSH2 0x65B DUP1 PUSH2 0x60 PUSH1 0x0 CODECOPY PUSH1 0x0 RETURN INVALID PUSH1 0x80 PUSH1 0x40 MSTORE CALLVALUE DUP1 ISZERO PUSH2 0x10 JUMPI PUSH1 0x0 DUP1 REVERT JUMPDEST POP PUSH1 0x4 CALLDATASIZE LT PUSH2 0x9E JUMPI PUSH1 0x0 CALLDATALOAD PUSH1 0xE0 SHR DUP1 PUSH4 0xDED94688 GT PUSH2 0x66 JUMPI DUP1 PUSH4 0xDED94688 EQ PUSH2 0x137 JUMPI DUP1 PUSH4 0xE3EC0251 EQ PUSH2 0x155 JUMPI DUP1 PUSH4 0xEBC531FF EQ PUSH2 0x173 JUMPI DUP1 PUSH4 0xEC597128 EQ PUSH2 0x18F JUMPI DUP1 PUSH4 0xFB3552FC EQ PUSH2 0x1AD JUMPI PUSH2 0x9E JUMP JUMPDEST DUP1 PUSH4 0x29745262 EQ PUSH2 0xA3 JUMPI DUP1 PUSH4 0x39DF43FF EQ PUSH2 0xC1 JUMPI DUP1 PUSH4 0x507AFF57 EQ PUSH2 0xDD JUMPI DUP1 PUSH4 0x67E919B6 EQ PUSH2 0xFB JUMPI DUP1 PUSH4 0x893D20E8 EQ PUSH2 0x119 JUMPI JUMPDEST PUSH1 0x0 DUP1 REVERT JUMPDEST PUSH2 0xAB PUSH2 0x1C9 JUMP JUMPDEST PUSH1 0x40 MLOAD PUSH2 0xB8 SWAP2 SWAP1 PUSH2 0x436 JUMP JUMPDEST PUSH1 0x40 MLOAD DUP1 SWAP2 SUB SWAP1 RETURN JUMPDEST PUSH2 0xDB PUSH1 0x4 DUP1 CALLDATASIZE SUB DUP2 ADD SWAP1 PUSH2 0xD6 SWAP2 SWAP1 PUSH2 0x360 JUMP JUMPDEST PUSH2 0x1E5 JUMP JUMPDEST STOP JUMPDEST PUSH2 0xE5 PUSH2 0x28C JUMP JUMPDEST PUSH1 0x40 MLOAD PUSH2 0xF2 SWAP2 SWAP1 PUSH2 0x436 JUMP JUMPDEST PUSH1 0x40 MLOAD DUP1 SWAP2 SUB SWAP1 RETURN JUMPDEST PUSH2 0x103 PUSH2 0x292 JUMP JUMPDEST PUSH1 0x40 MLOAD PUSH2 0x110 SWAP2 SWAP1 PUSH2 0x436 JUMP JUMPDEST PUSH1 0x40 MLOAD DUP1 SWAP2 SUB SWAP1 RETURN JUMPDEST PUSH2 0x121 PUSH2 0x298 JUMP JUMPDEST PUSH1 0x40 MLOAD PUSH2 0x12E SWAP2 SWAP1 PUSH2 0x3FB JUMP JUMPDEST PUSH1 0x40 MLOAD DUP1 SWAP2 SUB SWAP1 RETURN JUMPDEST PUSH2 0x13F PUSH2 0x2C1 JUMP JUMPDEST PUSH1 0x40 MLOAD PUSH2 0x14C SWAP2 SWAP1 PUSH2 0x3FB JUMP JUMPDEST PUSH1 0x40 MLOAD DUP1 SWAP2 SUB SWAP1 RETURN JUMPDEST PUSH2 0x15D PUSH2 0x2EA JUMP JUMPDEST PUSH1 0x40 MLOAD PUSH2 0x16A SWAP2 SWAP1 PUSH2 0x436 JUMP JUMPDEST PUSH1 0x40 MLOAD DUP1 SWAP2 SUB SWAP1 RETURN JUMPDEST PUSH2 0x18D PUSH1 0x4 DUP1 CALLDATASIZE SUB DUP2 ADD SWAP1 PUSH2 0x188 SWAP2 SWAP1 PUSH2 0x38D JUMP JUMPDEST PUSH2 0x306 JUMP JUMPDEST STOP JUMPDEST PUSH2 0x197 PUSH2 0x310 JUMP JUMPDEST PUSH1 0x40 MLOAD PUSH2 0x1A4 SWAP2 SWAP1 PUSH2 0x436 JUMP JUMPDEST PUSH1 0x40 MLOAD DUP1 SWAP2 SUB SWAP1 RETURN JUMPDEST PUSH2 0x1C7 PUSH1 0x4 DUP1 CALLDATASIZE SUB DUP2 ADD SWAP1 PUSH2 0x1C2 SWAP2 SWAP1 PUSH2 0x38D JUMP JUMPDEST PUSH2 0x32C JUMP JUMPDEST STOP JUMPDEST PUSH1 0x0 DUP1 PUSH1 0x2 SLOAD PUSH1 0x1 SLOAD PUSH2 0x1DC SWAP2 SWAP1 PUSH2 0x53A JUMP JUMPDEST SWAP1 POP DUP1 SWAP2 POP POP SWAP1 JUMP JUMPDEST PUSH1 0x0 DUP1 SLOAD SWAP1 PUSH2 0x100 EXP SWAP1 DIV PUSH20 0xFFFFFFFFFFFFFFFFFFFFFFFFFFFFFFFFFFFFFFFF AND PUSH20 0xFFFFFFFFFFFFFFFFFFFFFFFFFFFFFFFFFFFFFFFF AND CALLER PUSH20 0xFFFFFFFFFFFFFFFFFFFFFFFFFFFFFFFFFFFFFFFF AND EQ PUSH2 0x273 JUMPI PUSH1 0x40 MLOAD PUSH32 0x8C379A000000000000000000000000000000000000000000000000000000000 DUP2 MSTORE PUSH1 0x4 ADD PUSH2 0x26A SWAP1 PUSH2 0x416 JUMP JUMPDEST PUSH1 0x40 MLOAD DUP1 SWAP2 SUB SWAP1 REVERT JUMPDEST DUP1 PUSH20 0xFFFFFFFFFFFFFFFFFFFFFFFFFFFFFFFFFFFFFFFF AND SELFDESTRUCT JUMPDEST PUSH1 0x2 SLOAD DUP2 JUMP JUMPDEST PUSH1 0x1 SLOAD DUP2 JUMP JUMPDEST PUSH1 0x0 DUP1 PUSH1 0x0 SWAP1 SLOAD SWAP1 PUSH2 0x100 EXP SWAP1 DIV PUSH20 0xFFFFFFFFFFFFFFFFFFFFFFFFFFFFFFFFFFFFFFFF AND SWAP1 POP SWAP1 JUMP JUMPDEST PUSH1 0x0 DUP1 PUSH1 0x0 SWAP1 SLOAD SWAP1 PUSH2 0x100 EXP SWAP1 DIV PUSH20 0xFFFFFFFFFFFFFFFFFFFFFFFFFFFFFFFFFFFFFFFF AND SWAP1 POP SWAP1 JUMP JUMPDEST PUSH1 0x0 DUP1 PUSH1 0x2 SLOAD PUSH1 0x1 SLOAD PUSH2 0x2FD SWAP2 SWAP1 PUSH2 0x4B8 JUMP JUMPDEST SWAP1 POP DUP1 SWAP2 POP POP SWAP1 JUMP JUMPDEST DUP1 PUSH1 0x2 DUP2 SWAP1 SSTORE POP POP JUMP JUMPDEST PUSH1 0x0 DUP1 PUSH1 0x2 SLOAD PUSH1 0x1 SLOAD PUSH2 0x323 SWAP2 SWAP1 PUSH2 0x462 JUMP JUMPDEST SWAP1 POP DUP1 SWAP2 POP POP SWAP1 JUMP JUMPDEST DUP1 PUSH1 0x1 DUP2 SWAP1 SSTORE POP POP JUMP JUMPDEST PUSH1 0x0 DUP2 CALLDATALOAD SWAP1 POP PUSH2 0x345 DUP2 PUSH2 0x5F7 JUMP JUMPDEST SWAP3 SWAP2 POP POP JUMP JUMPDEST PUSH1 0x0 DUP2 CALLDATALOAD SWAP1 POP PUSH2 0x35A DUP2 PUSH2 0x60E JUMP JUMPDEST SWAP3 SWAP2 POP POP JUMP JUMPDEST PUSH1 0x0 PUSH1 0x20 DUP3 DUP5 SUB SLT ISZERO PUSH2 0x376 JUMPI PUSH2 0x375 PUSH2 0x5C9 JUMP JUMPDEST JUMPDEST PUSH1 0x0 PUSH2 0x384 DUP5 DUP3 DUP6 ADD PUSH2 0x336 JUMP JUMPDEST SWAP2 POP POP SWAP3 SWAP2 POP POP JUMP JUMPDEST PUSH1 0x0 PUSH1 0x20 DUP3 DUP5 SUB SLT ISZERO PUSH2 0x3A3 JUMPI PUSH2 0x3A2 PUSH2 0x5C9 JUMP JUMPDEST JUMPDEST PUSH1 0x0 PUSH2 0x3B1 DUP5 DUP3 DUP6 ADD PUSH2 0x34B JUMP JUMPDEST SWAP2 POP POP SWAP3 SWAP2 POP POP JUMP JUMPDEST PUSH2 0x3C3 DUP2 PUSH2 0x4EC JUMP JUMPDEST DUP3 MSTORE POP POP JUMP JUMPDEST PUSH1 0x0 PUSH2 0x3D6 PUSH1 0x11 DUP4 PUSH2 0x451 JUMP JUMPDEST SWAP2 POP PUSH2 0x3E1 DUP3 PUSH2 0x5CE JUMP JUMPDEST PUSH1 0x20 DUP3 ADD SWAP1 POP SWAP2 SWAP1 POP JUMP JUMPDEST PUSH2 0x3F5 DUP2 PUSH2 0x530 JUMP JUMPDEST DUP3 MSTORE POP POP JUMP JUMPDEST PUSH1 0x0 PUSH1 0x20 DUP3 ADD SWAP1 POP PUSH2 0x410 PUSH1 0x0 DUP4 ADD DUP5 PUSH2 0x3BA JUMP JUMPDEST SWAP3 SWAP2 POP POP JUMP JUMPDEST PUSH1 0x0 PUSH1 0x20 DUP3 ADD SWAP1 POP DUP2 DUP2 SUB PUSH1 0x0 DUP4 ADD MSTORE PUSH2 0x42F DUP2 PUSH2 0x3C9 JUMP JUMPDEST SWAP1 POP SWAP2 SWAP1 POP JUMP JUMPDEST PUSH1 0x0 PUSH1 0x20 DUP3 ADD SWAP1 POP PUSH2 0x44B PUSH1 0x0 DUP4 ADD DUP5 PUSH2 0x3EC JUMP JUMPDEST SWAP3 SWAP2 POP POP JUMP JUMPDEST PUSH1 0x0 DUP3 DUP3 MSTORE PUSH1 0x20 DUP3 ADD SWAP1 POP SWAP3 SWAP2 POP POP JUMP JUMPDEST PUSH1 0x0 PUSH2 0x46D DUP3 PUSH2 0x530 JUMP JUMPDEST SWAP2 POP PUSH2 0x478 DUP4 PUSH2 0x530 JUMP JUMPDEST SWAP3 POP DUP3 PUSH32 0xFFFFFFFFFFFFFFFFFFFFFFFFFFFFFFFFFFFFFFFFFFFFFFFFFFFFFFFFFFFFFFFF SUB DUP3 GT ISZERO PUSH2 0x4AD JUMPI PUSH2 0x4AC PUSH2 0x56B JUMP JUMPDEST JUMPDEST DUP3 DUP3 ADD SWAP1 POP SWAP3 SWAP2 POP POP JUMP JUMPDEST PUSH1 0x0 PUSH2 0x4C3 DUP3 PUSH2 0x530 JUMP JUMPDEST SWAP2 POP PUSH2 0x4CE DUP4 PUSH2 0x530 JUMP JUMPDEST SWAP3 POP DUP3 DUP3 LT ISZERO PUSH2 0x4E1 JUMPI PUSH2 0x4E0 PUSH2 0x56B JUMP JUMPDEST JUMPDEST DUP3 DUP3 SUB SWAP1 POP SWAP3 SWAP2 POP POP JUMP JUMPDEST PUSH1 0x0 PUSH2 0x4F7 DUP3 PUSH2 0x510 JUMP JUMPDEST SWAP1 POP SWAP2 SWAP1 POP JUMP JUMPDEST PUSH1 0x0 PUSH2 0x509 DUP3 PUSH2 0x510 JUMP JUMPDEST SWAP1 POP SWAP2 SWAP1 POP JUMP JUMPDEST PUSH1 0x0 PUSH20 0xFFFFFFFFFFFFFFFFFFFFFFFFFFFFFFFFFFFFFFFF DUP3 AND SWAP1 POP SWAP2 SWAP1 POP JUMP JUMPDEST PUSH1 0x0 DUP2 SWAP1 POP SWAP2 SWAP1 POP JUMP JUMPDEST PUSH1 0x0 PUSH2 0x545 DUP3 PUSH2 0x530 JUMP JUMPDEST SWAP2 POP PUSH2 0x550 DUP4 PUSH2 0x530 JUMP JUMPDEST SWAP3 POP DUP3 PUSH2 0x560 JUMPI PUSH2 0x55F PUSH2 0x59A JUMP JUMPDEST JUMPDEST DUP3 DUP3 MOD SWAP1 POP SWAP3 SWAP2 POP POP JUMP JUMPDEST PUSH32 0x4E487B7100000000000000000000000000000000000000000000000000000000 PUSH1 0x0 MSTORE PUSH1 0x11 PUSH1 0x4 MSTORE PUSH1 0x24 PUSH1 0x0 REVERT JUMPDEST PUSH32 0x4E487B7100000000000000000000000000000000000000000000000000000000 PUSH1 0x0 MSTORE PUSH1 0x12 PUSH1 0x4 MSTORE PUSH1 0x24 PUSH1 0x0 REVERT JUMPDEST PUSH1 0x0 DUP1 REVERT JUMPDEST PUSH32 0x596F7520617265206E6F74204F574E4552000000000000000000000000000000 PUSH1 0x0 DUP3 ADD MSTORE POP JUMP JUMPDEST PUSH2 0x600 DUP2 PUSH2 0x4FE JUMP JUMPDEST DUP2 EQ PUSH2 0x60B JUMPI PUSH1 0x0 DUP1 REVERT JUMPDEST POP JUMP JUMPDEST PUSH2 0x617 DUP2 PUSH2 0x530 JUMP JUMPDEST DUP2 EQ PUSH2 0x622 JUMPI PUSH1 0x0 DUP1 REVERT JUMPDEST POP JUMP INVALID LOG2 PUSH5 0x6970667358 0x22 SLT KECCAK256 0xBA 0xDC 0x2F 0xEB EQ 0xE7 BLOCKHASH 0xE6 SWAP9 ADDRESS DELEGATECALL MSIZE 0x4A LOG1 0xD0 0xA6 SWAP10 SELFDESTRUCT PUSH31 0xD74B807499BBFC59F2D4ED171964736F6C6343000807003300000000000000 "
				},
				"gasEstimates": {
					"creation": {
						"codeDepositCost": "325400",
						"executionCost": "24628",
						"totalCost": "350028"
					},
					"external": {
						"addition()": "infinite",
						"destroySmartContract(address)": "30243",
						"getOwner()": "2611",
						"modulo()": "infinite",
						"showOwner()": "2522",
						"subtraction()": "infinite",
						"var1()": "2496",
						"var1Set(uint256)": "22608",
						"var2()": "2474",
						"var2Set(uint256)": "22564"
					}
				},
				"methodIdentifiers": {
					"addition()": "ec597128",
					"destroySmartContract(address)": "39df43ff",
					"getOwner()": "893d20e8",
					"modulo()": "29745262",
					"showOwner()": "ded94688",
					"subtraction()": "e3ec0251",
					"var1()": "67e919b6",
					"var1Set(uint256)": "fb3552fc",
					"var2()": "507aff57",
					"var2Set(uint256)": "ebc531ff"
				}
			},
			"storageLayout": {
				"storage": [
					{
						"astId": 3,
						"contract": "testing.sol:StartStopUpdateExample",
						"label": "owner",
						"offset": 0,
						"slot": "0",
						"type": "t_address"
					},
					{
						"astId": 5,
						"contract": "testing.sol:StartStopUpdateExample",
						"label": "var1",
						"offset": 0,
						"slot": "1",
						"type": "t_uint256"
					},
					{
						"astId": 7,
						"contract": "testing.sol:StartStopUpdateExample",
						"label": "var2",
						"offset": 0,
						"slot": "2",
						"type": "t_uint256"
					}
				],
				"types": {
					"t_address": {
						"encoding": "inplace",
						"label": "address",
						"numberOfBytes": "20"
					},
					"t_uint256": {
						"encoding": "inplace",
						"label": "uint256",
						"numberOfBytes": "32"
					}
				}
			},
			"userdoc": {
				"kind": "user",
				"methods": {},
				"version": 1
			}
		}
	}
}