{
	"testing.sol": {
		"StartStopUpdateExample": {
			"abi": [
				{
					"inputs": [],
					"stateMutability": "nonpayable",
					"type": "constructor"
				},
				{
					"inputs": [],
					"name": "addition",
					"outputs": [
						{
							"internalType": "uint256",
							"name": "",
							"type": "uint256"
						}
					],
					"stateMutability": "view",
					"type": "function"
				},
				{
					"inputs": [
						{
							"internalType": "address payable",
							"name": "_to",
							"type": "address"
						}
					],
					"name": "destroySmartContract",
					"outputs": [],
					"stateMutability": "nonpayable",
					"type": "function"
				},
				{
					"inputs": [],
					"name": "getOwner",
					"outputs": [
						{
							"internalType": "address",
							"name": "",
							"type": "address"
						}
					],
					"stateMutability": "view",
					"type": "function"
				},
				{
					"inputs": [],
					"name": "mod",
					"outputs": [
						{
							"internalType": "uint256",
							"name": "",
							"type": "uint256"
						}
					],
					"stateMutability": "view",
					"type": "function"
				},
				{
					"inputs": [
						{
							"internalType": "uint256",
							"name": "_mod",
							"type": "uint256"
						}
					],
					"name": "modSet",
					"outputs": [],
					"stateMutability": "nonpayable",
					"type": "function"
				},
				{
					"inputs": [],
					"name": "showOwner",
					"outputs": [
						{
							"internalType": "address",
							"name": "",
							"type": "address"
						}
					],
					"stateMutability": "view",
					"type": "function"
				},
				{
					"inputs": [],
					"name": "var1",
					"outputs": [
						{
							"internalType": "uint256",
							"name": "",
							"type": "uint256"
						}
					],
					"stateMutability": "view",
					"type": "function"
				},
				{
					"inputs": [
						{
							"internalType": "uint256",
							"name": "_var1",
							"type": "uint256"
						}
					],
					"name": "var1Set",
					"outputs": [],
					"stateMutability": "nonpayable",
					"type": "function"
				},
				{
					"inputs": [],
					"name": "var2",
					"outputs": [
						{
							"internalType": "uint256",
							"name": "",
							"type": "uint256"
						}
					],
					"stateMutability": "view",
					"type": "function"
				},
				{
					"inputs": [
						{
							"internalType": "uint256",
							"name": "_var2",
							"type": "uint256"
						}
					],
					"name": "var2Set",
					"outputs": [],
					"stateMutability": "nonpayable",
					"type": "function"
				}
			],
			"devdoc": {
				"kind": "dev",
				"methods": {},
				"version": 1
			},
			"evm": {
				"assembly": "    /* \"testing.sol\":70:1890  contract StartStopUpdateExample {\r... */\n  mstore(0x40, 0x80)\n    /* \"testing.sol\":389:598  constructor()\r... */\n  callvalue\n  dup1\n  iszero\n  tag_1\n  jumpi\n  0x00\n  dup1\n  revert\ntag_1:\n  pop\n    /* \"testing.sol\":580:590  msg.sender */\n  caller\n    /* \"testing.sol\":572:577  owner */\n  0x00\n  dup1\n    /* \"testing.sol\":572:590  owner = msg.sender */\n  0x0100\n  exp\n  dup2\n  sload\n  dup2\n  0xffffffffffffffffffffffffffffffffffffffff\n  mul\n  not\n  and\n  swap1\n  dup4\n  0xffffffffffffffffffffffffffffffffffffffff\n  and\n  mul\n  or\n  swap1\n  sstore\n  pop\n    /* \"testing.sol\":70:1890  contract StartStopUpdateExample {\r... */\n  dataSize(sub_0)\n  dup1\n  dataOffset(sub_0)\n  0x00\n  codecopy\n  0x00\n  return\nstop\n\nsub_0: assembly {\n        /* \"testing.sol\":70:1890  contract StartStopUpdateExample {\r... */\n      mstore(0x40, 0x80)\n      callvalue\n      dup1\n      iszero\n      tag_1\n      jumpi\n      0x00\n      dup1\n      revert\n    tag_1:\n      pop\n      jumpi(tag_2, lt(calldatasize, 0x04))\n      shr(0xe0, calldataload(0x00))\n      dup1\n      0x893d20e8\n      gt\n      tag_13\n      jumpi\n      dup1\n      0x893d20e8\n      eq\n      tag_8\n      jumpi\n      dup1\n      0xded94688\n      eq\n      tag_9\n      jumpi\n      dup1\n      0xebc531ff\n      eq\n      tag_10\n      jumpi\n      dup1\n      0xec597128\n      eq\n      tag_11\n      jumpi\n      dup1\n      0xfb3552fc\n      eq\n      tag_12\n      jumpi\n      jump(tag_2)\n    tag_13:\n      dup1\n      0x2986e054\n      eq\n      tag_3\n      jumpi\n      dup1\n      0x39df43ff\n      eq\n      tag_4\n      jumpi\n      dup1\n      0x507aff57\n      eq\n      tag_5\n      jumpi\n      dup1\n      0x67e919b6\n      eq\n      tag_6\n      jumpi\n      dup1\n      0x7e9bf9ff\n      eq\n      tag_7\n      jumpi\n    tag_2:\n      0x00\n      dup1\n      revert\n        /* \"testing.sol\":360:378  uint256 public mod */\n    tag_3:\n      tag_14\n      tag_15\n      jump\t// in\n    tag_14:\n      mload(0x40)\n      tag_16\n      swap2\n      swap1\n      tag_17\n      jump\t// in\n    tag_16:\n      mload(0x40)\n      dup1\n      swap2\n      sub\n      swap1\n      return\n        /* \"testing.sol\":1726:1881  function destroySmartContract (address payable _to) public {\r... */\n    tag_4:\n      tag_18\n      0x04\n      dup1\n      calldatasize\n      sub\n      dup2\n      add\n      swap1\n      tag_19\n      swap2\n      swap1\n      tag_20\n      jump\t// in\n    tag_19:\n      tag_21\n      jump\t// in\n    tag_18:\n      stop\n        /* \"testing.sol\":333:352  uint256 public var2 */\n    tag_5:\n      tag_22\n      tag_23\n      jump\t// in\n    tag_22:\n      mload(0x40)\n      tag_24\n      swap2\n      swap1\n      tag_17\n      jump\t// in\n    tag_24:\n      mload(0x40)\n      dup1\n      swap2\n      sub\n      swap1\n      return\n        /* \"testing.sol\":307:326  uint256 public var1 */\n    tag_6:\n      tag_25\n      tag_26\n      jump\t// in\n    tag_25:\n      mload(0x40)\n      tag_27\n      swap2\n      swap1\n      tag_17\n      jump\t// in\n    tag_27:\n      mload(0x40)\n      dup1\n      swap2\n      sub\n      swap1\n      return\n        /* \"testing.sol\":1282:1350  function modSet(uint _mod) public\r... */\n    tag_7:\n      tag_28\n      0x04\n      dup1\n      calldatasize\n      sub\n      dup2\n      add\n      swap1\n      tag_29\n      swap2\n      swap1\n      tag_30\n      jump\t// in\n    tag_29:\n      tag_31\n      jump\t// in\n    tag_28:\n      stop\n        /* \"testing.sol\":810:901  function getOwner(\r... */\n    tag_8:\n      tag_32\n      tag_33\n      jump\t// in\n    tag_32:\n      mload(0x40)\n      tag_34\n      swap2\n      swap1\n      tag_35\n      jump\t// in\n    tag_34:\n      mload(0x40)\n      dup1\n      swap2\n      sub\n      swap1\n      return\n        /* \"testing.sol\":608:697  function showOwner() public view returns(address){\r... */\n    tag_9:\n      tag_36\n      tag_37\n      jump\t// in\n    tag_36:\n      mload(0x40)\n      tag_38\n      swap2\n      swap1\n      tag_35\n      jump\t// in\n    tag_38:\n      mload(0x40)\n      dup1\n      swap2\n      sub\n      swap1\n      return\n        /* \"testing.sol\":1200:1272  function var2Set(uint _var2) public\r... */\n    tag_10:\n      tag_39\n      0x04\n      dup1\n      calldatasize\n      sub\n      dup2\n      add\n      swap1\n      tag_40\n      swap2\n      swap1\n      tag_30\n      jump\t// in\n    tag_40:\n      tag_41\n      jump\t// in\n    tag_39:\n      stop\n        /* \"testing.sol\":1395:1502  function addition() public view returns(uint){\r... */\n    tag_11:\n      tag_42\n      tag_43\n      jump\t// in\n    tag_42:\n      mload(0x40)\n      tag_44\n      swap2\n      swap1\n      tag_17\n      jump\t// in\n    tag_44:\n      mload(0x40)\n      dup1\n      swap2\n      sub\n      swap1\n      return\n        /* \"testing.sol\":1007:1079  function var1Set(uint _var1) public\r... */\n    tag_12:\n      tag_45\n      0x04\n      dup1\n      calldatasize\n      sub\n      dup2\n      add\n      swap1\n      tag_46\n      swap2\n      swap1\n      tag_30\n      jump\t// in\n    tag_46:\n      tag_47\n      jump\t// in\n    tag_45:\n      stop\n        /* \"testing.sol\":360:378  uint256 public mod */\n    tag_15:\n      sload(0x03)\n      dup2\n      jump\t// out\n        /* \"testing.sol\":1726:1881  function destroySmartContract (address payable _to) public {\r... */\n    tag_21:\n        /* \"testing.sol\":1818:1823  owner */\n      0x00\n      dup1\n      sload\n      swap1\n      0x0100\n      exp\n      swap1\n      div\n      0xffffffffffffffffffffffffffffffffffffffff\n      and\n        /* \"testing.sol\":1804:1823  msg.sender == owner */\n      0xffffffffffffffffffffffffffffffffffffffff\n      and\n        /* \"testing.sol\":1804:1814  msg.sender */\n      caller\n        /* \"testing.sol\":1804:1823  msg.sender == owner */\n      0xffffffffffffffffffffffffffffffffffffffff\n      and\n      eq\n        /* \"testing.sol\":1796:1845  require(msg.sender == owner, \"You are not OWNER\") */\n      tag_49\n      jumpi\n      mload(0x40)\n      0x08c379a000000000000000000000000000000000000000000000000000000000\n      dup2\n      mstore\n      0x04\n      add\n      tag_50\n      swap1\n      tag_51\n      jump\t// in\n    tag_50:\n      mload(0x40)\n      dup1\n      swap2\n      sub\n      swap1\n      revert\n    tag_49:\n        /* \"testing.sol\":1869:1872  _to */\n      dup1\n        /* \"testing.sol\":1856:1873  selfdestruct(_to) */\n      0xffffffffffffffffffffffffffffffffffffffff\n      and\n      selfdestruct\n        /* \"testing.sol\":333:352  uint256 public var2 */\n    tag_23:\n      sload(0x02)\n      dup2\n      jump\t// out\n        /* \"testing.sol\":307:326  uint256 public var1 */\n    tag_26:\n      sload(0x01)\n      dup2\n      jump\t// out\n        /* \"testing.sol\":1282:1350  function modSet(uint _mod) public\r... */\n    tag_31:\n        /* \"testing.sol\":1338:1342  _mod */\n      dup1\n        /* \"testing.sol\":1332:1335  mod */\n      0x03\n        /* \"testing.sol\":1332:1342  mod = _mod */\n      dup2\n      swap1\n      sstore\n      pop\n        /* \"testing.sol\":1282:1350  function modSet(uint _mod) public\r... */\n      pop\n      jump\t// out\n        /* \"testing.sol\":810:901  function getOwner(\r... */\n    tag_33:\n        /* \"testing.sol\":857:864  address */\n      0x00\n        /* \"testing.sol\":888:893  owner */\n      dup1\n      0x00\n      swap1\n      sload\n      swap1\n      0x0100\n      exp\n      swap1\n      div\n      0xffffffffffffffffffffffffffffffffffffffff\n      and\n        /* \"testing.sol\":881:893  return owner */\n      swap1\n      pop\n        /* \"testing.sol\":810:901  function getOwner(\r... */\n      swap1\n      jump\t// out\n        /* \"testing.sol\":608:697  function showOwner() public view returns(address){\r... */\n    tag_37:\n        /* \"testing.sol\":649:656  address */\n      0x00\n        /* \"testing.sol\":683:688  owner */\n      dup1\n      0x00\n      swap1\n      sload\n      swap1\n      0x0100\n      exp\n      swap1\n      div\n      0xffffffffffffffffffffffffffffffffffffffff\n      and\n        /* \"testing.sol\":668:689  return address(owner) */\n      swap1\n      pop\n        /* \"testing.sol\":608:697  function showOwner() public view returns(address){\r... */\n      swap1\n      jump\t// out\n        /* \"testing.sol\":1200:1272  function var2Set(uint _var2) public\r... */\n    tag_41:\n        /* \"testing.sol\":1259:1264  _var2 */\n      dup1\n        /* \"testing.sol\":1252:1256  var2 */\n      0x02\n        /* \"testing.sol\":1252:1264  var2 = _var2 */\n      dup2\n      swap1\n      sstore\n      pop\n        /* \"testing.sol\":1200:1272  function var2Set(uint _var2) public\r... */\n      pop\n      jump\t// out\n        /* \"testing.sol\":1395:1502  function addition() public view returns(uint){\r... */\n    tag_43:\n        /* \"testing.sol\":1435:1439  uint */\n      0x00\n        /* \"testing.sol\":1451:1459  uint sum */\n      dup1\n        /* \"testing.sol\":1469:1473  var2 */\n      sload(0x02)\n        /* \"testing.sol\":1462:1466  var1 */\n      sload(0x01)\n        /* \"testing.sol\":1462:1473  var1 + var2 */\n      tag_57\n      swap2\n      swap1\n      tag_58\n      jump\t// in\n    tag_57:\n        /* \"testing.sol\":1451:1473  uint sum = var1 + var2 */\n      swap1\n      pop\n        /* \"testing.sol\":1491:1494  sum */\n      dup1\n        /* \"testing.sol\":1484:1494  return sum */\n      swap2\n      pop\n      pop\n        /* \"testing.sol\":1395:1502  function addition() public view returns(uint){\r... */\n      swap1\n      jump\t// out\n        /* \"testing.sol\":1007:1079  function var1Set(uint _var1) public\r... */\n    tag_47:\n        /* \"testing.sol\":1066:1071  _var1 */\n      dup1\n        /* \"testing.sol\":1059:1063  var1 */\n      0x01\n        /* \"testing.sol\":1059:1071  var1 = _var1 */\n      dup2\n      swap1\n      sstore\n      pop\n        /* \"testing.sol\":1007:1079  function var1Set(uint _var1) public\r... */\n      pop\n      jump\t// out\n        /* \"#utility.yul\":7:162   */\n    tag_61:\n        /* \"#utility.yul\":61:66   */\n      0x00\n        /* \"#utility.yul\":99:105   */\n      dup2\n        /* \"#utility.yul\":86:106   */\n      calldataload\n        /* \"#utility.yul\":77:106   */\n      swap1\n      pop\n        /* \"#utility.yul\":115:156   */\n      tag_63\n        /* \"#utility.yul\":150:155   */\n      dup2\n        /* \"#utility.yul\":115:156   */\n      tag_64\n      jump\t// in\n    tag_63:\n        /* \"#utility.yul\":7:162   */\n      swap3\n      swap2\n      pop\n      pop\n      jump\t// out\n        /* \"#utility.yul\":168:307   */\n    tag_65:\n        /* \"#utility.yul\":214:219   */\n      0x00\n        /* \"#utility.yul\":252:258   */\n      dup2\n        /* \"#utility.yul\":239:259   */\n      calldataload\n        /* \"#utility.yul\":230:259   */\n      swap1\n      pop\n        /* \"#utility.yul\":268:301   */\n      tag_67\n        /* \"#utility.yul\":295:300   */\n      dup2\n        /* \"#utility.yul\":268:301   */\n      tag_68\n      jump\t// in\n    tag_67:\n        /* \"#utility.yul\":168:307   */\n      swap3\n      swap2\n      pop\n      pop\n      jump\t// out\n        /* \"#utility.yul\":313:658   */\n    tag_20:\n        /* \"#utility.yul\":380:386   */\n      0x00\n        /* \"#utility.yul\":429:431   */\n      0x20\n        /* \"#utility.yul\":417:426   */\n      dup3\n        /* \"#utility.yul\":408:415   */\n      dup5\n        /* \"#utility.yul\":404:427   */\n      sub\n        /* \"#utility.yul\":400:432   */\n      slt\n        /* \"#utility.yul\":397:516   */\n      iszero\n      tag_70\n      jumpi\n        /* \"#utility.yul\":435:514   */\n      tag_71\n      tag_72\n      jump\t// in\n    tag_71:\n        /* \"#utility.yul\":397:516   */\n    tag_70:\n        /* \"#utility.yul\":555:556   */\n      0x00\n        /* \"#utility.yul\":580:641   */\n      tag_73\n        /* \"#utility.yul\":633:640   */\n      dup5\n        /* \"#utility.yul\":624:630   */\n      dup3\n        /* \"#utility.yul\":613:622   */\n      dup6\n        /* \"#utility.yul\":609:631   */\n      add\n        /* \"#utility.yul\":580:641   */\n      tag_61\n      jump\t// in\n    tag_73:\n        /* \"#utility.yul\":570:641   */\n      swap2\n      pop\n        /* \"#utility.yul\":526:651   */\n      pop\n        /* \"#utility.yul\":313:658   */\n      swap3\n      swap2\n      pop\n      pop\n      jump\t// out\n        /* \"#utility.yul\":664:993   */\n    tag_30:\n        /* \"#utility.yul\":723:729   */\n      0x00\n        /* \"#utility.yul\":772:774   */\n      0x20\n        /* \"#utility.yul\":760:769   */\n      dup3\n        /* \"#utility.yul\":751:758   */\n      dup5\n        /* \"#utility.yul\":747:770   */\n      sub\n        /* \"#utility.yul\":743:775   */\n      slt\n        /* \"#utility.yul\":740:859   */\n      iszero\n      tag_75\n      jumpi\n        /* \"#utility.yul\":778:857   */\n      tag_76\n      tag_72\n      jump\t// in\n    tag_76:\n        /* \"#utility.yul\":740:859   */\n    tag_75:\n        /* \"#utility.yul\":898:899   */\n      0x00\n        /* \"#utility.yul\":923:976   */\n      tag_77\n        /* \"#utility.yul\":968:975   */\n      dup5\n        /* \"#utility.yul\":959:965   */\n      dup3\n        /* \"#utility.yul\":948:957   */\n      dup6\n        /* \"#utility.yul\":944:966   */\n      add\n        /* \"#utility.yul\":923:976   */\n      tag_65\n      jump\t// in\n    tag_77:\n        /* \"#utility.yul\":913:976   */\n      swap2\n      pop\n        /* \"#utility.yul\":869:986   */\n      pop\n        /* \"#utility.yul\":664:993   */\n      swap3\n      swap2\n      pop\n      pop\n      jump\t// out\n        /* \"#utility.yul\":999:1117   */\n    tag_78:\n        /* \"#utility.yul\":1086:1110   */\n      tag_80\n        /* \"#utility.yul\":1104:1109   */\n      dup2\n        /* \"#utility.yul\":1086:1110   */\n      tag_81\n      jump\t// in\n    tag_80:\n        /* \"#utility.yul\":1081:1084   */\n      dup3\n        /* \"#utility.yul\":1074:1111   */\n      mstore\n        /* \"#utility.yul\":999:1117   */\n      pop\n      pop\n      jump\t// out\n        /* \"#utility.yul\":1123:1489   */\n    tag_82:\n        /* \"#utility.yul\":1265:1268   */\n      0x00\n        /* \"#utility.yul\":1286:1353   */\n      tag_84\n        /* \"#utility.yul\":1350:1352   */\n      0x11\n        /* \"#utility.yul\":1345:1348   */\n      dup4\n        /* \"#utility.yul\":1286:1353   */\n      tag_85\n      jump\t// in\n    tag_84:\n        /* \"#utility.yul\":1279:1353   */\n      swap2\n      pop\n        /* \"#utility.yul\":1362:1455   */\n      tag_86\n        /* \"#utility.yul\":1451:1454   */\n      dup3\n        /* \"#utility.yul\":1362:1455   */\n      tag_87\n      jump\t// in\n    tag_86:\n        /* \"#utility.yul\":1480:1482   */\n      0x20\n        /* \"#utility.yul\":1475:1478   */\n      dup3\n        /* \"#utility.yul\":1471:1483   */\n      add\n        /* \"#utility.yul\":1464:1483   */\n      swap1\n      pop\n        /* \"#utility.yul\":1123:1489   */\n      swap2\n      swap1\n      pop\n      jump\t// out\n        /* \"#utility.yul\":1495:1613   */\n    tag_88:\n        /* \"#utility.yul\":1582:1606   */\n      tag_90\n        /* \"#utility.yul\":1600:1605   */\n      dup2\n        /* \"#utility.yul\":1582:1606   */\n      tag_91\n      jump\t// in\n    tag_90:\n        /* \"#utility.yul\":1577:1580   */\n      dup3\n        /* \"#utility.yul\":1570:1607   */\n      mstore\n        /* \"#utility.yul\":1495:1613   */\n      pop\n      pop\n      jump\t// out\n        /* \"#utility.yul\":1619:1841   */\n    tag_35:\n        /* \"#utility.yul\":1712:1716   */\n      0x00\n        /* \"#utility.yul\":1750:1752   */\n      0x20\n        /* \"#utility.yul\":1739:1748   */\n      dup3\n        /* \"#utility.yul\":1735:1753   */\n      add\n        /* \"#utility.yul\":1727:1753   */\n      swap1\n      pop\n        /* \"#utility.yul\":1763:1834   */\n      tag_93\n        /* \"#utility.yul\":1831:1832   */\n      0x00\n        /* \"#utility.yul\":1820:1829   */\n      dup4\n        /* \"#utility.yul\":1816:1833   */\n      add\n        /* \"#utility.yul\":1807:1813   */\n      dup5\n        /* \"#utility.yul\":1763:1834   */\n      tag_78\n      jump\t// in\n    tag_93:\n        /* \"#utility.yul\":1619:1841   */\n      swap3\n      swap2\n      pop\n      pop\n      jump\t// out\n        /* \"#utility.yul\":1847:2266   */\n    tag_51:\n        /* \"#utility.yul\":2013:2017   */\n      0x00\n        /* \"#utility.yul\":2051:2053   */\n      0x20\n        /* \"#utility.yul\":2040:2049   */\n      dup3\n        /* \"#utility.yul\":2036:2054   */\n      add\n        /* \"#utility.yul\":2028:2054   */\n      swap1\n      pop\n        /* \"#utility.yul\":2100:2109   */\n      dup2\n        /* \"#utility.yul\":2094:2098   */\n      dup2\n        /* \"#utility.yul\":2090:2110   */\n      sub\n        /* \"#utility.yul\":2086:2087   */\n      0x00\n        /* \"#utility.yul\":2075:2084   */\n      dup4\n        /* \"#utility.yul\":2071:2088   */\n      add\n        /* \"#utility.yul\":2064:2111   */\n      mstore\n        /* \"#utility.yul\":2128:2259   */\n      tag_95\n        /* \"#utility.yul\":2254:2258   */\n      dup2\n        /* \"#utility.yul\":2128:2259   */\n      tag_82\n      jump\t// in\n    tag_95:\n        /* \"#utility.yul\":2120:2259   */\n      swap1\n      pop\n        /* \"#utility.yul\":1847:2266   */\n      swap2\n      swap1\n      pop\n      jump\t// out\n        /* \"#utility.yul\":2272:2494   */\n    tag_17:\n        /* \"#utility.yul\":2365:2369   */\n      0x00\n        /* \"#utility.yul\":2403:2405   */\n      0x20\n        /* \"#utility.yul\":2392:2401   */\n      dup3\n        /* \"#utility.yul\":2388:2406   */\n      add\n        /* \"#utility.yul\":2380:2406   */\n      swap1\n      pop\n        /* \"#utility.yul\":2416:2487   */\n      tag_97\n        /* \"#utility.yul\":2484:2485   */\n      0x00\n        /* \"#utility.yul\":2473:2482   */\n      dup4\n        /* \"#utility.yul\":2469:2486   */\n      add\n        /* \"#utility.yul\":2460:2466   */\n      dup5\n        /* \"#utility.yul\":2416:2487   */\n      tag_88\n      jump\t// in\n    tag_97:\n        /* \"#utility.yul\":2272:2494   */\n      swap3\n      swap2\n      pop\n      pop\n      jump\t// out\n        /* \"#utility.yul\":2581:2750   */\n    tag_85:\n        /* \"#utility.yul\":2665:2676   */\n      0x00\n        /* \"#utility.yul\":2699:2705   */\n      dup3\n        /* \"#utility.yul\":2694:2697   */\n      dup3\n        /* \"#utility.yul\":2687:2706   */\n      mstore\n        /* \"#utility.yul\":2739:2743   */\n      0x20\n        /* \"#utility.yul\":2734:2737   */\n      dup3\n        /* \"#utility.yul\":2730:2744   */\n      add\n        /* \"#utility.yul\":2715:2744   */\n      swap1\n      pop\n        /* \"#utility.yul\":2581:2750   */\n      swap3\n      swap2\n      pop\n      pop\n      jump\t// out\n        /* \"#utility.yul\":2756:3061   */\n    tag_58:\n        /* \"#utility.yul\":2796:2799   */\n      0x00\n        /* \"#utility.yul\":2815:2835   */\n      tag_102\n        /* \"#utility.yul\":2833:2834   */\n      dup3\n        /* \"#utility.yul\":2815:2835   */\n      tag_91\n      jump\t// in\n    tag_102:\n        /* \"#utility.yul\":2810:2835   */\n      swap2\n      pop\n        /* \"#utility.yul\":2849:2869   */\n      tag_103\n        /* \"#utility.yul\":2867:2868   */\n      dup4\n        /* \"#utility.yul\":2849:2869   */\n      tag_91\n      jump\t// in\n    tag_103:\n        /* \"#utility.yul\":2844:2869   */\n      swap3\n      pop\n        /* \"#utility.yul\":3003:3004   */\n      dup3\n        /* \"#utility.yul\":2935:3001   */\n      0xffffffffffffffffffffffffffffffffffffffffffffffffffffffffffffffff\n        /* \"#utility.yul\":2931:3005   */\n      sub\n        /* \"#utility.yul\":2928:2929   */\n      dup3\n        /* \"#utility.yul\":2925:3006   */\n      gt\n        /* \"#utility.yul\":2922:3029   */\n      iszero\n      tag_104\n      jumpi\n        /* \"#utility.yul\":3009:3027   */\n      tag_105\n      tag_106\n      jump\t// in\n    tag_105:\n        /* \"#utility.yul\":2922:3029   */\n    tag_104:\n        /* \"#utility.yul\":3053:3054   */\n      dup3\n        /* \"#utility.yul\":3050:3051   */\n      dup3\n        /* \"#utility.yul\":3046:3055   */\n      add\n        /* \"#utility.yul\":3039:3055   */\n      swap1\n      pop\n        /* \"#utility.yul\":2756:3061   */\n      swap3\n      swap2\n      pop\n      pop\n      jump\t// out\n        /* \"#utility.yul\":3067:3163   */\n    tag_81:\n        /* \"#utility.yul\":3104:3111   */\n      0x00\n        /* \"#utility.yul\":3133:3157   */\n      tag_108\n        /* \"#utility.yul\":3151:3156   */\n      dup3\n        /* \"#utility.yul\":3133:3157   */\n      tag_109\n      jump\t// in\n    tag_108:\n        /* \"#utility.yul\":3122:3157   */\n      swap1\n      pop\n        /* \"#utility.yul\":3067:3163   */\n      swap2\n      swap1\n      pop\n      jump\t// out\n        /* \"#utility.yul\":3169:3273   */\n    tag_110:\n        /* \"#utility.yul\":3214:3221   */\n      0x00\n        /* \"#utility.yul\":3243:3267   */\n      tag_112\n        /* \"#utility.yul\":3261:3266   */\n      dup3\n        /* \"#utility.yul\":3243:3267   */\n      tag_109\n      jump\t// in\n    tag_112:\n        /* \"#utility.yul\":3232:3267   */\n      swap1\n      pop\n        /* \"#utility.yul\":3169:3273   */\n      swap2\n      swap1\n      pop\n      jump\t// out\n        /* \"#utility.yul\":3279:3405   */\n    tag_109:\n        /* \"#utility.yul\":3316:3323   */\n      0x00\n        /* \"#utility.yul\":3356:3398   */\n      0xffffffffffffffffffffffffffffffffffffffff\n        /* \"#utility.yul\":3349:3354   */\n      dup3\n        /* \"#utility.yul\":3345:3399   */\n      and\n        /* \"#utility.yul\":3334:3399   */\n      swap1\n      pop\n        /* \"#utility.yul\":3279:3405   */\n      swap2\n      swap1\n      pop\n      jump\t// out\n        /* \"#utility.yul\":3411:3488   */\n    tag_91:\n        /* \"#utility.yul\":3448:3455   */\n      0x00\n        /* \"#utility.yul\":3477:3482   */\n      dup2\n        /* \"#utility.yul\":3466:3482   */\n      swap1\n      pop\n        /* \"#utility.yul\":3411:3488   */\n      swap2\n      swap1\n      pop\n      jump\t// out\n        /* \"#utility.yul\":3494:3674   */\n    tag_106:\n        /* \"#utility.yul\":3542:3619   */\n      0x4e487b7100000000000000000000000000000000000000000000000000000000\n        /* \"#utility.yul\":3539:3540   */\n      0x00\n        /* \"#utility.yul\":3532:3620   */\n      mstore\n        /* \"#utility.yul\":3639:3643   */\n      0x11\n        /* \"#utility.yul\":3636:3637   */\n      0x04\n        /* \"#utility.yul\":3629:3644   */\n      mstore\n        /* \"#utility.yul\":3663:3667   */\n      0x24\n        /* \"#utility.yul\":3660:3661   */\n      0x00\n        /* \"#utility.yul\":3653:3668   */\n      revert\n        /* \"#utility.yul\":3803:3920   */\n    tag_72:\n        /* \"#utility.yul\":3912:3913   */\n      0x00\n        /* \"#utility.yul\":3909:3910   */\n      dup1\n        /* \"#utility.yul\":3902:3914   */\n      revert\n        /* \"#utility.yul\":3926:4093   */\n    tag_87:\n        /* \"#utility.yul\":4066:4085   */\n      0x596f7520617265206e6f74204f574e4552000000000000000000000000000000\n        /* \"#utility.yul\":4062:4063   */\n      0x00\n        /* \"#utility.yul\":4054:4060   */\n      dup3\n        /* \"#utility.yul\":4050:4064   */\n      add\n        /* \"#utility.yul\":4043:4086   */\n      mstore\n        /* \"#utility.yul\":3926:4093   */\n      pop\n      jump\t// out\n        /* \"#utility.yul\":4099:4237   */\n    tag_64:\n        /* \"#utility.yul\":4180:4212   */\n      tag_121\n        /* \"#utility.yul\":4206:4211   */\n      dup2\n        /* \"#utility.yul\":4180:4212   */\n      tag_110\n      jump\t// in\n    tag_121:\n        /* \"#utility.yul\":4173:4178   */\n      dup2\n        /* \"#utility.yul\":4170:4213   */\n      eq\n        /* \"#utility.yul\":4160:4231   */\n      tag_122\n      jumpi\n        /* \"#utility.yul\":4227:4228   */\n      0x00\n        /* \"#utility.yul\":4224:4225   */\n      dup1\n        /* \"#utility.yul\":4217:4229   */\n      revert\n        /* \"#utility.yul\":4160:4231   */\n    tag_122:\n        /* \"#utility.yul\":4099:4237   */\n      pop\n      jump\t// out\n        /* \"#utility.yul\":4243:4365   */\n    tag_68:\n        /* \"#utility.yul\":4316:4340   */\n      tag_124\n        /* \"#utility.yul\":4334:4339   */\n      dup2\n        /* \"#utility.yul\":4316:4340   */\n      tag_91\n      jump\t// in\n    tag_124:\n        /* \"#utility.yul\":4309:4314   */\n      dup2\n        /* \"#utility.yul\":4306:4341   */\n      eq\n        /* \"#utility.yul\":4296:4359   */\n      tag_125\n      jumpi\n        /* \"#utility.yul\":4355:4356   */\n      0x00\n        /* \"#utility.yul\":4352:4353   */\n      dup1\n        /* \"#utility.yul\":4345:4357   */\n      revert\n        /* \"#utility.yul\":4296:4359   */\n    tag_125:\n        /* \"#utility.yul\":4243:4365   */\n      pop\n      jump\t// out\n\n    auxdata: 0xa2646970667358221220713c04ae85cf0ef808914c256a4b70706770aa7caae38aed7ca1659b86ed367964736f6c63430008070033\n}\n",
				"bytecode": {
					"linkReferences": {},
					"object": "608060405234801561001057600080fd5b50336000806101000a81548173ffffffffffffffffffffffffffffffffffffffff021916908373ffffffffffffffffffffffffffffffffffffffff16021790555061059d806100606000396000f3fe608060405234801561001057600080fd5b506004361061009e5760003560e01c8063893d20e811610066578063893d20e814610135578063ded9468814610153578063ebc531ff14610171578063ec5971281461018d578063fb3552fc146101ab5761009e565b80632986e054146100a357806339df43ff146100c1578063507aff57146100dd57806367e919b6146100fb5780637e9bf9ff14610119575b600080fd5b6100ab6101c7565b6040516100b8919061040c565b60405180910390f35b6100db60048036038101906100d69190610336565b6101cd565b005b6100e5610274565b6040516100f2919061040c565b60405180910390f35b61010361027a565b604051610110919061040c565b60405180910390f35b610133600480360381019061012e9190610363565b610280565b005b61013d61028a565b60405161014a91906103d1565b60405180910390f35b61015b6102b3565b60405161016891906103d1565b60405180910390f35b61018b60048036038101906101869190610363565b6102dc565b005b6101956102e6565b6040516101a2919061040c565b60405180910390f35b6101c560048036038101906101c09190610363565b610302565b005b60035481565b60008054906101000a900473ffffffffffffffffffffffffffffffffffffffff1673ffffffffffffffffffffffffffffffffffffffff163373ffffffffffffffffffffffffffffffffffffffff161461025b576040517f08c379a0000000000000000000000000000000000000000000000000000000008152600401610252906103ec565b60405180910390fd5b8073ffffffffffffffffffffffffffffffffffffffff16ff5b60025481565b60015481565b8060038190555050565b60008060009054906101000a900473ffffffffffffffffffffffffffffffffffffffff16905090565b60008060009054906101000a900473ffffffffffffffffffffffffffffffffffffffff16905090565b8060028190555050565b6000806002546001546102f99190610438565b90508091505090565b8060018190555050565b60008135905061031b81610539565b92915050565b60008135905061033081610550565b92915050565b60006020828403121561034c5761034b61050b565b5b600061035a8482850161030c565b91505092915050565b6000602082840312156103795761037861050b565b5b600061038784828501610321565b91505092915050565b6103998161048e565b82525050565b60006103ac601183610427565b91506103b782610510565b602082019050919050565b6103cb816104d2565b82525050565b60006020820190506103e66000830184610390565b92915050565b600060208201905081810360008301526104058161039f565b9050919050565b600060208201905061042160008301846103c2565b92915050565b600082825260208201905092915050565b6000610443826104d2565b915061044e836104d2565b9250827fffffffffffffffffffffffffffffffffffffffffffffffffffffffffffffffff03821115610483576104826104dc565b5b828201905092915050565b6000610499826104b2565b9050919050565b60006104ab826104b2565b9050919050565b600073ffffffffffffffffffffffffffffffffffffffff82169050919050565b6000819050919050565b7f4e487b7100000000000000000000000000000000000000000000000000000000600052601160045260246000fd5b600080fd5b7f596f7520617265206e6f74204f574e4552000000000000000000000000000000600082015250565b610542816104a0565b811461054d57600080fd5b50565b610559816104d2565b811461056457600080fd5b5056fea2646970667358221220713c04ae85cf0ef808914c256a4b70706770aa7caae38aed7ca1659b86ed367964736f6c63430008070033",
					"opcodes": "PUSH1 0x80 PUSH1 0x40 MSTORE CALLVALUE DUP1 ISZERO PUSH2 0x10 JUMPI PUSH1 0x0 DUP1 REVERT JUMPDEST POP CALLER PUSH1 0x0 DUP1 PUSH2 0x100 EXP DUP2 SLOAD DUP2 PUSH20 0xFFFFFFFFFFFFFFFFFFFFFFFFFFFFFFFFFFFFFFFF MUL NOT AND SWAP1 DUP4 PUSH20 0xFFFFFFFFFFFFFFFFFFFFFFFFFFFFFFFFFFFFFFFF AND MUL OR SWAP1 SSTORE POP PUSH2 0x59D DUP1 PUSH2 0x60 PUSH1 0x0 CODECOPY PUSH1 0x0 RETURN INVALID PUSH1 0x80 PUSH1 0x40 MSTORE CALLVALUE DUP1 ISZERO PUSH2 0x10 JUMPI PUSH1 0x0 DUP1 REVERT JUMPDEST POP PUSH1 0x4 CALLDATASIZE LT PUSH2 0x9E JUMPI PUSH1 0x0 CALLDATALOAD PUSH1 0xE0 SHR DUP1 PUSH4 0x893D20E8 GT PUSH2 0x66 JUMPI DUP1 PUSH4 0x893D20E8 EQ PUSH2 0x135 JUMPI DUP1 PUSH4 0xDED94688 EQ PUSH2 0x153 JUMPI DUP1 PUSH4 0xEBC531FF EQ PUSH2 0x171 JUMPI DUP1 PUSH4 0xEC597128 EQ PUSH2 0x18D JUMPI DUP1 PUSH4 0xFB3552FC EQ PUSH2 0x1AB JUMPI PUSH2 0x9E JUMP JUMPDEST DUP1 PUSH4 0x2986E054 EQ PUSH2 0xA3 JUMPI DUP1 PUSH4 0x39DF43FF EQ PUSH2 0xC1 JUMPI DUP1 PUSH4 0x507AFF57 EQ PUSH2 0xDD JUMPI DUP1 PUSH4 0x67E919B6 EQ PUSH2 0xFB JUMPI DUP1 PUSH4 0x7E9BF9FF EQ PUSH2 0x119 JUMPI JUMPDEST PUSH1 0x0 DUP1 REVERT JUMPDEST PUSH2 0xAB PUSH2 0x1C7 JUMP JUMPDEST PUSH1 0x40 MLOAD PUSH2 0xB8 SWAP2 SWAP1 PUSH2 0x40C JUMP JUMPDEST PUSH1 0x40 MLOAD DUP1 SWAP2 SUB SWAP1 RETURN JUMPDEST PUSH2 0xDB PUSH1 0x4 DUP1 CALLDATASIZE SUB DUP2 ADD SWAP1 PUSH2 0xD6 SWAP2 SWAP1 PUSH2 0x336 JUMP JUMPDEST PUSH2 0x1CD JUMP JUMPDEST STOP JUMPDEST PUSH2 0xE5 PUSH2 0x274 JUMP JUMPDEST PUSH1 0x40 MLOAD PUSH2 0xF2 SWAP2 SWAP1 PUSH2 0x40C JUMP JUMPDEST PUSH1 0x40 MLOAD DUP1 SWAP2 SUB SWAP1 RETURN JUMPDEST PUSH2 0x103 PUSH2 0x27A JUMP JUMPDEST PUSH1 0x40 MLOAD PUSH2 0x110 SWAP2 SWAP1 PUSH2 0x40C JUMP JUMPDEST PUSH1 0x40 MLOAD DUP1 SWAP2 SUB SWAP1 RETURN JUMPDEST PUSH2 0x133 PUSH1 0x4 DUP1 CALLDATASIZE SUB DUP2 ADD SWAP1 PUSH2 0x12E SWAP2 SWAP1 PUSH2 0x363 JUMP JUMPDEST PUSH2 0x280 JUMP JUMPDEST STOP JUMPDEST PUSH2 0x13D PUSH2 0x28A JUMP JUMPDEST PUSH1 0x40 MLOAD PUSH2 0x14A SWAP2 SWAP1 PUSH2 0x3D1 JUMP JUMPDEST PUSH1 0x40 MLOAD DUP1 SWAP2 SUB SWAP1 RETURN JUMPDEST PUSH2 0x15B PUSH2 0x2B3 JUMP JUMPDEST PUSH1 0x40 MLOAD PUSH2 0x168 SWAP2 SWAP1 PUSH2 0x3D1 JUMP JUMPDEST PUSH1 0x40 MLOAD DUP1 SWAP2 SUB SWAP1 RETURN JUMPDEST PUSH2 0x18B PUSH1 0x4 DUP1 CALLDATASIZE SUB DUP2 ADD SWAP1 PUSH2 0x186 SWAP2 SWAP1 PUSH2 0x363 JUMP JUMPDEST PUSH2 0x2DC JUMP JUMPDEST STOP JUMPDEST PUSH2 0x195 PUSH2 0x2E6 JUMP JUMPDEST PUSH1 0x40 MLOAD PUSH2 0x1A2 SWAP2 SWAP1 PUSH2 0x40C JUMP JUMPDEST PUSH1 0x40 MLOAD DUP1 SWAP2 SUB SWAP1 RETURN JUMPDEST PUSH2 0x1C5 PUSH1 0x4 DUP1 CALLDATASIZE SUB DUP2 ADD SWAP1 PUSH2 0x1C0 SWAP2 SWAP1 PUSH2 0x363 JUMP JUMPDEST PUSH2 0x302 JUMP JUMPDEST STOP JUMPDEST PUSH1 0x3 SLOAD DUP2 JUMP JUMPDEST PUSH1 0x0 DUP1 SLOAD SWAP1 PUSH2 0x100 EXP SWAP1 DIV PUSH20 0xFFFFFFFFFFFFFFFFFFFFFFFFFFFFFFFFFFFFFFFF AND PUSH20 0xFFFFFFFFFFFFFFFFFFFFFFFFFFFFFFFFFFFFFFFF AND CALLER PUSH20 0xFFFFFFFFFFFFFFFFFFFFFFFFFFFFFFFFFFFFFFFF AND EQ PUSH2 0x25B JUMPI PUSH1 0x40 MLOAD PUSH32 0x8C379A000000000000000000000000000000000000000000000000000000000 DUP2 MSTORE PUSH1 0x4 ADD PUSH2 0x252 SWAP1 PUSH2 0x3EC JUMP JUMPDEST PUSH1 0x40 MLOAD DUP1 SWAP2 SUB SWAP1 REVERT JUMPDEST DUP1 PUSH20 0xFFFFFFFFFFFFFFFFFFFFFFFFFFFFFFFFFFFFFFFF AND SELFDESTRUCT JUMPDEST PUSH1 0x2 SLOAD DUP2 JUMP JUMPDEST PUSH1 0x1 SLOAD DUP2 JUMP JUMPDEST DUP1 PUSH1 0x3 DUP2 SWAP1 SSTORE POP POP JUMP JUMPDEST PUSH1 0x0 DUP1 PUSH1 0x0 SWAP1 SLOAD SWAP1 PUSH2 0x100 EXP SWAP1 DIV PUSH20 0xFFFFFFFFFFFFFFFFFFFFFFFFFFFFFFFFFFFFFFFF AND SWAP1 POP SWAP1 JUMP JUMPDEST PUSH1 0x0 DUP1 PUSH1 0x0 SWAP1 SLOAD SWAP1 PUSH2 0x100 EXP SWAP1 DIV PUSH20 0xFFFFFFFFFFFFFFFFFFFFFFFFFFFFFFFFFFFFFFFF AND SWAP1 POP SWAP1 JUMP JUMPDEST DUP1 PUSH1 0x2 DUP2 SWAP1 SSTORE POP POP JUMP JUMPDEST PUSH1 0x0 DUP1 PUSH1 0x2 SLOAD PUSH1 0x1 SLOAD PUSH2 0x2F9 SWAP2 SWAP1 PUSH2 0x438 JUMP JUMPDEST SWAP1 POP DUP1 SWAP2 POP POP SWAP1 JUMP JUMPDEST DUP1 PUSH1 0x1 DUP2 SWAP1 SSTORE POP POP JUMP JUMPDEST PUSH1 0x0 DUP2 CALLDATALOAD SWAP1 POP PUSH2 0x31B DUP2 PUSH2 0x539 JUMP JUMPDEST SWAP3 SWAP2 POP POP JUMP JUMPDEST PUSH1 0x0 DUP2 CALLDATALOAD SWAP1 POP PUSH2 0x330 DUP2 PUSH2 0x550 JUMP JUMPDEST SWAP3 SWAP2 POP POP JUMP JUMPDEST PUSH1 0x0 PUSH1 0x20 DUP3 DUP5 SUB SLT ISZERO PUSH2 0x34C JUMPI PUSH2 0x34B PUSH2 0x50B JUMP JUMPDEST JUMPDEST PUSH1 0x0 PUSH2 0x35A DUP5 DUP3 DUP6 ADD PUSH2 0x30C JUMP JUMPDEST SWAP2 POP POP SWAP3 SWAP2 POP POP JUMP JUMPDEST PUSH1 0x0 PUSH1 0x20 DUP3 DUP5 SUB SLT ISZERO PUSH2 0x379 JUMPI PUSH2 0x378 PUSH2 0x50B JUMP JUMPDEST JUMPDEST PUSH1 0x0 PUSH2 0x387 DUP5 DUP3 DUP6 ADD PUSH2 0x321 JUMP JUMPDEST SWAP2 POP POP SWAP3 SWAP2 POP POP JUMP JUMPDEST PUSH2 0x399 DUP2 PUSH2 0x48E JUMP JUMPDEST DUP3 MSTORE POP POP JUMP JUMPDEST PUSH1 0x0 PUSH2 0x3AC PUSH1 0x11 DUP4 PUSH2 0x427 JUMP JUMPDEST SWAP2 POP PUSH2 0x3B7 DUP3 PUSH2 0x510 JUMP JUMPDEST PUSH1 0x20 DUP3 ADD SWAP1 POP SWAP2 SWAP1 POP JUMP JUMPDEST PUSH2 0x3CB DUP2 PUSH2 0x4D2 JUMP JUMPDEST DUP3 MSTORE POP POP JUMP JUMPDEST PUSH1 0x0 PUSH1 0x20 DUP3 ADD SWAP1 POP PUSH2 0x3E6 PUSH1 0x0 DUP4 ADD DUP5 PUSH2 0x390 JUMP JUMPDEST SWAP3 SWAP2 POP POP JUMP JUMPDEST PUSH1 0x0 PUSH1 0x20 DUP3 ADD SWAP1 POP DUP2 DUP2 SUB PUSH1 0x0 DUP4 ADD MSTORE PUSH2 0x405 DUP2 PUSH2 0x39F JUMP JUMPDEST SWAP1 POP SWAP2 SWAP1 POP JUMP JUMPDEST PUSH1 0x0 PUSH1 0x20 DUP3 ADD SWAP1 POP PUSH2 0x421 PUSH1 0x0 DUP4 ADD DUP5 PUSH2 0x3C2 JUMP JUMPDEST SWAP3 SWAP2 POP POP JUMP JUMPDEST PUSH1 0x0 DUP3 DUP3 MSTORE PUSH1 0x20 DUP3 ADD SWAP1 POP SWAP3 SWAP2 POP POP JUMP JUMPDEST PUSH1 0x0 PUSH2 0x443 DUP3 PUSH2 0x4D2 JUMP JUMPDEST SWAP2 POP PUSH2 0x44E DUP4 PUSH2 0x4D2 JUMP JUMPDEST SWAP3 POP DUP3 PUSH32 0xFFFFFFFFFFFFFFFFFFFFFFFFFFFFFFFFFFFFFFFFFFFFFFFFFFFFFFFFFFFFFFFF SUB DUP3 GT ISZERO PUSH2 0x483 JUMPI PUSH2 0x482 PUSH2 0x4DC JUMP JUMPDEST JUMPDEST DUP3 DUP3 ADD SWAP1 POP SWAP3 SWAP2 POP POP JUMP JUMPDEST PUSH1 0x0 PUSH2 0x499 DUP3 PUSH2 0x4B2 JUMP JUMPDEST SWAP1 POP SWAP2 SWAP1 POP JUMP JUMPDEST PUSH1 0x0 PUSH2 0x4AB DUP3 PUSH2 0x4B2 JUMP JUMPDEST SWAP1 POP SWAP2 SWAP1 POP JUMP JUMPDEST PUSH1 0x0 PUSH20 0xFFFFFFFFFFFFFFFFFFFFFFFFFFFFFFFFFFFFFFFF DUP3 AND SWAP1 POP SWAP2 SWAP1 POP JUMP JUMPDEST PUSH1 0x0 DUP2 SWAP1 POP SWAP2 SWAP1 POP JUMP JUMPDEST PUSH32 0x4E487B7100000000000000000000000000000000000000000000000000000000 PUSH1 0x0 MSTORE PUSH1 0x11 PUSH1 0x4 MSTORE PUSH1 0x24 PUSH1 0x0 REVERT JUMPDEST PUSH1 0x0 DUP1 REVERT JUMPDEST PUSH32 0x596F7520617265206E6F74204F574E4552000000000000000000000000000000 PUSH1 0x0 DUP3 ADD MSTORE POP JUMP JUMPDEST PUSH2 0x542 DUP2 PUSH2 0x4A0 JUMP JUMPDEST DUP2 EQ PUSH2 0x54D JUMPI PUSH1 0x0 DUP1 REVERT JUMPDEST POP JUMP JUMPDEST PUSH2 0x559 DUP2 PUSH2 0x4D2 JUMP JUMPDEST DUP2 EQ PUSH2 0x564 JUMPI PUSH1 0x0 DUP1 REVERT JUMPDEST POP JUMP INVALID LOG2 PUSH5 0x6970667358 0x22 SLT KECCAK256 PUSH18 0x3C04AE85CF0EF808914C256A4B70706770AA PUSH29 0xAAE38AED7CA1659B86ED367964736F6C63430008070033000000000000 "
				},
				"gasEstimates": {
					"creation": {
						"codeDepositCost": "287400",
						"executionCost": "24590",
						"totalCost": "311990"
					},
					"external": {
						"addition()": "infinite",
						"destroySmartContract(address)": "30243",
						"getOwner()": "2522",
						"mod()": "2430",
						"modSet(uint256)": "22609",
						"showOwner()": "2544",
						"var1()": "2496",
						"var1Set(uint256)": "22608",
						"var2()": "2474",
						"var2Set(uint256)": "22564"
					}
				},
				"methodIdentifiers": {
					"addition()": "ec597128",
					"destroySmartContract(address)": "39df43ff",
					"getOwner()": "893d20e8",
					"mod()": "2986e054",
					"modSet(uint256)": "7e9bf9ff",
					"showOwner()": "ded94688",
					"var1()": "67e919b6",
					"var1Set(uint256)": "fb3552fc",
					"var2()": "507aff57",
					"var2Set(uint256)": "ebc531ff"
				}
			},
			"storageLayout": {
				"storage": [
					{
						"astId": 3,
						"contract": "testing.sol:StartStopUpdateExample",
						"label": "owner",
						"offset": 0,
						"slot": "0",
						"type": "t_address"
					},
					{
						"astId": 5,
						"contract": "testing.sol:StartStopUpdateExample",
						"label": "var1",
						"offset": 0,
						"slot": "1",
						"type": "t_uint256"
					},
					{
						"astId": 7,
						"contract": "testing.sol:StartStopUpdateExample",
						"label": "var2",
						"offset": 0,
						"slot": "2",
						"type": "t_uint256"
					},
					{
						"astId": 9,
						"contract": "testing.sol:StartStopUpdateExample",
						"label": "mod",
						"offset": 0,
						"slot": "3",
						"type": "t_uint256"
					}
				],
				"types": {
					"t_address": {
						"encoding": "inplace",
						"label": "address",
						"numberOfBytes": "20"
					},
					"t_uint256": {
						"encoding": "inplace",
						"label": "uint256",
						"numberOfBytes": "32"
					}
				}
			},
			"userdoc": {
				"kind": "user",
				"methods": {},
				"version": 1
			}
		}
	}
}