{
	"testing.sol": {
		"StartStopUpdateExample": {
			"abi": [
				{
					"inputs": [],
					"stateMutability": "nonpayable",
					"type": "constructor"
				},
				{
					"inputs": [],
					"name": "addition",
					"outputs": [
						{
							"internalType": "uint256",
							"name": "",
							"type": "uint256"
						}
					],
					"stateMutability": "view",
					"type": "function"
				},
				{
					"inputs": [
						{
							"internalType": "address payable",
							"name": "_to",
							"type": "address"
						}
					],
					"name": "destroySmartContract",
					"outputs": [],
					"stateMutability": "nonpayable",
					"type": "function"
				},
				{
					"inputs": [],
					"name": "showOwner",
					"outputs": [
						{
							"internalType": "address",
							"name": "",
							"type": "address"
						}
					],
					"stateMutability": "view",
					"type": "function"
				},
				{
					"inputs": [],
					"name": "var1",
					"outputs": [
						{
							"internalType": "uint256",
							"name": "",
							"type": "uint256"
						}
					],
					"stateMutability": "view",
					"type": "function"
				},
				{
					"inputs": [
						{
							"internalType": "uint256",
							"name": "_var1",
							"type": "uint256"
						}
					],
					"name": "var1Set",
					"outputs": [],
					"stateMutability": "nonpayable",
					"type": "function"
				},
				{
					"inputs": [],
					"name": "var2",
					"outputs": [
						{
							"internalType": "uint256",
							"name": "",
							"type": "uint256"
						}
					],
					"stateMutability": "view",
					"type": "function"
				}
			],
			"devdoc": {
				"kind": "dev",
				"methods": {},
				"version": 1
			},
			"evm": {
				"assembly": "    /* \"testing.sol\":70:1610  contract StartStopUpdateExample {\r... */\n  mstore(0x40, 0x80)\n    /* \"testing.sol\":364:567  constructor() public {\r... */\n  callvalue\n  dup1\n  iszero\n  tag_1\n  jumpi\n  0x00\n  dup1\n  revert\ntag_1:\n  pop\n    /* \"testing.sol\":549:559  msg.sender */\n  caller\n    /* \"testing.sol\":541:546  owner */\n  0x00\n  dup1\n    /* \"testing.sol\":541:559  owner = msg.sender */\n  0x0100\n  exp\n  dup2\n  sload\n  dup2\n  0xffffffffffffffffffffffffffffffffffffffff\n  mul\n  not\n  and\n  swap1\n  dup4\n  0xffffffffffffffffffffffffffffffffffffffff\n  and\n  mul\n  or\n  swap1\n  sstore\n  pop\n    /* \"testing.sol\":70:1610  contract StartStopUpdateExample {\r... */\n  dataSize(sub_0)\n  dup1\n  dataOffset(sub_0)\n  0x00\n  codecopy\n  0x00\n  return\nstop\n\nsub_0: assembly {\n        /* \"testing.sol\":70:1610  contract StartStopUpdateExample {\r... */\n      mstore(0x40, 0x80)\n      callvalue\n      dup1\n      iszero\n      tag_1\n      jumpi\n      0x00\n      dup1\n      revert\n    tag_1:\n      pop\n      jumpi(tag_2, lt(calldatasize, 0x04))\n      shr(0xe0, calldataload(0x00))\n      dup1\n      0x39df43ff\n      eq\n      tag_3\n      jumpi\n      dup1\n      0x507aff57\n      eq\n      tag_4\n      jumpi\n      dup1\n      0x67e919b6\n      eq\n      tag_5\n      jumpi\n      dup1\n      0xded94688\n      eq\n      tag_6\n      jumpi\n      dup1\n      0xec597128\n      eq\n      tag_7\n      jumpi\n      dup1\n      0xfb3552fc\n      eq\n      tag_8\n      jumpi\n    tag_2:\n      0x00\n      dup1\n      revert\n        /* \"testing.sol\":1446:1601  function destroySmartContract (address payable _to) public {\r... */\n    tag_3:\n      tag_9\n      0x04\n      dup1\n      calldatasize\n      sub\n      dup2\n      add\n      swap1\n      tag_10\n      swap2\n      swap1\n      tag_11\n      jump\t// in\n    tag_10:\n      tag_12\n      jump\t// in\n    tag_9:\n      stop\n        /* \"testing.sol\":333:352  uint256 public var2 */\n    tag_4:\n      tag_13\n      tag_14\n      jump\t// in\n    tag_13:\n      mload(0x40)\n      tag_15\n      swap2\n      swap1\n      tag_16\n      jump\t// in\n    tag_15:\n      mload(0x40)\n      dup1\n      swap2\n      sub\n      swap1\n      return\n        /* \"testing.sol\":307:326  uint256 public var1 */\n    tag_5:\n      tag_17\n      tag_18\n      jump\t// in\n    tag_17:\n      mload(0x40)\n      tag_19\n      swap2\n      swap1\n      tag_16\n      jump\t// in\n    tag_19:\n      mload(0x40)\n      dup1\n      swap2\n      sub\n      swap1\n      return\n        /* \"testing.sol\":581:670  function showOwner() public view returns(address){\r... */\n    tag_6:\n      tag_20\n      tag_21\n      jump\t// in\n    tag_20:\n      mload(0x40)\n      tag_22\n      swap2\n      swap1\n      tag_23\n      jump\t// in\n    tag_22:\n      mload(0x40)\n      dup1\n      swap2\n      sub\n      swap1\n      return\n        /* \"testing.sol\":1115:1222  function addition() public view returns(uint){\r... */\n    tag_7:\n      tag_24\n      tag_25\n      jump\t// in\n    tag_24:\n      mload(0x40)\n      tag_26\n      swap2\n      swap1\n      tag_16\n      jump\t// in\n    tag_26:\n      mload(0x40)\n      dup1\n      swap2\n      sub\n      swap1\n      return\n        /* \"testing.sol\":883:955  function var1Set(uint _var1) public\r... */\n    tag_8:\n      tag_27\n      0x04\n      dup1\n      calldatasize\n      sub\n      dup2\n      add\n      swap1\n      tag_28\n      swap2\n      swap1\n      tag_29\n      jump\t// in\n    tag_28:\n      tag_30\n      jump\t// in\n    tag_27:\n      stop\n        /* \"testing.sol\":1446:1601  function destroySmartContract (address payable _to) public {\r... */\n    tag_12:\n        /* \"testing.sol\":1538:1543  owner */\n      0x00\n      dup1\n      sload\n      swap1\n      0x0100\n      exp\n      swap1\n      div\n      0xffffffffffffffffffffffffffffffffffffffff\n      and\n        /* \"testing.sol\":1524:1543  msg.sender == owner */\n      0xffffffffffffffffffffffffffffffffffffffff\n      and\n        /* \"testing.sol\":1524:1534  msg.sender */\n      caller\n        /* \"testing.sol\":1524:1543  msg.sender == owner */\n      0xffffffffffffffffffffffffffffffffffffffff\n      and\n      eq\n        /* \"testing.sol\":1516:1565  require(msg.sender == owner, \"You are not OWNER\") */\n      tag_32\n      jumpi\n      mload(0x40)\n      0x08c379a000000000000000000000000000000000000000000000000000000000\n      dup2\n      mstore\n      0x04\n      add\n      tag_33\n      swap1\n      tag_34\n      jump\t// in\n    tag_33:\n      mload(0x40)\n      dup1\n      swap2\n      sub\n      swap1\n      revert\n    tag_32:\n        /* \"testing.sol\":1589:1592  _to */\n      dup1\n        /* \"testing.sol\":1576:1593  selfdestruct(_to) */\n      0xffffffffffffffffffffffffffffffffffffffff\n      and\n      selfdestruct\n        /* \"testing.sol\":333:352  uint256 public var2 */\n    tag_14:\n      sload(0x02)\n      dup2\n      jump\t// out\n        /* \"testing.sol\":307:326  uint256 public var1 */\n    tag_18:\n      sload(0x01)\n      dup2\n      jump\t// out\n        /* \"testing.sol\":581:670  function showOwner() public view returns(address){\r... */\n    tag_21:\n        /* \"testing.sol\":622:629  address */\n      0x00\n        /* \"testing.sol\":656:661  owner */\n      dup1\n      0x00\n      swap1\n      sload\n      swap1\n      0x0100\n      exp\n      swap1\n      div\n      0xffffffffffffffffffffffffffffffffffffffff\n      and\n        /* \"testing.sol\":641:662  return address(owner) */\n      swap1\n      pop\n        /* \"testing.sol\":581:670  function showOwner() public view returns(address){\r... */\n      swap1\n      jump\t// out\n        /* \"testing.sol\":1115:1222  function addition() public view returns(uint){\r... */\n    tag_25:\n        /* \"testing.sol\":1155:1159  uint */\n      0x00\n        /* \"testing.sol\":1171:1179  uint sum */\n      dup1\n        /* \"testing.sol\":1189:1193  var2 */\n      sload(0x02)\n        /* \"testing.sol\":1182:1186  var1 */\n      sload(0x01)\n        /* \"testing.sol\":1182:1193  var1 + var2 */\n      tag_37\n      swap2\n      swap1\n      tag_38\n      jump\t// in\n    tag_37:\n        /* \"testing.sol\":1171:1193  uint sum = var1 + var2 */\n      swap1\n      pop\n        /* \"testing.sol\":1211:1214  sum */\n      dup1\n        /* \"testing.sol\":1204:1214  return sum */\n      swap2\n      pop\n      pop\n        /* \"testing.sol\":1115:1222  function addition() public view returns(uint){\r... */\n      swap1\n      jump\t// out\n        /* \"testing.sol\":883:955  function var1Set(uint _var1) public\r... */\n    tag_30:\n        /* \"testing.sol\":942:947  _var1 */\n      dup1\n        /* \"testing.sol\":935:939  var1 */\n      0x01\n        /* \"testing.sol\":935:947  var1 = _var1 */\n      dup2\n      swap1\n      sstore\n      pop\n        /* \"testing.sol\":883:955  function var1Set(uint _var1) public\r... */\n      pop\n      jump\t// out\n        /* \"#utility.yul\":7:162   */\n    tag_41:\n        /* \"#utility.yul\":61:66   */\n      0x00\n        /* \"#utility.yul\":99:105   */\n      dup2\n        /* \"#utility.yul\":86:106   */\n      calldataload\n        /* \"#utility.yul\":77:106   */\n      swap1\n      pop\n        /* \"#utility.yul\":115:156   */\n      tag_43\n        /* \"#utility.yul\":150:155   */\n      dup2\n        /* \"#utility.yul\":115:156   */\n      tag_44\n      jump\t// in\n    tag_43:\n        /* \"#utility.yul\":7:162   */\n      swap3\n      swap2\n      pop\n      pop\n      jump\t// out\n        /* \"#utility.yul\":168:307   */\n    tag_45:\n        /* \"#utility.yul\":214:219   */\n      0x00\n        /* \"#utility.yul\":252:258   */\n      dup2\n        /* \"#utility.yul\":239:259   */\n      calldataload\n        /* \"#utility.yul\":230:259   */\n      swap1\n      pop\n        /* \"#utility.yul\":268:301   */\n      tag_47\n        /* \"#utility.yul\":295:300   */\n      dup2\n        /* \"#utility.yul\":268:301   */\n      tag_48\n      jump\t// in\n    tag_47:\n        /* \"#utility.yul\":168:307   */\n      swap3\n      swap2\n      pop\n      pop\n      jump\t// out\n        /* \"#utility.yul\":313:658   */\n    tag_11:\n        /* \"#utility.yul\":380:386   */\n      0x00\n        /* \"#utility.yul\":429:431   */\n      0x20\n        /* \"#utility.yul\":417:426   */\n      dup3\n        /* \"#utility.yul\":408:415   */\n      dup5\n        /* \"#utility.yul\":404:427   */\n      sub\n        /* \"#utility.yul\":400:432   */\n      slt\n        /* \"#utility.yul\":397:516   */\n      iszero\n      tag_50\n      jumpi\n        /* \"#utility.yul\":435:514   */\n      tag_51\n      tag_52\n      jump\t// in\n    tag_51:\n        /* \"#utility.yul\":397:516   */\n    tag_50:\n        /* \"#utility.yul\":555:556   */\n      0x00\n        /* \"#utility.yul\":580:641   */\n      tag_53\n        /* \"#utility.yul\":633:640   */\n      dup5\n        /* \"#utility.yul\":624:630   */\n      dup3\n        /* \"#utility.yul\":613:622   */\n      dup6\n        /* \"#utility.yul\":609:631   */\n      add\n        /* \"#utility.yul\":580:641   */\n      tag_41\n      jump\t// in\n    tag_53:\n        /* \"#utility.yul\":570:641   */\n      swap2\n      pop\n        /* \"#utility.yul\":526:651   */\n      pop\n        /* \"#utility.yul\":313:658   */\n      swap3\n      swap2\n      pop\n      pop\n      jump\t// out\n        /* \"#utility.yul\":664:993   */\n    tag_29:\n        /* \"#utility.yul\":723:729   */\n      0x00\n        /* \"#utility.yul\":772:774   */\n      0x20\n        /* \"#utility.yul\":760:769   */\n      dup3\n        /* \"#utility.yul\":751:758   */\n      dup5\n        /* \"#utility.yul\":747:770   */\n      sub\n        /* \"#utility.yul\":743:775   */\n      slt\n        /* \"#utility.yul\":740:859   */\n      iszero\n      tag_55\n      jumpi\n        /* \"#utility.yul\":778:857   */\n      tag_56\n      tag_52\n      jump\t// in\n    tag_56:\n        /* \"#utility.yul\":740:859   */\n    tag_55:\n        /* \"#utility.yul\":898:899   */\n      0x00\n        /* \"#utility.yul\":923:976   */\n      tag_57\n        /* \"#utility.yul\":968:975   */\n      dup5\n        /* \"#utility.yul\":959:965   */\n      dup3\n        /* \"#utility.yul\":948:957   */\n      dup6\n        /* \"#utility.yul\":944:966   */\n      add\n        /* \"#utility.yul\":923:976   */\n      tag_45\n      jump\t// in\n    tag_57:\n        /* \"#utility.yul\":913:976   */\n      swap2\n      pop\n        /* \"#utility.yul\":869:986   */\n      pop\n        /* \"#utility.yul\":664:993   */\n      swap3\n      swap2\n      pop\n      pop\n      jump\t// out\n        /* \"#utility.yul\":999:1117   */\n    tag_58:\n        /* \"#utility.yul\":1086:1110   */\n      tag_60\n        /* \"#utility.yul\":1104:1109   */\n      dup2\n        /* \"#utility.yul\":1086:1110   */\n      tag_61\n      jump\t// in\n    tag_60:\n        /* \"#utility.yul\":1081:1084   */\n      dup3\n        /* \"#utility.yul\":1074:1111   */\n      mstore\n        /* \"#utility.yul\":999:1117   */\n      pop\n      pop\n      jump\t// out\n        /* \"#utility.yul\":1123:1489   */\n    tag_62:\n        /* \"#utility.yul\":1265:1268   */\n      0x00\n        /* \"#utility.yul\":1286:1353   */\n      tag_64\n        /* \"#utility.yul\":1350:1352   */\n      0x11\n        /* \"#utility.yul\":1345:1348   */\n      dup4\n        /* \"#utility.yul\":1286:1353   */\n      tag_65\n      jump\t// in\n    tag_64:\n        /* \"#utility.yul\":1279:1353   */\n      swap2\n      pop\n        /* \"#utility.yul\":1362:1455   */\n      tag_66\n        /* \"#utility.yul\":1451:1454   */\n      dup3\n        /* \"#utility.yul\":1362:1455   */\n      tag_67\n      jump\t// in\n    tag_66:\n        /* \"#utility.yul\":1480:1482   */\n      0x20\n        /* \"#utility.yul\":1475:1478   */\n      dup3\n        /* \"#utility.yul\":1471:1483   */\n      add\n        /* \"#utility.yul\":1464:1483   */\n      swap1\n      pop\n        /* \"#utility.yul\":1123:1489   */\n      swap2\n      swap1\n      pop\n      jump\t// out\n        /* \"#utility.yul\":1495:1613   */\n    tag_68:\n        /* \"#utility.yul\":1582:1606   */\n      tag_70\n        /* \"#utility.yul\":1600:1605   */\n      dup2\n        /* \"#utility.yul\":1582:1606   */\n      tag_71\n      jump\t// in\n    tag_70:\n        /* \"#utility.yul\":1577:1580   */\n      dup3\n        /* \"#utility.yul\":1570:1607   */\n      mstore\n        /* \"#utility.yul\":1495:1613   */\n      pop\n      pop\n      jump\t// out\n        /* \"#utility.yul\":1619:1841   */\n    tag_23:\n        /* \"#utility.yul\":1712:1716   */\n      0x00\n        /* \"#utility.yul\":1750:1752   */\n      0x20\n        /* \"#utility.yul\":1739:1748   */\n      dup3\n        /* \"#utility.yul\":1735:1753   */\n      add\n        /* \"#utility.yul\":1727:1753   */\n      swap1\n      pop\n        /* \"#utility.yul\":1763:1834   */\n      tag_73\n        /* \"#utility.yul\":1831:1832   */\n      0x00\n        /* \"#utility.yul\":1820:1829   */\n      dup4\n        /* \"#utility.yul\":1816:1833   */\n      add\n        /* \"#utility.yul\":1807:1813   */\n      dup5\n        /* \"#utility.yul\":1763:1834   */\n      tag_58\n      jump\t// in\n    tag_73:\n        /* \"#utility.yul\":1619:1841   */\n      swap3\n      swap2\n      pop\n      pop\n      jump\t// out\n        /* \"#utility.yul\":1847:2266   */\n    tag_34:\n        /* \"#utility.yul\":2013:2017   */\n      0x00\n        /* \"#utility.yul\":2051:2053   */\n      0x20\n        /* \"#utility.yul\":2040:2049   */\n      dup3\n        /* \"#utility.yul\":2036:2054   */\n      add\n        /* \"#utility.yul\":2028:2054   */\n      swap1\n      pop\n        /* \"#utility.yul\":2100:2109   */\n      dup2\n        /* \"#utility.yul\":2094:2098   */\n      dup2\n        /* \"#utility.yul\":2090:2110   */\n      sub\n        /* \"#utility.yul\":2086:2087   */\n      0x00\n        /* \"#utility.yul\":2075:2084   */\n      dup4\n        /* \"#utility.yul\":2071:2088   */\n      add\n        /* \"#utility.yul\":2064:2111   */\n      mstore\n        /* \"#utility.yul\":2128:2259   */\n      tag_75\n        /* \"#utility.yul\":2254:2258   */\n      dup2\n        /* \"#utility.yul\":2128:2259   */\n      tag_62\n      jump\t// in\n    tag_75:\n        /* \"#utility.yul\":2120:2259   */\n      swap1\n      pop\n        /* \"#utility.yul\":1847:2266   */\n      swap2\n      swap1\n      pop\n      jump\t// out\n        /* \"#utility.yul\":2272:2494   */\n    tag_16:\n        /* \"#utility.yul\":2365:2369   */\n      0x00\n        /* \"#utility.yul\":2403:2405   */\n      0x20\n        /* \"#utility.yul\":2392:2401   */\n      dup3\n        /* \"#utility.yul\":2388:2406   */\n      add\n        /* \"#utility.yul\":2380:2406   */\n      swap1\n      pop\n        /* \"#utility.yul\":2416:2487   */\n      tag_77\n        /* \"#utility.yul\":2484:2485   */\n      0x00\n        /* \"#utility.yul\":2473:2482   */\n      dup4\n        /* \"#utility.yul\":2469:2486   */\n      add\n        /* \"#utility.yul\":2460:2466   */\n      dup5\n        /* \"#utility.yul\":2416:2487   */\n      tag_68\n      jump\t// in\n    tag_77:\n        /* \"#utility.yul\":2272:2494   */\n      swap3\n      swap2\n      pop\n      pop\n      jump\t// out\n        /* \"#utility.yul\":2581:2750   */\n    tag_65:\n        /* \"#utility.yul\":2665:2676   */\n      0x00\n        /* \"#utility.yul\":2699:2705   */\n      dup3\n        /* \"#utility.yul\":2694:2697   */\n      dup3\n        /* \"#utility.yul\":2687:2706   */\n      mstore\n        /* \"#utility.yul\":2739:2743   */\n      0x20\n        /* \"#utility.yul\":2734:2737   */\n      dup3\n        /* \"#utility.yul\":2730:2744   */\n      add\n        /* \"#utility.yul\":2715:2744   */\n      swap1\n      pop\n        /* \"#utility.yul\":2581:2750   */\n      swap3\n      swap2\n      pop\n      pop\n      jump\t// out\n        /* \"#utility.yul\":2756:3061   */\n    tag_38:\n        /* \"#utility.yul\":2796:2799   */\n      0x00\n        /* \"#utility.yul\":2815:2835   */\n      tag_82\n        /* \"#utility.yul\":2833:2834   */\n      dup3\n        /* \"#utility.yul\":2815:2835   */\n      tag_71\n      jump\t// in\n    tag_82:\n        /* \"#utility.yul\":2810:2835   */\n      swap2\n      pop\n        /* \"#utility.yul\":2849:2869   */\n      tag_83\n        /* \"#utility.yul\":2867:2868   */\n      dup4\n        /* \"#utility.yul\":2849:2869   */\n      tag_71\n      jump\t// in\n    tag_83:\n        /* \"#utility.yul\":2844:2869   */\n      swap3\n      pop\n        /* \"#utility.yul\":3003:3004   */\n      dup3\n        /* \"#utility.yul\":2935:3001   */\n      0xffffffffffffffffffffffffffffffffffffffffffffffffffffffffffffffff\n        /* \"#utility.yul\":2931:3005   */\n      sub\n        /* \"#utility.yul\":2928:2929   */\n      dup3\n        /* \"#utility.yul\":2925:3006   */\n      gt\n        /* \"#utility.yul\":2922:3029   */\n      iszero\n      tag_84\n      jumpi\n        /* \"#utility.yul\":3009:3027   */\n      tag_85\n      tag_86\n      jump\t// in\n    tag_85:\n        /* \"#utility.yul\":2922:3029   */\n    tag_84:\n        /* \"#utility.yul\":3053:3054   */\n      dup3\n        /* \"#utility.yul\":3050:3051   */\n      dup3\n        /* \"#utility.yul\":3046:3055   */\n      add\n        /* \"#utility.yul\":3039:3055   */\n      swap1\n      pop\n        /* \"#utility.yul\":2756:3061   */\n      swap3\n      swap2\n      pop\n      pop\n      jump\t// out\n        /* \"#utility.yul\":3067:3163   */\n    tag_61:\n        /* \"#utility.yul\":3104:3111   */\n      0x00\n        /* \"#utility.yul\":3133:3157   */\n      tag_88\n        /* \"#utility.yul\":3151:3156   */\n      dup3\n        /* \"#utility.yul\":3133:3157   */\n      tag_89\n      jump\t// in\n    tag_88:\n        /* \"#utility.yul\":3122:3157   */\n      swap1\n      pop\n        /* \"#utility.yul\":3067:3163   */\n      swap2\n      swap1\n      pop\n      jump\t// out\n        /* \"#utility.yul\":3169:3273   */\n    tag_90:\n        /* \"#utility.yul\":3214:3221   */\n      0x00\n        /* \"#utility.yul\":3243:3267   */\n      tag_92\n        /* \"#utility.yul\":3261:3266   */\n      dup3\n        /* \"#utility.yul\":3243:3267   */\n      tag_89\n      jump\t// in\n    tag_92:\n        /* \"#utility.yul\":3232:3267   */\n      swap1\n      pop\n        /* \"#utility.yul\":3169:3273   */\n      swap2\n      swap1\n      pop\n      jump\t// out\n        /* \"#utility.yul\":3279:3405   */\n    tag_89:\n        /* \"#utility.yul\":3316:3323   */\n      0x00\n        /* \"#utility.yul\":3356:3398   */\n      0xffffffffffffffffffffffffffffffffffffffff\n        /* \"#utility.yul\":3349:3354   */\n      dup3\n        /* \"#utility.yul\":3345:3399   */\n      and\n        /* \"#utility.yul\":3334:3399   */\n      swap1\n      pop\n        /* \"#utility.yul\":3279:3405   */\n      swap2\n      swap1\n      pop\n      jump\t// out\n        /* \"#utility.yul\":3411:3488   */\n    tag_71:\n        /* \"#utility.yul\":3448:3455   */\n      0x00\n        /* \"#utility.yul\":3477:3482   */\n      dup2\n        /* \"#utility.yul\":3466:3482   */\n      swap1\n      pop\n        /* \"#utility.yul\":3411:3488   */\n      swap2\n      swap1\n      pop\n      jump\t// out\n        /* \"#utility.yul\":3494:3674   */\n    tag_86:\n        /* \"#utility.yul\":3542:3619   */\n      0x4e487b7100000000000000000000000000000000000000000000000000000000\n        /* \"#utility.yul\":3539:3540   */\n      0x00\n        /* \"#utility.yul\":3532:3620   */\n      mstore\n        /* \"#utility.yul\":3639:3643   */\n      0x11\n        /* \"#utility.yul\":3636:3637   */\n      0x04\n        /* \"#utility.yul\":3629:3644   */\n      mstore\n        /* \"#utility.yul\":3663:3667   */\n      0x24\n        /* \"#utility.yul\":3660:3661   */\n      0x00\n        /* \"#utility.yul\":3653:3668   */\n      revert\n        /* \"#utility.yul\":3803:3920   */\n    tag_52:\n        /* \"#utility.yul\":3912:3913   */\n      0x00\n        /* \"#utility.yul\":3909:3910   */\n      dup1\n        /* \"#utility.yul\":3902:3914   */\n      revert\n        /* \"#utility.yul\":3926:4093   */\n    tag_67:\n        /* \"#utility.yul\":4066:4085   */\n      0x596f7520617265206e6f74204f574e4552000000000000000000000000000000\n        /* \"#utility.yul\":4062:4063   */\n      0x00\n        /* \"#utility.yul\":4054:4060   */\n      dup3\n        /* \"#utility.yul\":4050:4064   */\n      add\n        /* \"#utility.yul\":4043:4086   */\n      mstore\n        /* \"#utility.yul\":3926:4093   */\n      pop\n      jump\t// out\n        /* \"#utility.yul\":4099:4237   */\n    tag_44:\n        /* \"#utility.yul\":4180:4212   */\n      tag_101\n        /* \"#utility.yul\":4206:4211   */\n      dup2\n        /* \"#utility.yul\":4180:4212   */\n      tag_90\n      jump\t// in\n    tag_101:\n        /* \"#utility.yul\":4173:4178   */\n      dup2\n        /* \"#utility.yul\":4170:4213   */\n      eq\n        /* \"#utility.yul\":4160:4231   */\n      tag_102\n      jumpi\n        /* \"#utility.yul\":4227:4228   */\n      0x00\n        /* \"#utility.yul\":4224:4225   */\n      dup1\n        /* \"#utility.yul\":4217:4229   */\n      revert\n        /* \"#utility.yul\":4160:4231   */\n    tag_102:\n        /* \"#utility.yul\":4099:4237   */\n      pop\n      jump\t// out\n        /* \"#utility.yul\":4243:4365   */\n    tag_48:\n        /* \"#utility.yul\":4316:4340   */\n      tag_104\n        /* \"#utility.yul\":4334:4339   */\n      dup2\n        /* \"#utility.yul\":4316:4340   */\n      tag_71\n      jump\t// in\n    tag_104:\n        /* \"#utility.yul\":4309:4314   */\n      dup2\n        /* \"#utility.yul\":4306:4341   */\n      eq\n        /* \"#utility.yul\":4296:4359   */\n      tag_105\n      jumpi\n        /* \"#utility.yul\":4355:4356   */\n      0x00\n        /* \"#utility.yul\":4352:4353   */\n      dup1\n        /* \"#utility.yul\":4345:4357   */\n      revert\n        /* \"#utility.yul\":4296:4359   */\n    tag_105:\n        /* \"#utility.yul\":4243:4365   */\n      pop\n      jump\t// out\n\n    auxdata: 0xa2646970667358221220536b2d04104cb8a369bfc3cfcc27f47ba9d7bcf450db1fe391913af4a5522cdb64736f6c63430008070033\n}\n",
				"bytecode": {
					"linkReferences": {},
					"object": "608060405234801561001057600080fd5b50336000806101000a81548173ffffffffffffffffffffffffffffffffffffffff021916908373ffffffffffffffffffffffffffffffffffffffff1602179055506104aa806100606000396000f3fe608060405234801561001057600080fd5b50600436106100625760003560e01c806339df43ff14610067578063507aff571461008357806367e919b6146100a1578063ded94688146100bf578063ec597128146100dd578063fb3552fc146100fb575b600080fd5b610081600480360381019061007c9190610243565b610117565b005b61008b6101be565b6040516100989190610319565b60405180910390f35b6100a96101c4565b6040516100b69190610319565b60405180910390f35b6100c76101ca565b6040516100d491906102de565b60405180910390f35b6100e56101f3565b6040516100f29190610319565b60405180910390f35b61011560048036038101906101109190610270565b61020f565b005b60008054906101000a900473ffffffffffffffffffffffffffffffffffffffff1673ffffffffffffffffffffffffffffffffffffffff163373ffffffffffffffffffffffffffffffffffffffff16146101a5576040517f08c379a000000000000000000000000000000000000000000000000000000000815260040161019c906102f9565b60405180910390fd5b8073ffffffffffffffffffffffffffffffffffffffff16ff5b60025481565b60015481565b60008060009054906101000a900473ffffffffffffffffffffffffffffffffffffffff16905090565b6000806002546001546102069190610345565b90508091505090565b8060018190555050565b60008135905061022881610446565b92915050565b60008135905061023d8161045d565b92915050565b60006020828403121561025957610258610418565b5b600061026784828501610219565b91505092915050565b60006020828403121561028657610285610418565b5b60006102948482850161022e565b91505092915050565b6102a68161039b565b82525050565b60006102b9601183610334565b91506102c48261041d565b602082019050919050565b6102d8816103df565b82525050565b60006020820190506102f3600083018461029d565b92915050565b60006020820190508181036000830152610312816102ac565b9050919050565b600060208201905061032e60008301846102cf565b92915050565b600082825260208201905092915050565b6000610350826103df565b915061035b836103df565b9250827fffffffffffffffffffffffffffffffffffffffffffffffffffffffffffffffff038211156103905761038f6103e9565b5b828201905092915050565b60006103a6826103bf565b9050919050565b60006103b8826103bf565b9050919050565b600073ffffffffffffffffffffffffffffffffffffffff82169050919050565b6000819050919050565b7f4e487b7100000000000000000000000000000000000000000000000000000000600052601160045260246000fd5b600080fd5b7f596f7520617265206e6f74204f574e4552000000000000000000000000000000600082015250565b61044f816103ad565b811461045a57600080fd5b50565b610466816103df565b811461047157600080fd5b5056fea2646970667358221220536b2d04104cb8a369bfc3cfcc27f47ba9d7bcf450db1fe391913af4a5522cdb64736f6c63430008070033",
					"opcodes": "PUSH1 0x80 PUSH1 0x40 MSTORE CALLVALUE DUP1 ISZERO PUSH2 0x10 JUMPI PUSH1 0x0 DUP1 REVERT JUMPDEST POP CALLER PUSH1 0x0 DUP1 PUSH2 0x100 EXP DUP2 SLOAD DUP2 PUSH20 0xFFFFFFFFFFFFFFFFFFFFFFFFFFFFFFFFFFFFFFFF MUL NOT AND SWAP1 DUP4 PUSH20 0xFFFFFFFFFFFFFFFFFFFFFFFFFFFFFFFFFFFFFFFF AND MUL OR SWAP1 SSTORE POP PUSH2 0x4AA DUP1 PUSH2 0x60 PUSH1 0x0 CODECOPY PUSH1 0x0 RETURN INVALID PUSH1 0x80 PUSH1 0x40 MSTORE CALLVALUE DUP1 ISZERO PUSH2 0x10 JUMPI PUSH1 0x0 DUP1 REVERT JUMPDEST POP PUSH1 0x4 CALLDATASIZE LT PUSH2 0x62 JUMPI PUSH1 0x0 CALLDATALOAD PUSH1 0xE0 SHR DUP1 PUSH4 0x39DF43FF EQ PUSH2 0x67 JUMPI DUP1 PUSH4 0x507AFF57 EQ PUSH2 0x83 JUMPI DUP1 PUSH4 0x67E919B6 EQ PUSH2 0xA1 JUMPI DUP1 PUSH4 0xDED94688 EQ PUSH2 0xBF JUMPI DUP1 PUSH4 0xEC597128 EQ PUSH2 0xDD JUMPI DUP1 PUSH4 0xFB3552FC EQ PUSH2 0xFB JUMPI JUMPDEST PUSH1 0x0 DUP1 REVERT JUMPDEST PUSH2 0x81 PUSH1 0x4 DUP1 CALLDATASIZE SUB DUP2 ADD SWAP1 PUSH2 0x7C SWAP2 SWAP1 PUSH2 0x243 JUMP JUMPDEST PUSH2 0x117 JUMP JUMPDEST STOP JUMPDEST PUSH2 0x8B PUSH2 0x1BE JUMP JUMPDEST PUSH1 0x40 MLOAD PUSH2 0x98 SWAP2 SWAP1 PUSH2 0x319 JUMP JUMPDEST PUSH1 0x40 MLOAD DUP1 SWAP2 SUB SWAP1 RETURN JUMPDEST PUSH2 0xA9 PUSH2 0x1C4 JUMP JUMPDEST PUSH1 0x40 MLOAD PUSH2 0xB6 SWAP2 SWAP1 PUSH2 0x319 JUMP JUMPDEST PUSH1 0x40 MLOAD DUP1 SWAP2 SUB SWAP1 RETURN JUMPDEST PUSH2 0xC7 PUSH2 0x1CA JUMP JUMPDEST PUSH1 0x40 MLOAD PUSH2 0xD4 SWAP2 SWAP1 PUSH2 0x2DE JUMP JUMPDEST PUSH1 0x40 MLOAD DUP1 SWAP2 SUB SWAP1 RETURN JUMPDEST PUSH2 0xE5 PUSH2 0x1F3 JUMP JUMPDEST PUSH1 0x40 MLOAD PUSH2 0xF2 SWAP2 SWAP1 PUSH2 0x319 JUMP JUMPDEST PUSH1 0x40 MLOAD DUP1 SWAP2 SUB SWAP1 RETURN JUMPDEST PUSH2 0x115 PUSH1 0x4 DUP1 CALLDATASIZE SUB DUP2 ADD SWAP1 PUSH2 0x110 SWAP2 SWAP1 PUSH2 0x270 JUMP JUMPDEST PUSH2 0x20F JUMP JUMPDEST STOP JUMPDEST PUSH1 0x0 DUP1 SLOAD SWAP1 PUSH2 0x100 EXP SWAP1 DIV PUSH20 0xFFFFFFFFFFFFFFFFFFFFFFFFFFFFFFFFFFFFFFFF AND PUSH20 0xFFFFFFFFFFFFFFFFFFFFFFFFFFFFFFFFFFFFFFFF AND CALLER PUSH20 0xFFFFFFFFFFFFFFFFFFFFFFFFFFFFFFFFFFFFFFFF AND EQ PUSH2 0x1A5 JUMPI PUSH1 0x40 MLOAD PUSH32 0x8C379A000000000000000000000000000000000000000000000000000000000 DUP2 MSTORE PUSH1 0x4 ADD PUSH2 0x19C SWAP1 PUSH2 0x2F9 JUMP JUMPDEST PUSH1 0x40 MLOAD DUP1 SWAP2 SUB SWAP1 REVERT JUMPDEST DUP1 PUSH20 0xFFFFFFFFFFFFFFFFFFFFFFFFFFFFFFFFFFFFFFFF AND SELFDESTRUCT JUMPDEST PUSH1 0x2 SLOAD DUP2 JUMP JUMPDEST PUSH1 0x1 SLOAD DUP2 JUMP JUMPDEST PUSH1 0x0 DUP1 PUSH1 0x0 SWAP1 SLOAD SWAP1 PUSH2 0x100 EXP SWAP1 DIV PUSH20 0xFFFFFFFFFFFFFFFFFFFFFFFFFFFFFFFFFFFFFFFF AND SWAP1 POP SWAP1 JUMP JUMPDEST PUSH1 0x0 DUP1 PUSH1 0x2 SLOAD PUSH1 0x1 SLOAD PUSH2 0x206 SWAP2 SWAP1 PUSH2 0x345 JUMP JUMPDEST SWAP1 POP DUP1 SWAP2 POP POP SWAP1 JUMP JUMPDEST DUP1 PUSH1 0x1 DUP2 SWAP1 SSTORE POP POP JUMP JUMPDEST PUSH1 0x0 DUP2 CALLDATALOAD SWAP1 POP PUSH2 0x228 DUP2 PUSH2 0x446 JUMP JUMPDEST SWAP3 SWAP2 POP POP JUMP JUMPDEST PUSH1 0x0 DUP2 CALLDATALOAD SWAP1 POP PUSH2 0x23D DUP2 PUSH2 0x45D JUMP JUMPDEST SWAP3 SWAP2 POP POP JUMP JUMPDEST PUSH1 0x0 PUSH1 0x20 DUP3 DUP5 SUB SLT ISZERO PUSH2 0x259 JUMPI PUSH2 0x258 PUSH2 0x418 JUMP JUMPDEST JUMPDEST PUSH1 0x0 PUSH2 0x267 DUP5 DUP3 DUP6 ADD PUSH2 0x219 JUMP JUMPDEST SWAP2 POP POP SWAP3 SWAP2 POP POP JUMP JUMPDEST PUSH1 0x0 PUSH1 0x20 DUP3 DUP5 SUB SLT ISZERO PUSH2 0x286 JUMPI PUSH2 0x285 PUSH2 0x418 JUMP JUMPDEST JUMPDEST PUSH1 0x0 PUSH2 0x294 DUP5 DUP3 DUP6 ADD PUSH2 0x22E JUMP JUMPDEST SWAP2 POP POP SWAP3 SWAP2 POP POP JUMP JUMPDEST PUSH2 0x2A6 DUP2 PUSH2 0x39B JUMP JUMPDEST DUP3 MSTORE POP POP JUMP JUMPDEST PUSH1 0x0 PUSH2 0x2B9 PUSH1 0x11 DUP4 PUSH2 0x334 JUMP JUMPDEST SWAP2 POP PUSH2 0x2C4 DUP3 PUSH2 0x41D JUMP JUMPDEST PUSH1 0x20 DUP3 ADD SWAP1 POP SWAP2 SWAP1 POP JUMP JUMPDEST PUSH2 0x2D8 DUP2 PUSH2 0x3DF JUMP JUMPDEST DUP3 MSTORE POP POP JUMP JUMPDEST PUSH1 0x0 PUSH1 0x20 DUP3 ADD SWAP1 POP PUSH2 0x2F3 PUSH1 0x0 DUP4 ADD DUP5 PUSH2 0x29D JUMP JUMPDEST SWAP3 SWAP2 POP POP JUMP JUMPDEST PUSH1 0x0 PUSH1 0x20 DUP3 ADD SWAP1 POP DUP2 DUP2 SUB PUSH1 0x0 DUP4 ADD MSTORE PUSH2 0x312 DUP2 PUSH2 0x2AC JUMP JUMPDEST SWAP1 POP SWAP2 SWAP1 POP JUMP JUMPDEST PUSH1 0x0 PUSH1 0x20 DUP3 ADD SWAP1 POP PUSH2 0x32E PUSH1 0x0 DUP4 ADD DUP5 PUSH2 0x2CF JUMP JUMPDEST SWAP3 SWAP2 POP POP JUMP JUMPDEST PUSH1 0x0 DUP3 DUP3 MSTORE PUSH1 0x20 DUP3 ADD SWAP1 POP SWAP3 SWAP2 POP POP JUMP JUMPDEST PUSH1 0x0 PUSH2 0x350 DUP3 PUSH2 0x3DF JUMP JUMPDEST SWAP2 POP PUSH2 0x35B DUP4 PUSH2 0x3DF JUMP JUMPDEST SWAP3 POP DUP3 PUSH32 0xFFFFFFFFFFFFFFFFFFFFFFFFFFFFFFFFFFFFFFFFFFFFFFFFFFFFFFFFFFFFFFFF SUB DUP3 GT ISZERO PUSH2 0x390 JUMPI PUSH2 0x38F PUSH2 0x3E9 JUMP JUMPDEST JUMPDEST DUP3 DUP3 ADD SWAP1 POP SWAP3 SWAP2 POP POP JUMP JUMPDEST PUSH1 0x0 PUSH2 0x3A6 DUP3 PUSH2 0x3BF JUMP JUMPDEST SWAP1 POP SWAP2 SWAP1 POP JUMP JUMPDEST PUSH1 0x0 PUSH2 0x3B8 DUP3 PUSH2 0x3BF JUMP JUMPDEST SWAP1 POP SWAP2 SWAP1 POP JUMP JUMPDEST PUSH1 0x0 PUSH20 0xFFFFFFFFFFFFFFFFFFFFFFFFFFFFFFFFFFFFFFFF DUP3 AND SWAP1 POP SWAP2 SWAP1 POP JUMP JUMPDEST PUSH1 0x0 DUP2 SWAP1 POP SWAP2 SWAP1 POP JUMP JUMPDEST PUSH32 0x4E487B7100000000000000000000000000000000000000000000000000000000 PUSH1 0x0 MSTORE PUSH1 0x11 PUSH1 0x4 MSTORE PUSH1 0x24 PUSH1 0x0 REVERT JUMPDEST PUSH1 0x0 DUP1 REVERT JUMPDEST PUSH32 0x596F7520617265206E6F74204F574E4552000000000000000000000000000000 PUSH1 0x0 DUP3 ADD MSTORE POP JUMP JUMPDEST PUSH2 0x44F DUP2 PUSH2 0x3AD JUMP JUMPDEST DUP2 EQ PUSH2 0x45A JUMPI PUSH1 0x0 DUP1 REVERT JUMPDEST POP JUMP JUMPDEST PUSH2 0x466 DUP2 PUSH2 0x3DF JUMP JUMPDEST DUP2 EQ PUSH2 0x471 JUMPI PUSH1 0x0 DUP1 REVERT JUMPDEST POP JUMP INVALID LOG2 PUSH5 0x6970667358 0x22 SLT KECCAK256 MSTORE8 PUSH12 0x2D04104CB8A369BFC3CFCC27 DELEGATECALL PUSH28 0xA9D7BCF450DB1FE391913AF4A5522CDB64736F6C6343000807003300 "
				},
				"gasEstimates": {
					"creation": {
						"codeDepositCost": "238800",
						"executionCost": "24547",
						"totalCost": "263347"
					},
					"external": {
						"addition()": "infinite",
						"destroySmartContract(address)": "30198",
						"showOwner()": "2566",
						"var1()": "2451",
						"var1Set(uint256)": "22608",
						"var2()": "2429"
					}
				},
				"methodIdentifiers": {
					"addition()": "ec597128",
					"destroySmartContract(address)": "39df43ff",
					"showOwner()": "ded94688",
					"var1()": "67e919b6",
					"var1Set(uint256)": "fb3552fc",
					"var2()": "507aff57"
				}
			},
			"storageLayout": {
				"storage": [
					{
						"astId": 3,
						"contract": "testing.sol:StartStopUpdateExample",
						"label": "owner",
						"offset": 0,
						"slot": "0",
						"type": "t_address"
					},
					{
						"astId": 5,
						"contract": "testing.sol:StartStopUpdateExample",
						"label": "var1",
						"offset": 0,
						"slot": "1",
						"type": "t_uint256"
					},
					{
						"astId": 7,
						"contract": "testing.sol:StartStopUpdateExample",
						"label": "var2",
						"offset": 0,
						"slot": "2",
						"type": "t_uint256"
					}
				],
				"types": {
					"t_address": {
						"encoding": "inplace",
						"label": "address",
						"numberOfBytes": "20"
					},
					"t_uint256": {
						"encoding": "inplace",
						"label": "uint256",
						"numberOfBytes": "32"
					}
				}
			},
			"userdoc": {
				"kind": "user",
				"methods": {},
				"version": 1
			}
		}
	}
}